:100000000C94ED010C9415020C9415020C9415023D
:100010000C9415020C9415020C9415020C94150204
:100020000C9415020C9415020C9415020C941502F4
:100030000C9415020C9415020C9415020C941502E4
:100040000C94B7270C9415020C948A070C94C507DE
:100050000C9415020C9415020C9415020C941502C4
:100060000C9415020C9415020115041507150A15B8
:100070000D1510151315161519151C15A317931723
:100080009517971799179B179D179F17A117161D5F
:10009000161D251D4B1D411D591D671D751D8F1DED
:1000A000B01D084AD73B3BCE016E84BCBFFDC12FBB
:1000B0003D6C74319ABD56833DDA3D00C77F11BE59
:1000C000D9E4BB4C3E916BAAAABE000000803F055C
:1000D000A84CCDB2D44EB93836A9020C50B991868D
:1000E00088083CA6AAAA2ABE000000803F0664EC4D
:1000F0001B3C04BC163E3BE5B93CC93C37C29E5A8A
:100100003D660498083EEA69AAAA3E000000803FC6
:10011000EAEB00EAEC00426F6F74696E672075705D
:100120003AEDF2F2F2F2F2F2F2F300576169746919
:100130006E6720666F727C4D41564C696E6B20680D
:100140006561727462656174732E2E2E00C8202062
:1001500020202020202020202020C900C82020206E
:10016000202020202020202020C97C00D8202020F2
:10017000202020202020202020D97C00C8202020E2
:10018000202020202020202020C97C00C8202020E2
:10019000202020202020202020C97C0005030405E9
:1001A0007C1513141500436F6E6669677572616282
:1001B0006C65204F73642076322E32004368617282
:1001C00020446F6E650A00526561647920666F7223
:1001D00020466F6E740A0055706461746520436830
:1001E000617253657400EEEEEEEEEEEEEEEE00EEB2
:1001F000EEEEEEEEEEEE00EEEEEEEEEEEEF000EEF9
:10020000EEEEEEEEF0F200EEEEEEEEF0F2F200EEDA
:10021000EEEEF0F2F2F200EEEEF0F2F2F2F200EEBA
:10022000F0F2F2F2F2F200EFF2F2F2F2F2F200F198
:10023000F2F2F2F2F2F20052657175657374696E52
:1002400067204461746153747265616D732E2E2E44
:1002500000454550524F4D206D617070696E6720AA
:100260006F75746461746564217C55706461746534
:10027000207769746820746865204F534420546F58
:100280006F6C2E0000407A10F35A00A0724E1809CD
:100290000010A5D4E80000E87648170000E40B54ED
:1002A000020000CA9A3B000000E1F50500008096BC
:1002B0009800000040420F000000A08601000000EE
:1002C000102700000000E8030000000064000000A8
:1002D00000000A00000000000100000000002C7671
:1002E000D888DC674F0823DFC1DFAE59E1B1B7968C
:1002F000E5E3E453C63AE651997696E8E6C28426E9
:10030000EB898C9B62ED407C6FFCEFBC9C9F40F2C4
:10031000BAA56FA5F490055A2AF75C936B6CF96740
:100320006DC11BFCE0E40D47FEF520E6B500D0ED05
:10033000902E0300943577050080841E080000206D
:100340004E0A000000C80C333333330F986E12830B
:100350001141EF8D2114893BE65516CFFEE6DB18DF
:10036000D1844B381BF77C1D901DA4BBE4242032A4
:1003700084725E228100C9F124ECA1E53D276E6103
:100380006E00696E660000000008000201000003B4
:100390000407000000000000000001020408102013
:1003A0004080010204081020010204081020040407
:1003B000040404040404020202020202030303030D
:1003C000030300000000250028002B0000000000AF
:1003D000240027002A003C1BAD2011241FBECFEFB4
:1003E000D8E0DEBFCDBF15E0A0E0B1E0E0EAFDE57A
:1003F00002C005900D92A031B107D9F726E0A0E127
:10040000B5E001C01D92A23DB207E1F713E0CAEDCD
:10041000D3E004C02297FE010E94712DC63DD10792
:10042000C9F70E9437290C94CE2E0C940000283076
:1004300008F027E03327DA01990F311D87FD91601D
:1004400000966105710539F432602E5F3D9330E30B
:100450002A95E1F708959F3F30F0803871056105D6
:1004600009F03C5F3C5F3D93913008F08068911D3E
:10047000DF93CF931F930F93FF92EF92192F987FE3
:100480009695E92F96959695E90FFF27E252FD4F35
:1004900099273327EE24FF24A701E701059008944C
:1004A000079428F4360FE71EF81E491F511D660FEA
:1004B000771F881F991F0694A1F70590079428F4C9
:1004C000E70EF81E491F561FC11D770F881F991F81
:1004D000661F0694A1F70590079428F4F80E491FAB
:1004E000561FC71FD11D880F991F661F771F0694BF
:1004F000A1F70590079420F4490F561FC71FD81F76
:10050000990F661F771F881F0694A9F7849110958D
:10051000177041F0D695C79557954795F794E7948E
:100520001A95C1F7E4E8F2E06894159015913591B9
:100530006591959105907FE27395E118F10A430B5F
:10054000560BC90BD009C0F7E10CF11E431F561F13
:10055000C91FD01D7EF4703311F48A95E6CFE8945C
:10056000015030F0080F0AF40027021708F4202F7A
:100570002395022F7A3328F079E37D932A95E9F7C2
:1005800010C07D932A9589F60694979567953795BF
:1005900017951794E118F10A430B560BC90BD009B4
:1005A00098F023957E9173957A3308F070E37C93ED
:1005B0002013B8F77E9170617D9330F0839571E3DD
:1005C0007D9370E32A95E1F71124EF90FF900F914E
:1005D0001F91CF91DF91992787FD90950895FA019A
:1005E000AA27283051F1203181F1E8946F936E7F72
:1005F0006E5F7F4F8F4F9F4FAF4FB1E03ED0B4E063
:100600003CD0670F781F891F9A1FA11D680F791FA3
:100610008A1F911DA11D6A0F711D811D911DA11DB4
:1006200020D009F468943F912AE0269F11243019C4
:10063000305D3193DEF6CF010895462F4770405D5F
:100640004193B3E00FD0C9F7F6CF462F4F70405D0E
:100650004A3318F0495D31FD4052419302D0A9F769
:10066000EACFB4E0A6959795879577956795BA9563
:10067000C9F700976105710508959B01AC010A2E29
:1006800006945795479537952795BA95C9F7620F00
:10069000731F841F951FA01D089580E090E00895AA
:1006A00080E090E0089580E090E008950895FC01D6
:1006B0001382128248EE53E060E070E04483558379
:1006C000668377838BE391E0918380830895CF9352
:1006D000DF93EC01188A86E0898B80E993E00E9421
:1006E000C62E813041F480E4888B88E0898B60E0FD
:1006F00086E00E94002960E086E0DF91CF910C94B3
:100700000029FC018089803419F080E090E0089590
:1007100081E090E00895FC01818990E0089560E017
:1007200086E00E94002964E081EB96E00E94A72009
:1007300064E081EB96E00E94A72061E086E00C94E3
:100740000029FC0164874587668747870895CF9312
:10075000DF93FC012785C685D0E0FEE12F9FC00D09
:10076000D11D112460E086E00E94002964E081EB45
:1007700096E00E94A72063E081EB96E00E94A7200C
:1007800065E081EB96E00E94A7206D2F81EB96E05B
:100790000E94A72066E081EB96E00E94A7206C2FC4
:1007A00081EB96E0DF91CF910C94A720CF93DF935C
:1007B000EC0167E081EB96E00E94A7206FEF81EBF0
:1007C00096E00E94A72061E086E00E9400298F85C4
:1007D0008F5F8F87DF91CF9108951F93CF93DF9322
:1007E000EC01162F6C3731F40E94D603CE010E9423
:1007F000A7030AC067E081EB96E00E94A720612F63
:1008000081EB96E00E94A72081E090E0DF91CF91FC
:100810001F910895CF93DF93C62FD0E08EE1489FBC
:10082000C00DD11D112460E086E00E94002965E022
:1008300081EB96E00E94A7206D2F81EB96E00E944D
:10084000A72066E081EB96E00E94A7206C2F81EB49
:1008500096E0DF91CF910C94A7201F93CF93DF9365
:10086000EC01162F60E086E00E94002960E081EB39
:1008700096E00E94A720112329F0113041F46889E5
:100880006C6101C0688981EB96E00E94A72061E05D
:1008900086E0DF91CF911F910C9400291F93CF9395
:1008A000DF93EC0161E086E00E94C72860E082E00F
:1008B0000E94C72861E082E00E940029CE010E94C8
:1008C000670360E086E00E9400296CEE81EB96E011
:1008D0000E94A7206FEF81EB96E00E94A720182FBF
:1008E00060E081EB96E00E94A7206889626081EB5E
:1008F00096E00E94A72062E370E080E090E00E9412
:1009000030286CE681EB96E00E94A720612F6F7E75
:1009100081EB96E00E94A72010921105109210051D
:1009200080911005909111050C97C4F46091100509
:1009300070911105605F81EB96E00E94A72060E056
:1009400081EB96E00E94A7208091100590911105FF
:1009500001969093110580931005E2CF61E0CE01DE
:10096000DF91CF911F910C942D04EF92FF920F9382
:100970001F93CF93DF9300D0CDB7DEB7162F60E083
:1009800086E049835A830E94002960E081EB96E06B
:100990000E94A72060E081EB96E00E94A72069E01A
:1009A00081EB96E00E94A720612F81EB96E00E94E8
:1009B000A7204981E42E5A81F52E10E0F70101911C
:1009C0007F016AE081EB96E00E94A720612F81EB16
:1009D00096E00E94A7206BE081EB96E00E94A720A2
:1009E000602F81EB96E00E94A7201F5F163331F73E
:1009F00068E081EB96E00E94A72060EA81EB96E038
:100A00000E94A72060EA81EB96E00E94A72085FD66
:100A1000F9CF60E081EB96E00E94A7206CE081EBCB
:100A200096E00E94A72061E086E00F900F90DF9192
:100A3000CF911F910F91FF90EF900C940029FB0133
:100A40009081982780E1989F900111242927822F77
:100A500090E0382F2227AC0163E0440F551F6A95C0
:100A6000E1F724273527418150E02427352774E01A
:100A7000959587957A95E1F7282739273183208343
:100A800008950C94C62E0F931F93CF93DF938B0181
:100A9000EC01080F191FC017D10769F06991809107
:100AA000C3069091C406DC01ED91FC910190F081A8
:100AB000E02D0995F0CFDF91CF911F910F9108950F
:100AC0009F92AF92BF92CF92DF92EF92FF920F93DD
:100AD0001F93CF93DF93CDB7DEB72A970FB6F89465
:100AE000DEBF0FBECDBFD62EB72EC42EA22E9EEFD8
:100AF00099834A83909189059B8320911F012C83C0
:100B0000209120012D838E839F5F90938905EFEFC5
:100B1000FFEFF887EF838E010E5F1F4F7E0187E0A6
:100B2000E80EF11C0E151F0539F0B701F80181918F
:100B30008F010E941F05F6CFEF81F885FA87E987BC
:100B40000D2D1B2D9C2C9D0CBE01675F7F4F9016B9
:100B500031F0F80181918F010E941F05F5CF8A2D98
:100B60000E941F0599858A859F83888766E070E0CB
:100B7000CE0101960E9443056C2D70E08D2D9B2DBA
:100B80000E94430562E070E0C7010E9443052A9677
:100B90000FB6F894DEBF0FBECDBFDF91CF911F918E
:100BA0000F91FF90EF90DF90CF90BF90AF909F900C
:100BB000089520E030E040E152E460914B067091EE
:100BC0004C0680914D0690914E060E94022C20E02A
:100BD00030E044EB53E40E943D2A0E94652C0E94C1
:100BE000A52A9B012550310937FF02C02C5D3F4FDC
:100BF000E4EDF5E0D901AD52BB4F8C9181932F5FAD
:100C00003F4F2432310514F020E030E085E0EF3D25
:100C1000F80781F71092DF0508954F925F926F9267
:100C20007F928F929F92AF92BF92CF92DF92EF927C
:100C3000FF921F93CF93DF93CDB7DEB728970FB600
:100C4000F894DEBF0FBECDBF80916306811129C02D
:100C500080916406823008F447C180916A069091C1
:100C60006B06A0916C06B0916D0680935F06909321
:100C70006006A0936106B09362068091660690912B
:100C80006706A0916806B091690680935B06909311
:100C90005C06A0935D06B0935E0681E080936306D8
:100CA00023C1813009F020C1109139061931A8F50E
:100CB000C0904706D0904806E0904906F0904A065A
:100CC000A70196016091350670913606809137062E
:100CD000909138060E946F299F7720E030E040E035
:100CE0005FE30E94F72B18165CF410923906C0924D
:100CF0003506D0923606E0923706F09238060DC0DF
:100D00001F5F10933906193141F4C0925706D092F3
:100D10005806E0925906F0925A06C0905F06D090AD
:100D20006006E0906106F0906206C701B6019F7709
:100D300025E33AEF4EE85CE30E94022C0E943A2A37
:100D400069837A838B839C8320916A0630916B063A
:100D500040916C0650916D06C701B6010E946F2943
:100D60006B017C019F7720EC3BE649ED57E40E9444
:100D7000022C2B013C0120916606309167064091C0
:100D800068065091690660915B0670915C068091DF
:100D90005D0690915E060E946F296D837E838F832E
:100DA00098879F7720EC3BE649ED57E40E94022CA0
:100DB00029813A814B815C810E94022C4B015C01AC
:100DC000A3019201C301B2010E94022C2B013C013C
:100DD000A5019401C501B4010E94022C9B01AC0144
:100DE000C301B2010E9470290E94892C0E94A52A89
:100DF000609353067093540680935506909356065D
:100E00008D809E80AF80B884B7FAB094B7F8B09464
:100E100029813A814B815C8160E070E080E89FE34A
:100E20000E943D2A9B01AC01C701B6010E94022C21
:100E3000A50194010E94E32920EE3EE245E652E43A
:100E40000E94022C20E030E044EB52E40E94702922
:100E50000E94A52A6B017C0197FF06C088E6C80E98
:100E600081E0D81EE11CF11CC701B601645B710969
:100E70008109910997FF06C0C701B6016C547F4FE5
:100E80008F4F9F4F0E94D82A20914B0630914C06DD
:100E900040914D0650914E060E946F290E94A52A4E
:100EA00097FF04C068597E4F8F4F9F4F0E94D82AEA
:100EB00020E030E044EB53E40E943D2A20E030E0A3
:100EC00040E851E40E94022C0E94652C20E030E0B2
:100ED00040E85FE30E9470290E94AA2A60935206AC
:100EE000613110F01092520628960FB6F894DEBFCA
:100EF0000FBECDBFDF91CF911F91FF90EF90DF909C
:100F0000CF90BF90AF909F908F907F906F905F90A9
:100F10004F9008951F920F920FB60F9211242F93A6
:100F20003F934F938F939F93EF93FF934091C6000E
:100F30008091BB069091BC0601962091BF0630912E
:100F4000C006822393232091BD063091BE068217EE
:100F5000930779F02091BB063091BC06E091C10661
:100F6000F091C206E20FF31F40839093BC0680937A
:100F7000BB06FF91EF919F918F914F913F912F91E0
:100F80000F900FBE0F901F9018951F920F920FB6E3
:100F90000F9211242F933F938F939F93EF93FF937F
:100FA0002091B5063091B6068091B3069091B406B3
:100FB00028173907E9F08091B5069091B606E091BF
:100FC000B906F091BA06E80FF91F80818093C60038
:100FD0008091B5069091B60601962091B7063091A2
:100FE000B806822393239093B6068093B50610C06B
:100FF0002091B3063091B4068091B5069091B60663
:101000002817390729F48091C1008F7D8093C10092
:10101000FF91EF919F918F913F912F910F900FBE74
:101020000F901F90189561E086E00C9400292F9294
:101030003F924F925F926F927F928F929F92AF9268
:10104000BF92CF92DF92EF92FF920F931F93CF93B5
:10105000DF93CDB7DEB7C754D1090FB6F894DEBF22
:101060000FBECDBF86E0E5E2F1E0DE01AE5BBF4F33
:1010700001900D928A95E1F78CE0EBE2F1E0DE0160
:10108000D69601900D928A95E1F706E310E00C0FD9
:101090001D1F045F1F4FCE018E5B9F4F6C01FE0131
:1010A000F6967F01BB24B394F701819191917F0162
:1010B000F60121916F0130912706409128069A830D
:1010C00089834B833C832D83BE8224E946E0BE01A5
:1010D0006F5F7F4F82E40E946005E016F10621F702
:1010E000CE018E5B9F4F5C01FE01F6963F01E8EF5B
:1010F0002E2EEDEC3E2EEDE64E2EE9E35E2EC12CBB
:10110000D12CF8ECEF2EF2ECFF2EA8EF8A2EAFE0F8
:101110009A2EF301819191913F01F50121915F0197
:1011200030912706409128069A8389834B833C831C
:101130002D83F1E0FE8324E946E0BE016F5F7F4F1F
:1011400082E40E94600580912706909128062982FA
:101150003A824B825C82CD82DE82EF82F8861986EB
:101160001A861B861C861D861E861F86188A198A6B
:101170001A8A1B8A1C8A1D8A1E8A1F8A188E198E3B
:101180001A8E1B8E1C8E1D8E1E8E1F8E18A219A2EB
:101190001AA21BA21CA21DA21EA21FA218A619A65B
:1011A0001AA61BA61CA61DA61EA61FA618AA9AAAAA
:1011B00089AA9BAB8CAB81E08DAB2FE845E3BE01E8
:1011C0006F5F7F4F84E50E9460056016710609F02D
:1011D000A0CFC95BDF4F0FB6F894DEBF0FBECDBF07
:1011E000DF91CF911F910F91FF90EF90DF90CF9003
:1011F000BF90AF909F908F907F906F905F904F9037
:101200003F902F9008950F931F932091E105211196
:1012100017C080910B0190910C018031974281F4AD
:101220008091910690919206813B64E0960744F08C
:1012300090930C0180930B0181E08093E1052AC11A
:101240008091E005811119C08091090190910A01F6
:101250008031974209F01EC180918F0690919006CF
:10126000813B34E093070CF415C190930A018093FD
:10127000090181E08093E0050DC1222309F40AC130
:101280004091E20580910B0190910C012091910613
:101290003091920641114FC0A901481B590B4D32A4
:1012A000514034F4821B930B8D3291400CF4F2C008
:1012B0000E940128009196051091970520919805AC
:1012C00030919905011511052105310549F4609307
:1012D0009605709397058093980590939905DAC0C9
:1012E000AB01BC01401B510B620B730B49385341DE
:1012F0006105710508F4CEC080910B0190910C013D
:101300002091910630919206821B930B8D32914071
:101310001CF08FEF80930D018FEF8093060181E029
:101320008093E20585EA95E00E948F031092080100
:1013300010920701AFC0281B390B40910D014203E9
:10134000C001439F900D1124209108018D3231E09E
:10135000930764F181E0820F80930801813059F492
:10136000809107018093060185EA95E00E948F0332
:101370001092070139C0823049F480919405909110
:10138000950590939305809392052EC0833064F168
:10139000809106018F3F41F08091940590919505D1
:1013A000909393058093920582E01CC0843D9E4FEC
:1013B000DCF4223049F4809192059091930590934A
:1013C0009505809394050BC0213049F48FEF8093ED
:1013D000060185EA95E00E948F0310920701809133
:1013E0000801815080930801809108018F3F51F4DA
:1013F00010920801109207011092E20585EA95E02B
:101400000E948F0380918F06909190062091090190
:1014100030910A01821B930B209108012230E4F4E1
:10142000209107018D3231E0930714F02F5F04C043
:10143000843D9E4F1CF421502093070180910701A9
:10144000181614F01092070180910701893014F1E9
:1014500089E0809307011EC08D3221E0920754F08D
:1014600080919205909193050197909393058093B5
:10147000920510C0843D9E4F6CF48091920590912E
:101480009305019690939305809392051F910F9178
:101490000C9417081F910F910895FC01208181E0A1
:1014A00090E0062E01C0880F0A94EAF7442311F059
:1014B000822B02C08095822380838081089580E8FA
:1014C00093E00E9441058093820682E993E00E94A6
:1014D0004105809378060895CF93DF93EC0185EA68
:1014E00095E00E948B03C817D9073CF085EA95E088
:1014F0000E948103892B09F42397CE01DF91CF91BC
:10150000089580E090E00E94410541E0811101C012
:1015100040E060E085E296E00E944D0A82E090E0C3
:101520000E9441058093200684E090E00E944105DE
:1015300090E00E946C0A8093210688E990E00E9466
:10154000410541E0811101C040E064E085E296E0A0
:101550000E944D0A8AE990E00E944105809312069C
:101560008CE990E00E94410590E00E946C0A809313
:10157000130686E090E00E94410541E0811101C020
:1015800040E061E085E296E00E944D0A88E090E04C
:101590000E94410580931E068AE090E00E9441056A
:1015A00090E00E946C0A80931F068CE090E00E94FD
:1015B000410541E0811101C040E062E085E296E032
:1015C0000E944D0A8EE090E00E94410580931C0627
:1015D00080E190E00E94410590E00E946C0A8093B7
:1015E0001D0682E190E00E94410541E0811101C0A9
:1015F00040E063E085E296E00E944D0A84E190E0DD
:101600000E94410580931A0686E190E00E94410500
:1016100090E00E946C0A80931B068EE190E00E948D
:10162000410541E0811101C040E065E085E296E0BE
:101630000E944D0A80E290E00E94410580931806C6
:1016400082E290E00E94410590E00E946C0A809343
:10165000190684E290E00E94410541E0811101C039
:1016600040E066E085E296E00E944D0A86E290E066
:101670000E9441058093160688E290E00E94410591
:1016800090E00E946C0A809317068AE290E00E9424
:10169000410541E0811101C040E067E085E296E04C
:1016A0000E944D0A8CE290E00E944105809314064E
:1016B0008EE290E00E94410590E00E946C0A8093C7
:1016C000150680E390E00E94410541E0811101C0D0
:1016D00040E060E084E296E00E944D0A82E390E000
:1016E0000E9441058093100684E390E00E9441052A
:1016F00090E00E946C0A8093110686E390E00E94BD
:10170000410541E0811101C040E061E084E296E0E2
:101710000E944D0A88E390E00E94410580930E06E6
:101720008AE390E00E94410590E00E946C0A809359
:101730000F068CE390E00E94410541E0811101C059
:1017400040E062E084E296E00E944D0A8EE390E081
:101750000E94410580930C0680E490E00E944105C0
:1017600090E00E946C0A80930D0688E490E00E944D
:10177000410541E0811101C040E064E084E296E06F
:101780000E944D0A8AE490E00E9441058093080679
:101790008CE490E00E94410590E00E946C0A8093E6
:1017A000090682E490E00E94410541E0811101C0F8
:1017B00040E063E084E296E00E944D0A84E490E019
:1017C0000E94410580930A0686E490E00E9441054C
:1017D00090E00E946C0A80930B0680E590E00E94E6
:1017E000410541E0811101C040E065E084E296E0FE
:1017F0000E944D0A82E590E00E9441058093060612
:1018000084E590E00E94410590E00E946C0A80937C
:10181000070686E590E00E94410541E0811101C084
:1018200040E066E084E296E00E944D0A88E590E0A0
:101830000E944105809304068AE590E00E944105DC
:1018400090E00E946C0A809305068EE990E00E9469
:10185000410541E0811101C040E067E084E296E08B
:101860000E944D0A80EA90E00E94410580930206A2
:1018700082EA90E00E94410590E00E946C0A809309
:10188000030682E690E00E94410541E0811101C01B
:1018900040E060E083E296E00E944D0A84E690E03A
:1018A0000E9441058093000686E690E00E94410573
:1018B00090E00E946C0A809301068EE690E00E9400
:1018C000410541E0811101C040E062E083E296E021
:1018D0000E944D0A80E790E00E9441058093FE053A
:1018E00082E790E00E94410590E00E946C0A80939C
:1018F000FF058CE890E00E94410541E0811101C0A4
:1019000040E067E083E296E00E944D0A8EE890E0B6
:101910000E9441058093FC0580E990E00E9441050A
:1019200090E00E946C0A8093FD0582E990E00E949D
:10193000410541E0811101C040E061E083E296E0B1
:101940000E944D0A84E990E00E9441058093F805C9
:1019500086E990E00E94410590E00E946C0A809325
:10196000F90584E790E00E94410541E0811101C042
:1019700040E063E083E296E00E944D0A86E790E053
:101980000E9441058093FA0588E790E00E94410596
:1019900090E00E946C0A8093FB058AE790E00E9429
:1019A000410541E0811101C040E064E083E296E03E
:1019B0000E944D0A8CE790E00E9441058093F60555
:1019C0008EE790E00E94410590E00E946C0A8093AF
:1019D000F70580E890E00E94410541E0811101C0D7
:1019E00040E065E083E296E00E944D0A82E890E0E4
:1019F0000E9441058093F40584E890E00E9441052F
:101A000090E00E946C0A8093F50586E890E00E94C1
:101A1000410541E0811101C040E066E083E296E0CB
:101A20000E944D0A88E890E00E9441058093F205EB
:101A30008AE890E00E94410590E00E946C0A809341
:101A4000F30584EA90E00E94410541E0811101C064
:101A500040E060E082E296E00E944D0A86EA90E073
:101A60000E9441058093F00588EA90E00E944105BC
:101A700090E00E946C0A8093F10580EB90E00E9458
:101A8000410541E0811101C040E062E082E296E060
:101A90000E944D0A82EB90E00E9441058093EE0582
:101AA00084EB90E00E94410590E00E946C0A8093D4
:101AB000EF0586EB90E00E94410541E0811101C0F5
:101AC00040E063E082E296E00E944D0A88EB90E0FD
:101AD0000E9441058093EC058AEB90E00E9441054D
:101AE00090E00E946C0A8093ED058CEB90E00E94E0
:101AF000410541E0811101C040E064E082E296E0EE
:101B00000E944D0A8EEB90E00E9441058093EA0509
:101B100080EC90E00E94410590E00E946C0A809366
:101B2000EB0582EC90E00E94410541E0811101C08B
:101B300040E067E082E296E00E944D0A84EC90E08B
:101B40000E9441058093E80586EC90E00E944105E3
:101B500090E00E946C0A8093E90588EC90E00E9476
:101B6000410541E0811101C040E065E082E296E07C
:101B70000E944D0A8AEC90E00E9441058093E405A2
:101B80008CEC90E00E94410590E00E946C0A8093EA
:101B9000E505089544E067E085EA95E00E94A10329
:101BA00085EA95E00E94A70386EA91E09F938F93D0
:101BB00085EA95E09F938F930E94C5200F900F9028
:101BC0000F900F9085EA95E00C94D603462F682F6E
:101BD00085EA95E00E94A10385EA95E00E94A703AB
:101BE0001F9285E28F938091E3051F928F931F923E
:101BF00081EE8F9389E491E09F938F9385EA95E03E
:101C00009F938F930E94B4208DB79EB70A960FB60C
:101C1000F8949EBF0FBE8DBF85EA95E00C94D60365
:101C20002F923F924F925F926F927F928F929F92EC
:101C3000AF92BF92CF92DF92EF92FF920F931F93DA
:101C4000CF93DF93CDB7DEB72A970FB6F894DEBFF8
:101C50000FBECDBF0E9401286B017C0180917206EE
:101C600090917306A0917406B09175068C159D0530
:101C7000AE05BF0508F066C185EA95E00E948F03B6
:101C800028ECC20ED11CE11CF11CC0927206D0924D
:101C90007306E0927406F09275068CED90E00E9457
:101CA0004105082F10E0809106018F3F09F067C0C1
:101CB000A12CB12CE12CF12CCE0101966C011E015E
:101CC00099E0290E311C48018C189D08D401A352BB
:101CD000BF4F4D01E016F1060CF017C141E04E0D6B
:101CE00061E085EA95E00E94A10385EA95E00E9403
:101CF000A703E6EAF1E0D60189E001900D928A950A
:101D0000E1F780910701992787FD9095E816F9067C
:101D100011F020E001C02AEB260134016A0C7B1C83
:101D2000C201860D971D2A870E944105F201819309
:101D30002F012A85E215F30599F7DF92CF92822FC2
:101D4000992787FD90959F932F93A0E8B1E0BF93CB
:101D5000AF9385EA95E09F938F930E94B42085EA24
:101D600095E00E94D603FFEFEF1AFF0A28E0A20ECB
:101D7000B11C0FB6F894DEBF0FBECDBFABCF58017C
:101D80009DEDA90EB11C93E0000F111F9A95E1F78C
:101D9000A00EB11EC82EDD24C7FCD094C60183520C
:101DA0009F4F0E944105082F10E0E12CF12CEC140C
:101DB000FD0474F4C70183529F4F0E944105AAE0BD
:101DC0008A9FA00CB11C1124BFEFEB1AFB0AEFCFC6
:101DD000FE0131966F01AE1ABF0AE12CF12CB9E079
:101DE0002B2E4E01F9E08F0E911C85E8682E81E0C4
:101DF000782EE016F1060CF088C0332433943E0CA4
:101E0000432D61E085EA95E00E94A10385EA95E013
:101E10000E94A703E6EAF1E0D601822D01900D921F
:101E20008A95E1F780910701992787FD9095E8163B
:101E3000F90611F020E001C02AEB2601C2018A0D4B
:101E40009B1D2A870E944105D2018D932D012A8571
:101E5000A815B90599F7DF92CF92822F992787FDB0
:101E600090959F932F93A0E8B1E0BF93AF9385EA3D
:101E700095E09F938F930E94B42085EA95E00E949D
:101E8000D603432D6FE085EA95E00E94A10385EA21
:101E900095E00E94A70380910701992787FD9095FF
:101EA0000FB6F894DEBF0FBECDBFE816F90651F4A9
:101EB00080910801823034F08091920590919305D1
:101EC0002BEB03C080E090E020E09F938F93822F64
:101ED000992787FD90959F932F937F926F9285EA24
:101EE00095E09F938F930E94B42085EA95E00E942D
:101EF000D6033FEFE31AF30A8AE0A80EB11C0FB62F
:101F0000F894DEBF0FBECDBF74CF46E0400F61E056
:101F100085EA95E00E94A10385EA95E00E94A70367
:101F20008BE891E09F938F9385EA95E09F938F9341
:101F30000E94B42085EA95E00E94D6030F900F908E
:101F40000F900F902A960FB6F894DEBF0FBECDBF4C
:101F5000DF91CF911F910F91FF90EF90DF90CF9085
:101F6000BF90AF909F908F907F906F905F904F90B9
:101F70003F902F900895CF93DF93462F682F85EAE7
:101F800095E00E94A10385EA95E00E94A703809155
:101F900081061F928F9320E030E048EC52E460917C
:101FA000990670919A0680919B0690919C060E94DA
:101FB0003D2A2091870630918806409189065091EC
:101FC0008A060E94022C9F938F937F936F931F9298
:101FD000C5E4CF931F92D1E4DF931F928DE68F93D8
:101FE000809198068F93809197068F9380919606A3
:101FF0008F93809195068F931F92CF931F9288E5C0
:102000008F93809180061F928F9320918306309149
:102010008406409185065091860660919D067091D8
:102020009E0680919F069091A0060E94022C9F938D
:102030008F937F936F931F92CF931F92DF931F9283
:1020400080EB8F939091A6069F939091A5069F9306
:102050001F9292E49F931F9294E59F931F928F93F8
:102060009091A8069F939091A7069F931F9298E442
:102070009F931F929EE49F931F928F932091AC0693
:102080002F932091AB062F932091AA062F93209196
:10209000A9062F931F9220E52F931F929F931F92C3
:1020A0008F938091B0068F938091AF068F9380912C
:1020B000AE068F938091AD068F931F9282E58F932A
:1020C0001F929F9388E392E09F938F9385EA95E018
:1020D0009F938F930E94B4208DB79EB78A5B9F4FCA
:1020E0000FB6F8949EBF0FBE8DBF85EA95E0DF91D5
:1020F000CF910C94D603462F682F85EA95E00E9475
:10210000A10385EA95E00E94A7031F928FE88F93B1
:1021100060917A0670917B06882777FD8095982FCD
:102120000E94D82A2AE037ED43E25CE30E94022CA9
:102130009F938F937F936F931F9284EE8F938CE87E
:1021400092E09F938F9385EA95E09F938F930E94EF
:10215000B4208DB79EB70C960FB6F8949EBF0FBEF5
:102160008DBF85EA95E00C94D603462F682F85EA4B
:1021700095E00E94A10385EA95E00E94A703809163
:1021800080061F928F9320918306309184064091A0
:1021900085065091860660914706709148068091A9
:1021A000490690914A060E94022C9F938F937F9339
:1021B0006F931F9286EE8F9386E992E09F938F93A1
:1021C00085EA95E09F938F930E94B4208DB79EB7C8
:1021D0000C960FB6F8949EBF0FBE8DBF85EA95E0B2
:1021E0000C94D603462F682F85EA95E00E94A10340
:1021F00085EA95E00E94A7031F9288E88F9380915B
:1022000071068F93809170068F9380916F068F93E4
:1022100080916E068F931F9286E18F9380EA92E001
:102220009F938F9385EA95E09F938F930E94B420AC
:102230008DB79EB70C960FB6F8949EBF0FBE8DBF9C
:1022400085EA95E00C94D603462F682F85EA95E041
:102250000E94A10385EA95E00E94A7038091800671
:102260001F928F932091570630915806409159063E
:1022700050915A0660914706709148068091490630
:1022800090914A060E946F2920918306309184061E
:1022900040918506509186060E94022C9F938F9351
:1022A0007F936F931F9287EE8F9386E992E09F93BF
:1022B0008F9385EA95E09F938F930E94B4208DB70A
:1022C0009EB70C960FB6F8949EBF0FBE8DBF85EAE1
:1022D00095E00C94D603462F682F85EA95E00E947E
:1022E000A10385EA95E00E94A703809181061F92D1
:1022F0008F932091870630918806409189065091EE
:102300008A06609131067091320680913306909171
:1023100034060E94022C9F938F937F936F931F929A
:1023200089EE8F9380EA92E09F938F9385EA95E000
:102330009F938F930E94B4208DB79EB70C960FB6D3
:10234000F8949EBF0FBE8DBF85EA95E00C94D6032E
:10235000462F682F85EA95E00E94A10385EA95E063
:102360000E94A703809181061F928F932091870678
:10237000309188064091890650918A066091170134
:10238000709118018091190190911A010E94022CFC
:102390009F938F937F936F931F9288EE8F9380EA22
:1023A00092E09F938F9385EA95E09F938F930E948D
:1023B000B4208DB79EB70C960FB6F8949EBF0FBE93
:1023C0008DBF85EA95E00C94D603462F682F85EAE9
:1023D00095E00E94A10385EA95E00E94A7031F9261
:1023E00085E28F93809130068F9380912F068F9393
:1023F0001F9287E88F9381ED92E09F938F9385EAF8
:1024000095E09F938F930E94B4208DB79EB70A9654
:102410000FB6F8949EBF0FBE8DBF85EA95E00C9471
:10242000D603462F682F85EA95E00E94A10385EA2E
:1024300095E00E94A7031F9285E28F932091790671
:10244000822F992787FD90959F932F931F9289EB59
:102450008F9381ED92E09F938F9385EA95E09F9310
:102460008F930E94B4208DB79EB70A960FB6F8944A
:102470009EBF0FBE8DBF85EA95E00C94D603462F14
:10248000682F85EA95E00E94A10385EA95E00E9405
:10249000A7030E94012828EE33E040E050E00E94AC
:1024A0002E2DCA01B9010E94D62A60931B01709398
:1024B0001C0180931D0190931E010E94A52A2CE30C
:1024C00030E0CB01B9010E941A2D9F938F931F9288
:1024D0008AE38F93CB01B9010E941A2D9F938F93AA
:1024E0001F9283EB8F938BED92E09F938F9385EAFE
:1024F00095E09F938F930E94B4208DB79EB70C9662
:102500000FB6F8949EBF0FBE8DBF85EA95E00C9480
:10251000D603462F682F85EA95E00E94A10385EA3D
:1025200095E00E94A703809180061F928F9360918F
:1025300053067091540680915506909156060E945C
:10254000D82A2091830630918406409185065091C7
:1025500086060E94022C9F938F937F936F931F9206
:102560008FE18F9386E992E09F938F9385EA95E0C0
:102570009F938F930E94B4208DB79EB70C960FB691
:10258000F8949EBF0FBE8DBF85EA95E00C94D603EC
:10259000462F682F85EA95E00E94A10385EA95E021
:1025A0000E94A7038CE991E09F938F9385EA95E0C1
:1025B0009F938F930E94C5200F900F900F900F90C4
:1025C00085EA95E00C94D603462F682F85EA95E0BE
:1025D0000E94A10385EA95E00E94A7031F9281EB68
:1025E0008F931F9280EB8F9320915106822F992712
:1025F00087FD90959F932F9387EE92E09F938F9303
:1026000085EA95E09F938F930E94B4208DB79EB783
:102610000A960FB6F8949EBF0FBE8DBF85EA95E06F
:102620000C94D603462F682F85EA95E00E94A103FB
:1026300085EA95E00E94A7031F9282EB8F931F9279
:1026400080EB8F9320915006822F992787FD9095DC
:102650009F932F9387EE92E09F938F9385EA95E067
:102660009F938F930E94B4208DB79EB70A960FB6A2
:10267000F8949EBF0FBE8DBF85EA95E00C94D603FB
:10268000462F682F85EA95E00E94A10385EA95E030
:102690000E94A7031F928EE88F9380917F068F93ED
:1026A00080917E068F9380917D068F9380917C062A
:1026B0008F931F9282EE8F938CE892E09F938F937B
:1026C00085EA95E09F938F930E94B4208DB79EB7C3
:1026D0000C960FB6F8949EBF0FBE8DBF85EA95E0AD
:1026E0000C94D603CF93DF9300D0CDB7DEB76A83C7
:1026F00089830E94CA0D4A818981682F85EA95E005
:102700000E94A10385EA95E00E94A7038BE291E075
:102710009F938F9385EA95E09F938F930E94C520A6
:1027200085EA95E00F900F900F900F900F900F900B
:10273000DF91CF910C94D603CF93DF93462F682F70
:1027400085EA95E00E94A10385EA95E00E94A7032F
:1027500080916406823030F08250823028F4C2EFDB
:10276000D2E002C0CFEED2E0DF93CF9382E891E0D7
:102770009F938F9385EA95E09F938F930E94B42057
:102780000F900F900F900F900F900F9085EA95E0AB
:10279000DF91CF910C94D603462F682F85EA95E000
:1027A0000E94A10385EA95E00E94A7038091650637
:1027B0001F928F931F928FE08F9385EF92E09F93EC
:1027C0008F9385EA95E09F938F930E94B4208DB7F5
:1027D0009EB708960FB6F8949EBF0FBE8DBF85EAD0
:1027E00095E00C94D603462F682F85EA95E00E9469
:1027F000A10385EA95E00E94A703809169068F9363
:10280000809168068F93809167068F93809166060A
:102810008F931F9284E88F9380916D068F938091A0
:102820006C068F9380916B068F9380916A068F93CD
:102830001F9283E88F938BEF92E09F938F9385EAAB
:1028400095E09F938F930E94B4208DB79EB74096DA
:102850000FB6F8949EBF0FBE8DBF85EA95E00C942D
:10286000D603462F682F85EA95E00E94A10385EAEA
:1028700095E00E94A7031F9280EB8F9380914E06F4
:102880008F9380914D068F9380914C068F9380910A
:102890004B068F9384E892E09F938F9385EA95E0AF
:1028A0009F938F930E94B4208DB79EB70A960FB660
:1028B000F8949EBF0FBE8DBF85EA95E00C94D603B9
:1028C000462F682F85EA95E00E94A10385EA95E0EE
:1028D0000E94A7031F9281ED8F9384ED95E09F9353
:1028E0008F931F9280ED8F938DE093E09F938F9352
:1028F0008BE193E09F938F9385EA95E09F938F936D
:102900000E94B4208DB79EB70C960FB6F8949EBF68
:102910000FBE8DBF85EA95E00C94D603462F682F35
:1029200085EA95E00E94A10385EA95E00E94A7034D
:1029300086E191E09F938F9385EA95E09F938F9333
:102940000E94C5200F900F900F900F9085EA95E0A0
:102950000C94D6032F923F924F925F926F927F9288
:102960008F929F92AF92BF92CF92DF92FF920F937E
:102970001F93CF93DF936CE070E085E090E00E94BE
:102980008E1464EF71E080E090E00E943028F12C1A
:10299000C0E0D0E037EF232E31E0332E4FEF442E4E
:1029A00041E0542E57E0652E52E0752E0FE012E004
:1029B0006FE1C62E62E0D62E77E2A72E72E0B72E28
:1029C000EFE28E2EE2E09E2ECE016AEF70E00E94D2
:1029D0001A2D892B09F042C0F3944CE061E185EA9D
:1029E00095E00E94A10385EA95E00E94A7038F2D40
:1029F00090E08A30910570F5FC01EC5CFF4F0C947F
:102A00006F2D9F928F921CC0BF92AF9219C0DF9220
:102A1000CF9216C0A7E1B2E011C01F930F9310C070
:102A20007F926F920DC05F924F920AC03F922F9299
:102A300007C0AFEEB1E002C0A6EEB1E0BF93AF9326
:102A400085EA95E09F938F930E94C5200F900F9089
:102A50000F900F9085EA95E00E94D60361E070E048
:102A600080E090E00E9430282196C13D97E0D90790
:102A700009F0AACFDF91CF911F910F91FF90DF90C6
:102A8000CF90BF90AF909F908F907F906F905F900E
:102A90004F903F902F900895462F682F85EA95E03C
:102AA0000E94A10385EA95E00E94A70380912E066B
:102AB000882369F083E191E09F938F9385EA95E005
:102AC0009F938F930E94C52010922E060AC080E12A
:102AD00091E09F938F9385EA95E09F938F930E9457
:102AE000C5200F900F900F900F9085EA95E00C9401
:102AF000D603462F682F85EA95E00E94A10385EA58
:102B000095E00E94A703809180061F928F936091A9
:102B1000A2067091A30680E090E00E94D62A209140
:102B200083063091840640918506509186060E9466
:102B3000022C9F938F937F936F931F921F9280918C
:102B4000A1061F928F931F9287E58F9385E293E0F2
:102B50009F938F9385EA95E09F938F930E94B42073
:102B60008DB79EB740960FB6F8949EBF0FBE8DBF2F
:102B700085EA95E00C94D603462F682F85EA95E008
:102B80000E94A10385EA95E00E94A703809129068F
:102B9000823091F580917706882309F47CC08130DA
:102BA00009F47FC0823009F458C0833009F488C02A
:102BB000843009F48EC0853009F488C0863009F469
:102BC00082C0873009F464C0883009F449C0893074
:102BD00009F449C08A3009F449C08B3009F449C06E
:102BE0008D3009F449C08E3009F449C08F3009F4A2
:102BF00064C0803179F546C0813061F580917706F7
:102C0000882309F442C0813009F442C0823009F4BB
:102C100042C0833009F442C0843009F442C0853098
:102C200009F442C0863009F442C0873009F442C03A
:102C3000883009F442C08A3009F442C08B3009F46C
:102C400042C08C3009F442C08F3009F442C0803158
:102C500009F442C081EF92E041C08FE793E03EC0AB
:102C600086E693E03BC081E693E038C08CE593E0D4
:102C700035C087E593E032C082E593E02FC08DE454
:102C800093E02CC083E493E029C084E893E026C05D
:102C90008EE393E023C089E393E020C08DE993E0C5
:102CA0001DC084E393E01AC088E993E017C083E96C
:102CB00093E014C08EE893E011C088E493E00EC066
:102CC0008AE793E00BC08BE693E008C080E793E0CF
:102CD00005C085E793E002C089E893E09F938F9356
:102CE0001F9280EE8F9380E891E09F938F9385EA07
:102CF00095E09F938F930E94B4208DB79EB708965E
:102D00000FB6F8949EBF0FBE8DBF85EA95E00C9478
:102D1000D603813150F490E0FC01EE53FC4F40812A
:102D2000FC01EF54FC4F508102C050E040E0252FE1
:102D3000332727FD3095842F992787FD90956130A3
:102D4000A1F53F935F939F934F93809181061F92CC
:102D50008F93209187063091880640918906509183
:102D60008A066091430670914406809145069091D1
:102D700046060E94022C9F938F937F936F931F921E
:102D80008CEF8F9382EA93E09F938F9385EA95E08F
:102D90009F938F930E94B4208DB79EB740960FB635
:102DA000F8949EBF0FBE8DBF08953F935F939F938E
:102DB0004F938AEE92E09F938F9385EA95E09F93DD
:102DC0008F930E94B4208DB79EB708960FB6F894E3
:102DD0009EBF0FBE8DBF0895462F682F85EA95E0F0
:102DE0000E94A10385EA95E00E94A70320914B066B
:102DF00030914C0640914D0650914E0660913B0635
:102E000070913C0680913D0690913E060E946F298C
:102E100020E030E044EB53E40E943D2A20E030E023
:102E200040E851E40E94022C0E94652C20E030E032
:102E300040E85FE30E9470290E94A52A67FD605F59
:102E400060933A0661E080913A060E94891685EA0D
:102E500095E00C94D603462F682F85EA95E00E94F2
:102E6000A10385EA95E00E94A7036091A5067091F1
:102E7000A606882777FD8095982F0E94D82A209152
:102E80004B0630914C0640914D0650914E060E94E3
:102E90006F2920E030E044EB53E40E943D2A20E01B
:102EA00030E040E851E40E94022C0E94652C20E0B2
:102EB00030E040E85FE30E9470290E94A52A67FD88
:102EC000605F6093A40660E08091A4060E9489166A
:102ED00085EA95E00C94D603462F682F85EA95E0A5
:102EE0000E94A10385EA95E00E94A70360E080911B
:102EF00052060E94891685EA95E00C94D603CF937A
:102F0000DF93D42F462F682F85EA95E00E940A04AC
:102F10004D2F50E0FA013197E930F105A8F4E25C59
:102F2000FF4F0C946F2DC7E00FC0C8E00DC0C9E083
:102F30000BC0CAE009C0CBE007C0CCE005C0CDE0C3
:102F400003C0CEE001C0C6E08C2F992787FD909585
:102F50009F93CF938CEE92E09F938F9385EA95E0B9
:102F60009F938F930E94B4200F900F900F900F901B
:102F70000F900F90DF91CF9108952F923F924F9233
:102F80005F926F927F928F929F92AF92BF92CF92F9
:102F9000DF92EF92FF920F931F93CF93DF93CDB702
:102FA000DEB76A970FB6F894DEBF0FBECDBF898F2C
:102FB0006A8F60915106262F332727FD3095C9016E
:102FC00037FF04C088279927821B930B8A35910508
:102FD00081F4B9010E941A2D882777FD8095982FDA
:102FE0000E94D82A21EE3AEF43EB52E40E94022CD1
:102FF00007C0772767FD7095872F972F0E94D82AE3
:1030000025E33AEF4EE85CEB0E94022C4B015C0199
:1030100060915006262F332727FD3095C90137FFD1
:1030200004C088279927821B930B8A35910581F468
:10303000B9010E941A2D882777FD8095982F0E944C
:10304000D82A21EE3AEF43EB52E40E94022C07C04B
:10305000772767FD7095872F972F0E94D82A25E341
:103060003AEF4EE85CE30E94022C6B017C01C50143
:10307000B4010E94CA2C20E030E044E352E40E94F4
:10308000022C0E94652C0E94A52A4B01C701B601A3
:103090000E94CA2C2B013C01AE014F5F5F4F1A0109
:1030A0000EEB1FEFAA2497FCA094BA2CB801882736
:1030B00077FD8095982F0E94D82A9B01AC01C3010F
:1030C000B2010E94022C6B017C01C501B4010E9477
:1030D000D82A9B01AC01C701B6010E94702920E0EB
:1030E00030E044E352E40E94702920E030E040E800
:1030F0005FE30E946F290E94A52AF10161937193F9
:103100001F01045F1F4F0E34110581F6AE014F5FA2
:103110005F4F6A0100E010E0AEEEAA2EBB24BA9425
:10312000BEEE9B2E8A8C8A94F601219131916F011B
:10313000C90101978935910578F5B5010E941A2DCD
:103140007B01F5E0EF0EF11C692DA7016403C001BE
:10315000659F900D1124855A9F4FF901E81BF90BCB
:10316000CF01F7FD0196BC0175956795882777FD1E
:103170008095982F0E94D82A0E94652C0E94A52A2B
:10318000AB016115710511F441E050E0E80C6E2DC2
:10319000898D800F0E947F170F5F1F4F0C30110524
:1031A00019F66A960FB6F894DEBF0FBECDBFDF9159
:1031B000CF911F910F91FF90EF90DF90CF90BF9034
:1031C000AF909F908F907F906F905F904F903F90C7
:1031D0002F900895CF92DF92FF920F931F93CF937A
:1031E000DF931F92CDB7DEB78C01F62E462F682FE6
:1031F00085EA95E079830E94A10385EA95E00E9423
:10320000A7038CE891E09F938F9385EAC82E85E011
:10321000D82EDF92CF920E94C5208CE791E09F9339
:103220008F93DF92CF920E94C5208CE691E09F930E
:103230008F93DF92CF920E94C5208CE591E09F93FF
:103240008F93DF92CF920E94C5208DE491E09F93EF
:103250008F93DF92CF920E94C520C6010E94D603B1
:103260000FB6F894DEBF0FBECDBF6F2D7981C801B8
:1032700001960F90DF91CF911F910F91FF90DF90FA
:10328000CF900C94BD17CF92DF92EF92FF920E94E5
:1032900001280E94D62A6B017C0120E030E849E039
:1032A00055E460912A0670912B0680912C0690912E
:1032B0002D060E9470299B01AC01C701B6010E9436
:1032C000362A87FF71C18091E205813031F4FF9089
:1032D000EF90DF90CF900C94100E8091250680FF28
:1032E00008C06091210670E08091200690E00E9465
:1032F000C8128091250681FF08C060911F0670E00A
:1033000080911E0690E00E94E4128091250682FFC3
:1033100008C060911D0670E080911C0690E00E943C
:1033200012138091250683FF08C060911B0670E090
:1033300080911A0690E00E9440138091250685FF37
:1033400008C06091190670E08091180690E00E9414
:10335000CC138091250686FF08C06091170670E0A7
:103360008091160690E00E949C138091250690E0C3
:10337000880F892F881F990B892B41F060911506C2
:1033800070E08091140690E00E94F313809125066E
:1033900084FF08C06091130670E08091120690E0EF
:1033A0000E9411128091240680FF08C060911106CE
:1033B00070E08091100690E00E94601480912406D5
:1033C00081FF08C060910F0670E080910E0690E0CA
:1033D0000E9431148091240682FF08C060910D067E
:1033E00070E080910C0690E00E944C15809163067D
:1033F0008130C1F48091240684FF08C060910906E1
:1034000070E08091080690E00E9489128091240665
:1034100083FF08C060910B0670E080910A0690E07F
:103420000E946C178091240690E0880F892F881FD6
:10343000990B892B41F06091030670E080910206A0
:1034400090E00E943F128091240685FF08C06091A1
:10345000070670E08091060690E00E942B1780918D
:10346000240686FF08C06091050670E0809104067E
:1034700090E00E9479158091230682FF08C0609138
:10348000FF0570E08091FE0590E00E94B5108091EC
:10349000230690E0880F892F881F990B892B41F014
:1034A0006091FD0570E08091FC0590E00E94241180
:1034B0008091230683FF08C06091FB0570E0809136
:1034C000FA0590E00E946B118091230681FF08C0ED
:1034D0006091F90570E08091F80590E00E94A811D4
:1034E0008091230684FF08C06091F70570E0809109
:1034F000F60590E00E94E5118091230685FF08C043
:103500006091F50570E08091F40590E00E94BC1593
:103510008091230686FF08C06091F30570E08091DA
:10352000F20590E00E94EA188091230680FF08C00F
:103530006091010670E08091000690E00E947B108F
:103540008091220682FF08C06091EF0570E08091B3
:10355000EE0590E00E94EC168091220683FF08C0E1
:103560006091ED0570E08091EC0590E00E94F21012
:103570008091220684FF08C06091EB0570E0809185
:10358000EA0590E00E94BB0F8091220686FF1DC0D5
:103590006091E70570E08091E60590E0FF90EF9084
:1035A000DF90CF900C94E60D85EA95E00E948F03A2
:1035B00081E0809316016AE070E085E090E0FF9082
:1035C000EF90DF90CF900C947213FF90EF90DF900C
:1035D000CF9008950E94D90585EA95E00E940D06D6
:1035E0000C9443198AE793E00E94410581111DC0A4
:1035F00086E696E6A6E6B0E4809387069093880672
:10360000A0938906B0938A0680E090E0A0E8BFE32B
:103610008093830690938406A0938506B0938606D4
:1036200081E8809381068DE81CC082E598EBAEE0CE
:10363000B0E48093870690938806A0938906B093A0
:103640008A0685E89BEEA1E5B0E48093830690931B
:103650008406A0938506B09386068BEF809381063F
:1036600086E680938006089585EA95E00E948F03A0
:103670000E94CA0D0C94F21A8F92AF92CF92EF92E1
:10368000FF920F931F9350E2852E68E9A62ECC245B
:10369000C39471ECE72EF12C00EC10E024EC30E048
:1036A00045EC50E060E087EB95E00E94AF2185EAB1
:1036B00095E00E94570310929B0510929C05109272
:1036C0009D0510929E0510929F051092A0051092E4
:1036D000A1051092A2051092A4051092A3051092C4
:1036E0009A051F910F91FF90EF90CF90AF908F9020
:1036F00008950F9361E086E00E94C72840E051EEF4
:1037000060E070E087EB95E00E94D62087EB95E0C3
:103710009093C4068093C3060E94130885EA95E03F
:103720000E944E040E94341B64EF71E080E090E040
:103730000E94302882EF93E00E9441058C34E9F02A
:1037400049E063E085EA95E00E94A10385EA95E0FF
:103750000E94A70381E592E09F938F9385EA95E00D
:103760009F938F930E94C52085EA95E00E94D6031F
:103770000F900F900F900F90FFCF0E945F0A0E9452
:10378000810A0E94AA1400E028E730E040E050E0FF
:103790006AEE7AE18AE995E00E942A2785EA95E0B7
:1037A0000E948F038AE995E00F910C944027BF9205
:1037B000CF92DF92EF92FF920F931F93CF93DF93FD
:1037C000CDB7DEB7C854D1090FB6F894DEBF0FBE2F
:1037D000CDBF85EA95E00E948F0349E066E085EA67
:1037E00095E00E94A10385EA95E00E94A70387ED7A
:1037F00091E09F938F9385EA95E09F938F930E942A
:10380000C52085EA95E00E94D60387EC91E09F935E
:103810008F9387EB95E09F938F930E94C5200FB6FF
:10382000F894DEBF0FBECDBFE12CF12C00E010E01C
:10383000ECEBCE2EE1E0DE2E87EB95E00E94192125
:103840008D3081F00CF451C090ED980F923008F05B
:103850004CC0E1E4F0E0EC0FFD1FEB0DF11D8083A7
:10386000B39443C098E0B9123FC022968FAD22971F
:1038700090ED980F9230C0F5813311F080E001C0D7
:1038800080E823969FAD2397913309F4805C2496BA
:103890009FAD2497913309F4805E25969FAD2597BF
:1038A000913309F4805F26969FAD2697913309F4F2
:1038B000885F27969FAD2797913309F48C5F2896F0
:1038C0009FAD2897913309F48E5F29969FAD299774
:1038D000913309F48F5FE1E0F0E0EC0FFD1FE00FA2
:1038E000F11F80830F5F1F4FB12C00341105C9F405
:1038F000AE014F5F5F4FB70185EA95E00E94B504C6
:103900008FEFE81AF80ADF92CF9287EB95E09F934A
:103910008F930E94C5200F900F900F900F9000E0A2
:1039200010E09FEFE916F10409F00CF485CFC85BB5
:10393000DF4F0FB6F894DEBF0FBECDBFDF91CF9142
:103940001F910F91FF90EF90DF90CF90BF9008955F
:103950002F923F924F925F926F927F928F929F929F
:10396000AF92BF92CF92DF92EF92FF920F931F938D
:10397000CF93DF93CDB7DEB7C857D1090FB6F89410
:10398000DEBF0FBECDBF01E088248394912CB2E04E
:10399000EB2EF12CCC24CA94DC2C98E0692E712CEF
:1039A00087EB95E00E94E620181619060CF02BC351
:1039B00087EB95E00E9419215C01E2968FAFE297B8
:1039C00080919105811124C00E94012860327E44BB
:1039D00081059105E8F40E94012869387341810549
:1039E0009105B0F0E2962FADE2972A3031F0E296E1
:1039F0002FADE2972D3009F02AC3809190058F5F9B
:103A00008093900580919005833011F40E94D71B1C
:103A100010928205E0918505F0918605EA30F10566
:103A200008F00CC1E95BFF4F0C946F2DE2963FAD9F
:103A3000E2973E3F09F002C1F0928605E0928505CB
:103A400010921505A0921405ACC0E2962FADE29736
:103A5000263658F0809183058F5F8093830580918F
:103A600084058F5F80938405AEC0A09215051092E7
:103A7000870562E175E08A2D0E941F0584E090E0D1
:103A800013C0A092160562E175E08A2D0E941F0501
:103A900023E030E017C0A092170562E175E08A2D9F
:103AA0000E941F0585E090E0909386058093850530
:103AB000C5C0A092180562E175E08A2D0E941F051D
:103AC00026E030E03093860520938505B7C0A092AC
:103AD000190562E175E08A2D0E941F058091150588
:103AE0008823C1F087E090E0DFCFE091870581E097
:103AF0008E0F80938705F0E0E65EFA4FA08262E1C8
:103B000075E08A2D0E941F0590918705809115050B
:103B1000981394C070928605609285058FC0E091DD
:103B20001905F0E0ED52FC4F62E175E080810E94E2
:103B30001F0580911205909113059927A50155271E
:103B40004817590799F1809184058F5F8093840508
:103B500010928205E2962FADE2972E3FA1F51BC091
:103B600090911305E3969FAFE397E4961FAEE49719
:103B7000C5019927E4962EAD3FADE49782179307D0
:103B800039F1809184058F5F80938405E2963FAD83
:103B9000E2973E3FC1F4F0928605E09285051092CF
:103BA0001505D0921305C092120548C089E090E037
:103BB0009093860580938505E0918705F0E0E65EA9
:103BC000FA4FA0823BC0909286058092850536C050
:103BD000009382059092860580928505E091870585
:103BE000F0E0E55EFA4FA082E2E1F5E0DE01119639
:103BF00080E701900D928A95E1F75090170580912A
:103C00001805E6968FAFE6971091190520913005BB
:103C100030913105E9963FAF2EAFE99720903205FC
:103C20003090330530913605E5963FAFE5978091AA
:103C30003705E7968FAFE7974090380520918205CA
:103C4000213099F4809116058093880580918A052A
:103C500090918B05009721F410928D0510928C05A0
:103C6000019690938B0580938A05A0908405B12CD2
:103C700010928405222309F4C1C1009391051332E7
:103C800009F487C1B0F5113009F49DC008F467C08C
:103C9000183109F4B5C01E3109F0B0C121EE3EE281
:103CA00045E652E469897A898B899C890E94022CB5
:103CB0000E94A52A6093510621EE3EE245E652E4B9
:103CC0006D857E858F8598890E94022C0E94A52A89
:103CD0006093500621EE3EE245E652E46D897E890E
:103CE0008F89988D0E94022C0E94A52A60934F060E
:103CF00085C11E3309F4FEC038F41A3209F07EC1C2
:103D000089858093A1067AC11A3409F4ACC0183AA7
:103D100009F074C189859A85AB85BC8580933B0683
:103D200090933C06A0933D06B0933E068D859E85FC
:103D3000AF85B8898093430690934406A0934506C7
:103D4000B093460689899A89AB89BC8980933F06DE
:103D500090934006A0934106B09342064FC1009352
:103D60002E0650922806E6969FADE697909327067A
:103D70008D85809329068985809377068F8580932A
:103D8000940690E0880F892F881F990B892B19F0D2
:103D90000093930602C010929306109276060E943A
:103DA00001280E94D62A60932A0670932B068093DE
:103DB0002C0690932D0680911601882309F41EC1CC
:103DC000009326061BC16F89788D80E090E00E94E9
:103DD000D62A20E030E04AE754E40E943D2A60936E
:103DE0007C0670937D0680937E0690937F06898D76
:103DF0009A8D90937B0680937A0640927906FEC056
:103E000069897A898B899C890E94D82A20E836E9B9
:103E100048E15BE40E943D2A60936A0670936B065A
:103E200080936C0690936D066D897E898F89988D3D
:103E30000E94D82A20E836E948E15BE40E943D2A46
:103E40006093660670936706809368069093690690
:103E5000E5962FADE59720936406E7963FADE7978B
:103E600030936506CBC089859A85AB85BC858093E8
:103E7000170190931801A0931901B0931A018D8531
:103E80009E85AF85B8898093310690933206A093C2
:103E90003306B0933406698D7A8D882777FD809537
:103EA000982F0E94D82A60934B0670934C068093FB
:103EB0004D0690934E068B8D9C8D9093300680938B
:103EC0002F0689899A89AB89BC898093470690938C
:103ED0004806A0934906B0934A068D899E89AF890A
:103EE000B88D80936E0690936F06A0937006B09382
:103EF000710684C089859A85AB85BC858093AD06A3
:103F00009093AE06A093AF06B093B0068D859E85C4
:103F1000AF85B8898093A9069093AA06A093AB06B3
:103F2000B093AC068D8D9E8D9093A8068093A706C6
:103F3000E9968EAD9FADE9979093A6068093A5066E
:103F40003092A3062092A20689899A89AB89BC89FE
:103F500080939D0690939E06A0939F06B093A00623
:103F60008D899E89AF89B88D8093990690939A0622
:103F7000A0939B06B0939C06898D9A8DAB8DBC8DCA
:103F80008093950690939606A0939706B093980613
:103F900035C08D859E8590939206809391068F857E
:103FA00098899093900680938F0689899A89909337
:103FB0008E0680938D068B899C8990938C068093C6
:103FC0008B068D899E8990931501809314018F89AA
:103FD000988D9093130180931201898D9A8D9093FF
:103FE0001101809310018B8D9C8D90930F01809314
:103FF0000E010E9403098E8D8093E3058AE890E00C
:104000000E945828CDCC80918E0590918F058A0D05
:104010009B1D90938F0580938E05C858DF4F0FB678
:10402000F894DEBF0FBECDBFDF91CF911F910F91EE
:10403000FF90EF90DF90CF90BF90AF909F908F90C8
:104040007F906F905F904F903F902F9008951092C7
:104050009005D8CC80912606882309F452C085EAC1
:1040600095E00E948F034AE063E085EA95E00E94B4
:10407000A10385EA95E00E94A70387E392E09F935E
:104080008F9385EA95E09F938F930E94C52085EAE0
:1040900095E00E94D6030E94170862E370E080E07A
:1040A00090E00E9430280E94170862E370E080E0F0
:1040B00090E00E9430280E94170862E370E080E0E0
:1040C00090E00E9430281092260660ED77E080E0B4
:1040D00090E00E94302885EA95E00E948F031092BC
:1040E00016010E9401280E94D62A60932A06709326
:1040F0002B0680932C0690932D060F900F900F9017
:104100000F900E94A81C8AE995E00C949F271CBC84
:104110006F7260656CBD8DB58EB50895CF93DF93DA
:10412000EC0161E08DE00E94C72861E08BE00E9415
:10413000C72860E08CE00E94C72861E08AE00E9406
:10414000C72860E0CE01DF91CF910C9487206EBD2F
:104150000DB407FEFDCF8EB5089581EB96E00C946B
:104160008E208FEF9FE70895CF93DF93CDB7DEB713
:104170009E01275F3F4F4F81588560E08D819E8172
:104180000E942623DF91CF910895CF93DF93CDB77F
:10419000DEB79E01275F3F4F4F81588561E08D81DB
:1041A0009E810E942623DF91CF9108950F931F9344
:1041B000DC01ED91FC910288F389E02D00E010E034
:1041C00020E030E009951F910F910895DC015B9686
:1041D0002C915B97222379F05796ED91FC9158979B
:1041E0008081918122813381821B930B24813581CF
:1041F0008223932308958FEF9FEF0895DC015B9650
:104200002C915B97222391F05996ED91FC915A974E
:104210008081918122813381821B930B80959095BF
:104220002481358182239323019608958FEF9FEF98
:104230000895DC015B962C915B97222359F05796E9
:10424000ED91FC91589720813181828193812817CB
:10425000390719F48FEF9FEF089582819381A6812A
:10426000B781A80FB91F8C91228133812F5F3F4FF7
:1042700044815581242335233383228390E008959C
:10428000DC015B962C915B97222359F05796ED91B8
:10429000FC915897208131818281938128173907B9
:1042A00019F48FEF9FEF0895828193810680F78143
:1042B000E02DE80FF91F808190E00895DC0157960A
:1042C000ED91FC9158972281338131832083599657
:1042D000ED91FC915A978081918193838283089517
:1042E000FC01838D8823C1F1A18DB28D2D913C916C
:1042F00011972F5F3F4F14968D919C91159728230E
:104300003923848D811108C012968D919C91139749
:1043100028173907C9F308C012968D919C911397FD
:104320002817390789F718C08D919C911197169617
:104330000D90BC91A02DA80FB91F6C93A18DB28DCB
:1043400011963C932E93A289B3898C919689892BDF
:104350008C9381E090E0089580E090E008954F9282
:104360005F926F927F928F92AF92CF92EF92FF9275
:104370000F931F93CF93DF93CDB7DEB7FC0113826A
:10438000128288EE482E83E0582E612C712C4482D4
:104390005582668277828BEF94E091838083558784
:1043A000448737872687118B008BF38AE28AC48A79
:1043B000A58A868A28E0629FC00111249C012554A9
:1043C000394F308F278B8D54994F928F818F81E099
:1043D00090E001C0880F6A95EAF79091B206982B99
:1043E0009093B20640E051EE60E070E0CF01DF91C3
:1043F000CF911F910F91FF90EF90CF90AF908F9042
:104400007F906F905F904F900C94D6200F931F93E6
:10441000CF93DF938C01FC011382128211821082F0
:10442000A1E0E1E0F0E02A2FAF010A2E02C0440F24
:10443000551F0A94E2F7CB016130B2E07B0710F020
:1044400080E092E04817590710F4AF5FECCFC1E06D
:10445000D0E002C0CC0FDD1F2A95E2F72197F801CA
:1044600086819781009739F0248135812C173D078B
:1044700089F00E94212EF801D583C483CE010196D4
:104480000E94892DF8019783868321E0892B19F4F6
:1044900020E001C021E0822FDF91CF911F910F9189
:1044A0000895AF92BF92CF92DF92EF92FF920F9357
:1044B0001F93CF93DF93EC016A017B0159018B8D30
:1044C0008823D1F02115310539F4EF89F88DA480C6
:1044D000B5808FEFA81AB80A0115110531F4E98DDE
:1044E000FA8D048115810F5F1F4FE881F9810088E3
:1044F000F189E02DCE010995A114B10419F460E809
:1045000070E001C0B5018F89988D0E940622882332
:1045100069F00115110519F460E170E001C0B801FE
:10452000898D9A8D0E940622811111C0E881F9813E
:104530000088F189E02DCE01DF91CF911F910F917D
:10454000FF90EF90DF90CF90BF90AF900994E98DEE
:10455000FA8D1382128211821082EF89F88D1382F4
:1045600012821182108281E08B8F1C141D041E04A4
:104570001F045CF5E889F989C11481EED806E104CD
:10458000F104A1F181E090E00C8802C0880F991F2E
:104590000A94E2F7808360E079E08DE390E0A70180
:1045A00096010E94502D2150310941095109CA013B
:1045B000B90122E030E040E050E00E94502DEC854F
:1045C000FD853083EE85FF852083EA89FB89808124
:1045D0009D89892B8083DF91CF911F910F91FF904F
:1045E000EF90DF90CF90BF90AF900895108220E1C0
:1045F00030E0E5CFCF93DF93EC011B821A82198262
:1046000018821D821C828E819F81009721F00E945A
:10461000212E1F821E82DF91CF910895CF93DF93C9
:10462000EC01EA89FB8990818E892D89822B809506
:10463000892380838F89988D0E94FA22898D9A8D93
:104640000E94FA221B8EDF91CF9108952F923F9204
:104650004F925F926F927F928F929F92AF92BF9292
:10466000CF92DF92EF92FF920F931F93CF93DF933E
:10467000CDB7DEB763970FB6F894DEBF0FBECDBFE0
:104680007C01262E5D874C876901CE0101963C0195
:10469000EC85FD8520FC359120FE3191FD87EC876E
:1046A000332309F4BEC3353249F420FC359120FE92
:1046B0003191FD87EC873532D1F40DC03A3059F491
:1046C000D701ED91FC910190F081E02D6DE0C701E3
:1046D0003A8B09953A89D701ED91FC910190F081CF
:1046E000E02D632FC701099546016401D1CF10E089
:1046F000512C20E02032A0F43B3269F030F430320B
:1047000059F0333269F420612CC03D3239F0303336
:1047100039F4216026C02260246023C0286021C0B3
:1047200027FD29C080ED830F8A3078F426FF06C06C
:10473000BAE01B9F800D1124182F13C0EAE05E9E83
:10474000800D1124582E20620CC03E3221F426FD2B
:1047500068C3206406C03C3611F4206802C03836B5
:1047600051F4EC85FD8520FC359120FE3191FD87CB
:10477000EC873111BFCF8BEB830F833018F42061AE
:10478000305E06C08BE9830F833008F0DFC12F7ED7
:1047900026FF16E02F73B22E353621F4F22FF06487
:1047A000BF2E08C0363621F4822F8068B82E02C092
:1047B00011111150B7FE06C01C3348F44424439431
:1047C000410E07C0183038F4212F412C07C09CE35C
:1047D000492E27E003C0412C27E017E0460194E072
:1047E000890E911CD6016D917D918D919C91042D26
:1047F000A3010E9417026C01398030FE02C033FE13
:1048000006C0B1FC06C0B2FC06C000E005C00DE267
:1048100003C00BE201C000E2832D8C7009F43FC09D
:10482000002311F084E001C083E0851510F0512CC5
:104830000FC0581AB3FC0CC0D701ED91FC91019048
:10484000F081E02D60E2C70109955A94A9F7EFCFF6
:10485000002349F0D701ED91FC910190F081E02D0A
:10486000602FC701099533FC03C002E813E002C0C2
:104870000EE713E0BB2DB071BB2EF80164916623E7
:1048800009F4C1C2B1106052D701ED91FC910190C1
:10489000F081E02DC70109950F5F1F4FEECFB7FEE6
:1048A0000FC04C0C34FE04C08A81813309F44A9451
:1048B000141474F5F8E0F41578F588E0482E2CC04F
:1048C000B6FC2AC0812F90E08C159D059CF08CEFE2
:1048D000C8168FEFD80674F09B2D9068B92E0AC0C9
:1048E000E2E0F0E0EC0FFD1FE10FF11D808180336D
:1048F00019F411501111F4CFB7FE0EC044244394A3
:10490000410E812F90E0C816D9062CF41C1904C062
:104910004424439401C010E0B7FE06C01C141D04DB
:1049200034F4C601019605C085E090E002C081E044
:1049300090E001110196112331F0212F30E02F5F1B
:104940003F4F820F931F252D30E08217930714F4F9
:10495000581A01C0512C8B2D897069F4552059F0DB
:10496000D701ED91FC910190F081E02D60E2C7014B
:1049700009955A94F3CF002349F0D701ED91FC91AA
:104980000190F081E02D602FC7010995B3FC0DC0A7
:10499000552059F0D701ED91FC910190F081E02D67
:1049A00060E3C70109955A94F3CFB7FE64C09C2D0C
:1049B0008D2DD7FE02C090E080E0A92EB82E40E0F9
:1049C00050E0F601E419F109FF87EE8796012A19F4
:1049D0003B09260D371D812F90E000271127081B6A
:1049E000190BFFEFAF16BF0689F4D701ED91FC91CB
:1049F0000190F081E02D6EE2C7012B8B3A8B488B42
:104A0000598B0995598948893A892B89CA14DB043D
:104A100054F0EE85FF85EA15FB052CF4F901E40F4F
:104A2000F51F618101C060E3F1E0AF1AB1084F5F8B
:104A30005F4FD701ED91FC91A016B10674F0019083
:104A4000F081E02DC7012B8B3A8B488B598B099550
:104A50002B893A8948895989C4CFAC14BD0409F01F
:104A60006FC08A81863328F4853309F069C034FC2D
:104A700067C061E365C06A81613319F0B32DBF7E01
:104A80003B2ED701ED91FC910190F081E02DC70103
:104A9000099511110AC0D701ED91FC910190F081A7
:104AA000E02DB4FE1EC065E41DC0D701ED91FC9160
:104AB0000190F081E02D6EE2C701099582E001E0EE
:104AC000080FD701ED91FC91D301A80FB11D019002
:104AD000F081E02D6C91C70109951150E1F2802F12
:104AE000EECF65E6C7010995D7FC05C0C114D10416
:104AF00039F434FE05C0D194C194D1086DE201C0EF
:104B00006BE2D701ED91FC910190F081E02DC7019E
:104B1000099560E3EAE0CE16D1042CF06F5FBAE0AD
:104B2000CB1AD108F7CFD701ED91FC910190F0811C
:104B3000E02DC7010995D701ED91FC9160E36C0D63
:104B40000190F081E02DC70109955DC1333631F048
:104B5000333779F0333509F060C021C04601B2E047
:104B60008B0E911CF6018081898301E010E06301C6
:104B700014C04601F2E08F0E911CD601CD90DC905E
:104B800026FF03C0612F70E002C06FEF7FEFC60108
:104B90002B8B0E94BB2E8C012B892F7715C04601D1
:104BA000B2E08B0E911CF601C080D18026FF03C0BD
:104BB000612F70E002C06FEF7FEFC6012B8B0E9468
:104BC000B02E8C012B892068B22E23FD22C0852DAA
:104BD00090E008171907E8F4D701ED91FC910190D6
:104BE000F081E02D60E2C70109955A94F0CFF601FB
:104BF000B7FC6591B7FE61916F01D701ED91FC9112
:104C00000190F081E02DC701099551105A9401508F
:104C100011090115110559F7F6C0343611F039366E
:104C200051F5460127FF09C0B4E08B0E911CF60137
:104C300060817181828193810AC0F2E08F0E911CA4
:104C4000D6016D917C91882777FD8095982F022F52
:104C50000F7697FF08C090958095709561957F4F6E
:104C60008F4F9F4F00682AE030E0A3010E94EF02BF
:104C7000D82ED6183EC0022F353721F40F7E2AE0F9
:104C800030E01DC0097F3F3691F018F4383559F0F7
:104C9000C8C0303719F0383711F0C3C0006104FFC5
:104CA00009C0046007C024FF08C0066006C028E0F1
:104CB00030E005C020E130E002C020E132E04601F2
:104CC00007FF09C0B4E08B0E911CF6016081718171
:104CD0008281938108C0F2E08F0E911CD6016D9104
:104CE0007C9180E090E0A3010E94EF02D82ED618BC
:104CF0000F7706FF0BC0202F2E7FD11650F404FF34
:104D00000AC002FD08C0202F2E7E05C0CD2C202F0A
:104D100003C0CD2C01C0C12E24FF0DC0FE01ED0D3E
:104D2000F11D8081803311F4297E09C022FF06C065
:104D3000C394C39404C0822F867809F0C39423FDE2
:104D400017C020FF06C01D2DC51418F4150D1C1921
:104D5000C52CC51488F4D701ED91FC910190F08128
:104D6000E02D60E2C7012B8B0995C3942B89F1CF0D
:104D7000C51410F45C1801C0512CD701ED91FC91C1
:104D800024FF16C00190F081E02D60E3C7012B8B5A
:104D900009952B8922FF1BC0D701ED91FC91019051
:104DA000F081E02D21FF02C068E50FC068E70DC06B
:104DB000822F867861F021FD02C060E201C06BE2C3
:104DC00027FD6DE20190F081E02DC7010995D11614
:104DD00058F4D701ED91FC910190F081E02D60E352
:104DE000C70109951150F3CFDA94D701ED91FC91E9
:104DF000D301AD0DB11D0190F081E02D6C91C70183
:104E00000995D110F1CF552009F46FCCD701ED9160
:104E1000FC910190F081E02D60E2C70109955A9460
:104E2000F2CF63960FB6F894DEBF0FBECDBFDF9111
:104E3000CF911F910F91FF90EF90DF90CF90BF9097
:104E4000AF909F908F907F906F905F904F903F902A
:104E50002F9008950F93FC016115710571F0218366
:104E600032834383548372876187808100FB83F997
:104E700082608B7F808381E001C080E00F91089584
:104E80000F931F93CF93DF93EC0189859A85892B2C
:104E9000E1F049815A816B817C81452B462B472B60
:104EA000A1F00E94012809811A812B813C81600FA9
:104EB000711F821F931F6D837E838F8398878881E4
:104EC00084608F7E888381E001C080E0DF91CF9194
:104ED0001F910F9108950F931F93CF93DF93EC01D0
:104EE0000E9401280D811E812F813885601771076E
:104EF0008207930718F4288124FF0EC009811A81C4
:104F00002B813C81060F171F281F391F0D831E831D
:104F10002F83388721E001C020E0DC01CB01882706
:104F2000B7FD83959927AA27BB27388180FB34F9E1
:104F30003883822FDF91CF911F910F910895CF93E6
:104F4000DF93EC01888182FF0FC0CE010E946B27A6
:104F5000882351F0E985FA85309709F00995888111
:104F600083FF02C08B7F8883DF91CF9108951F92CA
:104F70000F920FB60F9211242F933F938F939F930D
:104F8000AF93BF938091C6069091C706A091C806C3
:104F9000B091C9063091C50623E0230F2D3720F4C8
:104FA0000196A11DB11D05C026E8230F0296A11D83
:104FB000B11D2093C5068093C6069093C706A093A3
:104FC000C806B093C9068091CA069091CB06A091FD
:104FD000CC06B091CD060196A11DB11D8093CA06E5
:104FE0009093CB06A093CC06B093CD06BF91AF9122
:104FF0009F918F913F912F910F900FBE0F901F9017
:1050000018952FB7F8946091C6067091C7068091E5
:10501000C8069091C9062FBF08953FB7F8948091B4
:10502000CA069091CB06A091CC06B091CD0626B5CC
:10503000A89B05C02F3F19F00196A11DB11D3FBFD0
:105040006627782F892F9A2F620F711D811D911D60
:1050500042E0660F771F881F991F4A95D1F7089580
:10506000CF92DF92EF92FF92CF93DF936B017C019F
:105070000E940D28EB01C114D104E104F10489F070
:105080000E946E290E940D286C1B7D0B683E7340A8
:1050900090F381E0C81AD108E108F108C851DC4F4B
:1050A000EACFDF91CF91FF90EF90DF90CF900895FE
:1050B0008230910538F0880F991F880F991F059746
:1050C0000197F1F70895789484B5826084BD84B522
:1050D000816084BD85B5826085BD85B5816085BDF3
:1050E000EEE6F0E0808181608083E1E8F0E010820C
:1050F000808182608083808181608083E0E8F0E04D
:10510000808181608083E1EBF0E080818460808336
:10511000E0EBF0E0808181608083EAE7F0E080816D
:1051200084608083808182608083808181608083CD
:105130008081806880831092C1000895833081F05F
:1051400028F4813099F08230A1F008958730A9F0D9
:105150008830B9F08430D1F4809180008F7D03C015
:10516000809180008F7780938000089584B58F7739
:1051700002C084B58F7D84BD08958091B0008F7783
:1051800003C08091B0008F7D8093B0000895CF93CD
:10519000DF9390E0FC01E656FC4F2491FC01E255C0
:1051A000FC4F8491882349F190E0880F991FFC01FE
:1051B000E453FC4FA591B4918E539C4FFC01C591D3
:1051C000D4919FB7611108C0F8948C9120958223E7
:1051D0008C93888182230AC0623051F4F8948C91B8
:1051E000322F309583238C938881822B888304C04F
:1051F000F8948C91822B8C939FBFDF91CF9108956F
:105200000F931F93CF93DF931F92CDB7DEB7282F55
:1052100030E0F901EA57FC4F8491F901E656FC4F62
:105220001491F901E255FC4F04910023C9F0882341
:1052300021F069830E949E286981E02FF0E0EE0F43
:10524000FF1FEE53FC4FA591B4919FB7F8948C913A
:10525000611103C01095812301C0812B8C939FBFE6
:105260000F90DF91CF911F910F91089508950E94A3
:1052700063280E9436290E94791BC0E0D0E00E947A
:105280002A202097E1F30E940000F9CFCF92DF920D
:10529000EF92FF920F931F93CF93DF936C017A01EC
:1052A000EB01E60EF71E00E010E0CE15DF0561F021
:1052B0006991D601ED91FC910190F081E02DC6013C
:1052C0000995080F191FF1CFC801DF91CF911F91E8
:1052D0000F91FF90EF90DF90CF9008950895505870
:1052E000BB27AA270ED038C201D230F006D220F058
:1052F00031F49F3F11F41EF4C0C10EF4E095E7FBBA
:10530000B6C1E92F4BD280F3BA176207730784073F
:10531000950718F071F49EF563C20EF4E0950B2E1C
:10532000BA2FA02D0B01B90190010C01CA01A001F7
:105330001124FF27591B99F0593F50F4503E68F152
:105340001A16F040A22F232F342F4427585FF3CF93
:10535000469537952795A795F0405395C9F77EF464
:105360001F16BA0B620B730B840BBAF09150A1F0AD
:10537000FF0FBB1F661F771F881FC2F70EC0BA0F33
:10538000621F731F841F48F4879577956795B795BB
:10539000F7959E3F08F0B3CF9395880F08F09927B3
:1053A000EE0F979587950895A1D158F080E891E088
:1053B00009F49EEFA2D128F040E851E059F45EEFE5
:1053C00009C05BC10DC2E92FE078E8D168F3092E6E
:1053D000052AC1F3261737074807590738F00E2E5C
:1053E00007F8E02569F0E025E0640AC0EF6307F8FC
:1053F000009407FADB01B9019D01DC01CA01AD018E
:10540000EF934AD0A9D10AD05F91552331F02BED0B
:105410003FE049E450FD49EC63CF0895DF93DD2779
:10542000B92FBF7740E85FE31616170648075B07FA
:1054300010F4D92FE0D19F938F937F936F93A7D2CE
:10544000E2EAF0E01DD188D12F913F914F915F9119
:10545000E5D1DD2349F09058A2EA2AED3FE049EC7E
:105460005FE3D0785D274DDFDF9176C1DCD008F4B3
:1054700081E008954AD1E39580C10CD06DC13DD142
:1054800040F034D130F021F45F3F19F0F0C05111F9
:10549000A8C1F3C083D198F39923C9F35523B1F37D
:1054A000951B550BBB27AA2762177307840738F093
:1054B0009F5F5F4F220F331F441FAA1FA9F333D0F2
:1054C0000E2E3AF0E0E830D091505040E695001CA6
:1054D000CAF729D0FE2F27D0660F771F881FBB1F62
:1054E000261737074807AB07B0E809F0BB0B802D3C
:1054F000BF01FF2793585F4F2AF09E3F510568F088
:10550000B6C06FC15F3FECF3983EDCF386957795AC
:105510006795B795F7959F5FC9F7880F911D969589
:10552000879597F90895E1E0660F771F881FBB1FE5
:10553000621773078407BA0720F0621B730B840B92
:10554000BA0BEE1F88F7E095089504D06894B11166
:1055500048C108952BD188F09F5790F0B92F992713
:10556000B751A0F0D1F0660F771F881F991F1AF06E
:10557000BA95C9F712C0B13081F032D1B1E00895C7
:105580002FC1672F782F8827B85F39F0B93FCCF348
:10559000869577956795B395D9F73EF49095809564
:1055A000709561957F4F8F4F9F4F0895E89409C084
:1055B00097FB3EF490958095709561957F4F8F4F46
:1055C0009F4F9923A9F0F92F96E9BB279395F6955C
:1055D000879577956795B795F111F8CFFAF4BB0FDA
:1055E00011F460FF1BC06F5F7F4F8F4F9F4F16C03E
:1055F000882311F096E911C0772321F09EE8872FC8
:10560000762F05C0662371F096E8862F70E060E083
:105610002AF09A95660F771F881FDAF7880F9695FC
:10562000879597F90895990F0008550FAA0BE0E8A0
:10563000FEEF16161706E807F907C0F01216130654
:10564000E407F50798F0621B730B840B950B39F494
:105650000A2661F0232B242B252B21F408950A26FA
:1056600009F4A140A6958FEF811D811D089597F93A
:105670009F6780E870E060E008959FEF80EC0895F8
:10568000DF93CF931F930F93FF92EF92DF927B01F3
:105690008C01689405C0DA2EEF01C0D0FE01E894B9
:1056A000A5912591359145915591AEF3EF0129DEF4
:1056B000FE019701A801DA9479F7DF90EF90FF904F
:1056C0000F911F91CF91DF9108959F938F937F93B7
:1056D0006F93FF93EF939B01AC0194D0EF91FF91F7
:1056E000CFDF2F913F914F915F918CC000240A949E
:1056F0001616170618060906089500240A941216AD
:105700001306140605060895B8CF50D0E8F3E894C0
:10571000E0E0BB279F57F0F02AED3FE049EC06C0E0
:10572000EE0FBB0F661F771F881F28F0B23A620783
:105730007307840728F0B25A620B730B840BE3954E
:105740009A9572F7803830F49A95BB0F661F771FD1
:10575000881FD2F790485BC1092E0394000C11F406
:10576000882352F0BB0F40F4BF2B11F460FF04C03C
:105770006F5F7F4F8F4F9F4F0895EF93E0FF06C0FD
:10578000A2EA2AED3FE049EC5FEBBBDDE5DF0F90DD
:10579000039401FC9058EFECF0E097CF57FD905840
:1057A000440F551F59F05F3F71F04795880F97FBE5
:1057B000991F61F09F3F79F087950895121613069F
:1057C0001406551FF2CF4695F1DF08C016161706CE
:1057D0001806991FF1CF8695710561050894089503
:1057E000E894BB2766277727CB0197F908951BDF3D
:1057F00008F48FEF08959B01AC0160E070E080E851
:105800009FE33BCE0BD0A8CF71DF28F076DF18F0F6
:10581000952309F02CCF31CF1124E3CFBFDFA0F3C4
:10582000959FD1F3950F50E0551F629FF001729F35
:10583000BB27F00DB11D639FAA27F00DB11DAA1F54
:10584000649F6627B00DA11D661F829F2227B00DA1
:10585000A11D621F739FB00DA11D621F839FA00D2C
:10586000611D221F749F3327A00D611D231F849F7C
:10587000600D211D822F762F6A2F11249F575040D3
:105880008AF0E1F088234AF0EE0FFF1FBB1F661F6E
:10589000771F881F91505040A9F79E3F510570F027
:1058A000E6CE9FCF5F3FECF3983EDCF3869577958D
:1058B0006795B795F795E7959F5FC1F7FE2B880F22
:1058C000911D9695879597F9089570DFE0F09E37C2
:1058D000D8F09639B8F49E3848F4672F782F882787
:1058E000985FF9CF86957795679593959539D0F31D
:1058F000B62FB1706B0F711D811D20F487957795C0
:105900006795939567C081C06CCF11F40EF4B5CE46
:105910007CC04CDFD0F39923D9F3CEF39F57550BBE
:1059200087FF81D00024A0E640EA90018058569578
:10593000979528F4805C660F771F881F20F0261744
:105940003707480730F4621B730B840B2029312979
:105950004A2BA69517940794202531254A2758F7F6
:10596000660F771F881F20F026173707480730F487
:10597000620B730B840B200D311D411DA09581F727
:10598000B901842F9158880F9695879508959B01AA
:10599000AC0138CFDF93D92FB8DEE695D7952AED45
:1059A0003FE049E45FE3B33A620773078407950772
:1059B000D7952AF0A2EA49EC9068A3DCCDDEEDEEA3
:1059C000F0E083DEDD0F0BF016DFDD0F0BF49058F7
:1059D000DF910895882371F4772321F09850872B65
:1059E000762F07C0662311F499270DC09051862B9E
:1059F00070E060E02AF09A95660F771F881FDAF74B
:105A0000880F9695879597F908959F3F31F09150AB
:105A100020F4879577956795B795880F911D969592
:105A2000879597F9089591505040660F771F881F0A
:105A3000D2F7089597FB072E16F4009407D077FD50
:105A400009D00E94752D07FC05D03EF490958195F4
:105A50009F4F0895709561957F4F0895A1E21A2E8A
:105A6000AA1BBB1BFD010DC0AA1FBB1FEE1FFF1F02
:105A7000A217B307E407F50720F0A21BB30BE40B52
:105A8000F50B661F771F881F991F1A9469F7609599
:105A90007095809590959B01AC01BD01CF01089553
:105AA000052E97FB1EF400940E94672D57FD07D02A
:105AB0000E942E2D07FC03D04EF40C94672D5095B8
:105AC0004095309521953F4F4F4F5F4F08959095EA
:105AD0008095709561957F4F8F4F9F4F0895EE0F82
