:100000000C9482000C94AA000C94AA000C94300763
:100010000C9430070C9430070C94AA000C94AA009E
:100020000C94AA000C94AA000C94AA000C94AA00A8
:100030000C94AA000C94AA000C94AA000C94AA0098
:100040000C94C1080C94AA000C942F0B0C94610B17
:100050000C94AA000C94AA000C94AA000C94AA0078
:100060000C94AA000C94AA000000000800020100F1
:100070000003040700000000000000000102040863
:100080001020408001020408102001020408102002
:10009000040404040404040402020202020203032E
:1000A00003030303000000002300260029000000D2
:1000B0000000250028002B0000000000240027007D
:1000C0002A004E414E494E495459494E46CDCCCC5A
:1000D0003D0AD7233C17B7D13877CC2B329595E61C
:1000E000241FB14F0A000020410000C84200401CFC
:1000F0004620BCBE4CCA1B0E5AAEC59D7400D6032A
:10010000910B130411241FBECFEFD8E0DEBFCDBF8B
:1001100011E0A0E0B1E0EEECF8E202C005900D9233
:10012000AE33B107D9F722E0AEE3B1E001C01D92D2
:10013000AA3DB207E1F710E0C2E0D1E004C0229787
:10014000FE010E941610CE3FD107C9F70E94D50BC1
:100150000C945A140C940000FB019081982780E1C4
:10016000989F900111242927822F90E0382F222771
:10017000AC0163E0440F551F6A95E1F7242735274A
:10018000418150E02427352774E0959587957A952D
:10019000E1F7282739273183208308950F931F9390
:1001A000CF93DF938B01EC01080F191FC017D10704
:1001B00069F069918091E7019091E801DC01ED918E
:1001C000FC910190F081E02D0995F0CFDF91CF9166
:1001D0001F910F91089526E040E051EE60E070E03D
:1001E00086E392E00E94CD0A40E855E260E070E0CC
:1001F0008EE491E00E94330886E392E09093E80158
:100200008093E70108958F929F92AF92BF92CF9211
:10021000DF92EF92FF920F931F93CF93DF93CDB7AF
:10022000DEB7A2970FB6F894DEBF0FBECDBF7C013C
:1002300041E050E06EE20E94EE0D6C0118161906C6
:1002400034F4F70184819581C816D90628F060E05E
:100250007DE909E61AE3BFC0960140E050E0B7012E
:10026000CE0149960E940A0E5601FFEFAF1ABF0A4F
:10027000A6014E5F5F4F60E2C7010E94EE0D6C0168
:10028000A816B90634F4F70184819581C816D906F9
:1002900068F060E876E001ED19E3CE0149966F8FD2
:1002A00078A30E946F0C6F8D78A195C09601A5016F
:1002B000B701CE0143960E940A0EB6016F5F7F4FD1
:1002C000F701848195816817790708F077C0C70125
:1002D0000E94DC0DFC0110812D8D3E8D22503109D4
:1002E00040E050E0BE01675E7F4FCE010D960E9458
:1002F0000A0E2D8D3E8DA90142505109BE01675E47
:100300007F4FCE0107960E940A0EBE01695F7F4FA4
:10031000CE0101960E940A0DBE016D5E7F4FCE0197
:1003200001960E94570DBC01CE0143960E94F30C2A
:10033000CE0101960E946F0CCE010D960E944F0EC9
:100340009B01AC01CE0143962F8F38A349A35AA33A
:100350000E944F0E4B015C012F8D38A149A15AA17B
:1003600060E876E988E990E00E94AF0F6B017C01BC
:10037000AAE0B0E0A50194010E941A1026E030E046
:1003800040E050E00E94F50FC20ED31EE41EF51EA1
:100390001B7D133541F4F094E094D094C094C11CBB
:1003A000D11CE11CF11CCE0107960E946F0CCE01FE
:1003B0000D960E946F0CB601870104C060E070E7E3
:1003C00008E319E3CE0143966F8F78A30E946F0C68
:1003D0006F8D78A162CFC801A2960FB6F894DEBFE8
:1003E0000FBECDBFDF91CF911F910F91FF90EF9086
:1003F000DF90CF90BF90AF909F908F9008958F9295
:100400009F92AF92BF92CF92DF92EF92FF920F93A3
:100410001F93CF93DF93CDB7DEB72C970FB6F89429
:10042000DEBF0FBECDBF6C018B016CE171E00E949D
:10043000DD0C24E030E040E050E0B801CE0107964A
:100440000E940A0E6CE071E0CE0107960E94B40D86
:10045000882371F1E12CF12C812C912CC40101969F
:100460005C01AC016CE299E0E916F10461F0C801AD
:100470000E94EE0D4C018FEFE81AF80A9AE0E91697
:10048000F10461F715C0C8010E94EE0D9C01A501A1
:10049000B801CE0101960E940A0EBE016F5F7F4F28
:1004A000C6010E94F30CCE0101960E946F0CE3CFAF
:1004B000CE0107960E946F0CC6012C960FB6F894D9
:1004C000DEBF0FBECDBFDF91CF911F910F91FF9087
:1004D000EF90DF90CF90BF90AF909F908F90089556
:1004E0006F927F928F929F92AF92BF92CF92DF9244
:1004F000EF92FF920F931F93CF93DF93CDB7DEB7A9
:1005000062970FB6F894DEBF0FBECDBF8C017B01A2
:100510006CE171E00E94DD0C24E030E040E050E04E
:10052000B701CE010D960E940A0E61E171E0CE0185
:100530000D960E94B40D811109C066E171E0CE01F3
:100540000D960E94B40D882309F463C0C12CD12CF0
:10055000812C912CA12CB12C83E0C816D1044CF431
:10056000A5014F5F5F4F6CE2C7010E94EE0D5C0179
:100570001CC083E0C816D104C1F435018FEF681A9E
:10058000780AA3016CE2C7010E94EE0D4C019C01A8
:10059000A301B701CE0101960E940A0EBE016F5F52
:1005A0007F4FC8010E94F30C28C034018FEF681AF6
:1005B000780AA3016CE2C7010E94EE0D9C01A30121
:1005C000B701CE0101960E940A0EB801CE0107962E
:1005D0000E940A0D6BE171E0CE0107960E946A0D40
:1005E000BE016F5F7F4F0E94570DBC01C8010E9482
:1005F000F30CCE0107960E946F0CCE0101960E946B
:100600006F0C8FEFC81AD80A85E0C816D10409F01C
:10061000A3CFCE010D960E946F0CC80162960FB653
:10062000F894DEBF0FBECDBFDF91CF911F910F9128
:10063000FF90EF90DF90CF90BF90AF909F908F9002
:100640007F906F9008956F927F928F929F92AF925A
:10065000BF92CF92DF92EF92FF920F931F93CF93AF
:10066000DF93CDB7DEB762970FB6F894DEBF0FBE4B
:10067000CDBF8C017B016CE171E00E94DD0C24E0B8
:1006800030E040E050E0B701CE010D960E940A0E26
:1006900061E171E0CE010D960E94B40D811109C097
:1006A00066E171E0CE010D960E94B40D882309F435
:1006B00063C0C12CD12C812C912CA12CB12C85E0B4
:1006C000C816D1044CF4A5014F5F5F4F6CE2C7011F
:1006D0000E94EE0D5C011CC085E0C816D104C1F477
:1006E00035018FEF681A780AA3016CE2C7010E94F6
:1006F000EE0D4C019C01A301B701CE0101960E94B1
:100700000A0EBE016F5F7F4FC8010E94F30C28C024
:1007100034018FEF681A780AA3016CE2C7010E94C6
:10072000EE0D9C01A301B701CE0101960E940A0EB5
:10073000B801CE0107960E940A0D6BE171E0CE016F
:1007400007960E946A0DBE016F5F7F4F0E94570D92
:10075000BC01C8010E94F30CCE0107960E946F0CE9
:10076000CE0101960E946F0C8FEFC81AD80A87E05D
:10077000C816D10409F0A3CFCE010D960E946F0CCC
:10078000C80162960FB6F894DEBF0FBECDBFDF91F1
:10079000CF911F910F91FF90EF90DF90CF90BF907E
:1007A000AF909F908F907F906F9008956CE171E073
:1007B0008DE991E00E94DD0C6CE171E087E991E048
:1007C0000E94DD0C6CE171E081E991E00E94DD0C9A
:1007D0006CE171E08BE891E00E94DD0C6CE171E06E
:1007E00085E891E00E94DD0C6CE171E08FE791E01B
:1007F0000E94DD0C6CE171E089E791E00E94DD0C64
:100800006CE171E083E791E00E94DD0C6CE171E046
:100810008DE691E00E94DD0C20E04BE06AE08EE482
:1008200091E00C9403088EE491E00E94AA078DE603
:1008300091E00E946F0C83E791E00E946F0C89E7C2
:1008400091E00E946F0C8FE791E00E946F0C85E8A9
:1008500091E00E946F0C8BE891E00E946F0C81E99F
:1008600091E00E946F0C87E991E00E946F0C8DE986
:1008700091E00C946F0C8F929F92AF92BF92CF92A7
:10088000DF92EF92FF920F931F93CF93DF93CDB739
:10089000DEB7AC970FB6F894DEBF0FBECDBF0E9497
:1008A0000B096B017C010E940B096C197D098E09F3
:1008B0009F09683E73408105910508F0B9C08EE438
:1008C00091E00E94CA06892B71F38EE491E00E94A8
:1008D0003D068432A1F723E430E043EA51E06AE2C6
:1008E0008EE491E00E943A0C63EA71E0CE014F96EB
:1008F0000E94DD0CBE01615E7F4FCE0101960E9419
:100900007002BE016F5F7F4F8BE891E00E94F30C95
:10091000CE0101960E946F0CCE014F960E946F0C83
:1009200063EA71E0CE014F960E94DD0CBE01615E6C
:100930007F4FCE0101960E942303BE016F5F7F4F60
:1009400085E891E00E94F30CCE0101960E946F0CA5
:10095000CE014F960E946F0C63EA71E0CE014F9674
:100960000E94DD0CBE01615E7F4FCE0101960E94A8
:10097000FF01BE016F5F7F4F8FE791E00E94F30C94
:10098000CE0101960E946F0CCE014F960E946F0C13
:100990006CE171E0CE0101960E94DD0CBE016F5F3B
:1009A0007F4F8BE891E00E94D30D182FCE01019666
:1009B0000E946F0C112331F06BE871E08DE991E03A
:1009C0000E94F30C6CE171E0CE0101960E94DD0CF7
:1009D000BE016F5F7F4F85E891E00E94D30D182F15
:1009E000CE0101960E946F0C112331F065E871E091
:1009F00087E991E00E94F30C6CE171E0CE01019671
:100A00000E94DD0CBE016F5F7F4F8FE791E00E9477
:100A1000D30D182FCE0101960E946F0C112309F4FB
:100A20004ECF6FE771E081E991E00E94F30C47CF70
:100A30000E940B0900914A0110914B0120914C0139
:100A400030914D010053184F2F4F3F4F0617170796
:100A50002807390708F0FEC08E010B5D1F4F6CE1BF
:100A600071E0C8010E94DD0CB8018DE991E00E949F
:100A7000D30D882361F16CE171E0CE014F960E94A5
:100A8000DD0CBE01615E7F4F87E991E00E94D30DCE
:100A90008823B9F06CE171E0CE0101960E94DD0C73
:100AA000BE016F5F7F4F81E991E00E94D30DFF246B
:100AB000F394811101C0F12CCE0101960E946F0CBC
:100AC00001C0F12CCE014F960E946F0C01C0F12C99
:100AD000C8010E946F0CFF2029F16DE971E0CE0181
:100AE00001960E940A0DCE0101960E9403014B015E
:100AF0005C01CE0101960E946F0C67E971E0CE01A6
:100B000001960E940A0DCE0101960E9403016B011D
:100B10007C01CE0101960E946F0C81E991E00E9458
:100B20005A0E14C060E07CE38CE196E4E0E8CE2E3F
:100B3000E3E3DE2EE2E0EE2EEBE3FE2EF0E88F2E76
:100B4000F3E39F2EF2E0AF2EFBE3BF2E28EF2983C5
:100B50002DEC2A832DE62B8329E32C831D821E8214
:100B60001F82188689869A86AB86BC86CD86DE86ED
:100B7000EF86F88A0E94690E698B7A8B8B8B9C8B2F
:100B800081E090E09E8B8D8B988F8F8B9A8F898FD1
:100B90009C8F8B8F83E08D8F8FEF8E8F8EEF8F8F5B
:100BA0008EE188A38091450189A3909106019AA3C3
:100BB000909107019BA398E19CA38F5F80934501CF
:100BC0008FEF9FEF9EA38DA37E0180E2E80EF11CC4
:100BD000E016F10639F0B801F70181917F010E941A
:100BE000AC00F6CF8DA19EA19CA78BA7CE0101964C
:100BF0007C016E019FE1C90ED11C5701BE01655DEC
:100C00007F4FEC14FD0431F0F70181917F010E94C8
:100C1000AC00F4CF88E10E94AC009BA58CA59DA3FD
:100C20008EA366E070E0C7010E94CE006EE170E026
:100C3000C5010E94CE0062E070E0C8010E94CE00B3
:100C40000E940B0960934A0170934B0180934C0101
:100C500090934D01AC960FB6F894DEBF0FBECDBF9A
:100C6000DF91CF911F910F91FF90EF90DF90CF9088
:100C7000BF90AF909F908F90089520912B0230915C
:100C80002C0228173907B9F49091E9018091EA0103
:100C9000981789F0E091E901F0E0E551FE4F80817D
:100CA0002091E90130E02F5F3F4F2F7333272093CE
:100CB000E90190E008958FEF9FEF08951F93CF9380
:100CC000DF93DC015C968D919C915D97009749F4D0
:100CD00081E090E013969C938E93129780E090E0D1
:100CE0003BC05196ED91FC91529750962C915097A4
:100CF000322F30951FB75E964C915E9741FB772758
:100D000070F941FD6095F8944081772311F0422BF2
:100D100001C043234083EC012197F1F748E0508163
:100D200060FF02C0522B01C053235083EC01219776
:100D3000F1F76695415099F78081772311F083236D
:100D400001C0822B80831FBF5C968D919C915D9723
:100D50000197F1F781E090E0DF91CF911F91089525
:100D600020912B0230912C022817390781F49091A1
:100D7000E9018091EA01981751F0E091E901F0E072
:100D8000E551FE4F8081992787FD909508958FEF5B
:100D90009FEF089520912B0230912C0228173907DC
:100DA00071F48091EA012091E90190E0805C9F4F0D
:100DB000821B910960E470E00E94BF0F089580E0FB
:100DC00090E0089520912B0230912C0228173907CA
:100DD00039F48FB7F8941092EA011092E9018FBFAD
:100DE0000895E0912B02F0912C02E817F90769F4BD
:100DF000A389B4899C918589809589238C931092CD
:100E00002C0210922B0281E0089580E00895CF9388
:100E1000DF93EC018A8D9B8D892BF1F080912B0261
:100E200090912C028C179D07B9F0009711F00E9449
:100E3000F1068E8D8E7F8E8F1092EA011092E9015D
:100E4000D0932C02C0932B02EB89FC8980819D8971
:100E5000892B808381E001C080E0DF91CF910895EC
:100E60001F920F920FB60F9211242F933F934F931F
:100E70005F936F937F938F939F93AF93BF93EF9302
:100E8000FF93E0912B02F0912C02309709F451C0AE
:100E9000868DA685B785958581FF04C08C918923B1
:100EA00029F447C08C91892309F043C0A389B489F0
:100EB0009C918589809589238C9386899789019750
:100EC000F1F7208D318DA685B785758558E040E016
:100ED000C9010197F1F7842F90E095958795482FE8
:100EE0006C91672309F04068515091F7868D81FD20
:100EF00040958091EA0190E001968F7399272091A7
:100F0000E901281749F0A091EA01B0E0A551BE4FD0
:100F10004C938093EA0103C0868D8160868F828D19
:100F2000938D0197F1F7A389B4898C919589892BC9
:100F30008C93FF91EF91BF91AF919F918F917F9192
:100F40006F915F914F913F912F910F900FBE0F9036
:100F50001F90189521E231E0FC01318320830C942D
:100F6000F1061F93CF93DF93EC01162F6E8D6695DC
:100F7000617081E06827812F0E94B40961E0812FB0
:100F80000E947B09812F90E0FC01E458FF4FE4911F
:100F9000E88BFC01E057FF4FE491F0E0EE0FFF1FFC
:100FA000E255FF4F859194919A8B898BDF91CF9178
:100FB0001F9108951F93CF93DF93EC01162F60E0EC
:100FC000812F0E947B098E8D81FD04C061E0812FFD
:100FD0000E94B4091C87812F90E0FC01E458FF4F68
:100FE000E491ED87FC01E057FF4FE491F0E0EE0F54
:100FF000FF1FEC55FF4F859194919F878E87DF915E
:10100000CF911F910895FF920F931F93CF93DF937A
:10101000EC01F62E522F1B821A8208EE13E020E01C
:1010200030E00C831D832E833F8381E291E099831E
:1010300088831F8A1E8A198E188E1B8E1A8E1D8E0B
:101040001C8E8E8D8E7F50FB81F98E8F642FCE018A
:101050000E94B1076F2DCE01DF91CF911F910F91AB
:10106000FF900C94DA07CF93DF93EC019A01AB0168
:101070001B8E1A8E198E188E1F8A1E8A60E079E0E8
:101080008DE390E00E94F50FC9012430310520F076
:10109000B9016350710902C061E070E07D8F6C8F0F
:1010A000EC85E63108F068C0B90176956795643142
:1010B000710518F06351710902C061E070E07F8B27
:1010C0006E8B069718F0C901059702C081E090E089
:1010D000998F888FC901880F991F820F931F96954A
:1010E0008795969587958D30910510F00C9702C0E5
:1010F00081E090E09B8F8A8F20916800E83050F06B
:1011000091E0EE3008F490E081E001C0880F9A95FC
:10111000EAF701C084E0822B809368002C85283098
:1011200038F02E3040F0263148F48CE690E008C0CC
:101130008DE690E005C08BE690E002C080E090E094
:101140009C8B8B8B283030F481E001C0880F2A956E
:10115000EAF70DC0822F90E02E3010F4089701C0FE
:101160000E9791E001C0990F8A95EAF7892F8D8B30
:101170008C8D9D8D0197F1F7CE01DF91CF910C946D
:1011800007071F920F920FB60F9211242F933F93D0
:101190008F939F93AF93BF9380912E0290912F02D4
:1011A000A0913002B091310230912D0223E0230F43
:1011B0002D3720F40196A11DB11D05C026E8230F8F
:1011C0000296A11DB11D20932D0280932E029093B3
:1011D0002F02A0933002B09331028091320290919D
:1011E0003302A0913402B09135020196A11DB11DC8
:1011F0008093320290933302A0933402B09335026D
:10120000BF91AF919F918F913F912F910F900FBE02
:101210000F901F9018952FB7F89460912E0270913F
:101220002F0280913002909131022FBF089578945F
:1012300084B5826084BD84B5816084BD85B58260DB
:1012400085BD85B5816085BDEEE6F0E08081816079
:101250008083E1E8F0E01082808182608083808179
:1012600081608083E0E8F0E0808181608083E1EB51
:10127000F0E0808184608083E0EBF0E08081816039
:101280008083EAE7F0E080818460808380818260EF
:1012900080838081816080838081806880831092D8
:1012A000C1000895833081F028F4813099F08230B4
:1012B000A1F008958730A9F08830B9F08430D1F4D6
:1012C000809180008F7D03C0809180008F77809314
:1012D0008000089584B58F7702C084B58F7D84BD6A
:1012E00008958091B0008F7703C08091B0008F7D0A
:1012F0008093B0000895CF93DF9390E0FC01E45811
:10130000FF4F2491FC01E057FF4F8491882349F15E
:1013100090E0880F991FFC01E854FF4FA591B4910C
:1013200082559F4FFC01C591D4919FB7611108C0B0
:10133000F8948C91209582238C93888182230AC013
:10134000623051F4F8948C91322F309583238C9332
:101350008881822B888304C0F8948C91822B8C9393
:101360009FBFDF91CF9108950F931F93CF93DF938A
:101370001F92CDB7DEB7282F30E0F901E859FF4FB3
:101380008491F901E458FF4F1491F901E057FF4FA0
:1013900004910023C9F0882321F069830E94520937
:1013A0006981E02FF0E0EE0FFF1FE255FF4FA5919E
:1013B000B4919FB7F8948C91611103C0109581236B
:1013C00001C0812B8C939FBF0F90DF91CF911F9114
:1013D0000F910895FC01818D228D90E0805C9F4FDC
:1013E000821B91098F7399270895FC01918D828D3D
:1013F000981731F0828DE80FF11D858D90E00895EA
:101400008FEF9FEF0895FC01918D828D981761F009
:10141000828DDF01A80FB11D5D968C91928D9F5F2B
:101420009F73928F90E008958FEF9FEF089587E864
:101430009BE0892B49F080E090E0892B29F00E9405
:10144000870B81110C9400000895FC01848DDF014D
:10145000A80FB11DA35ABF4F2C91848D90E0019627
:101460008F739927848FA689B7892C93A089B18916
:101470008C9180648C93938D848D981306C0028820
:10148000F389E02D80818F7D80830895CF93DF9352
:10149000EC01888D8823C9F0EA89FB89808185FD6C
:1014A00005C0A889B9898C9186FD0FC00FB607FCCD
:1014B000F5CF808185FFF2CFA889B9898C9185FF0E
:1014C000EDCFCE010E94250AE7CFDF91CF9108959D
:1014D000CF92DF92FF920F931F93CF93DF931F92D0
:1014E000CDB7DEB76C0181E0D60158968C93589742
:1014F0005B969C915B975C968C915C97981307C068
:101500005096ED91FC915197808185FD2EC0F6019A
:10151000038D10E00F5F1F4F0F731127F02EF601A0
:10152000848DF81211C00FB607FCF9CFD601509682
:10153000ED91FC915197808185FFF1CFC6016983C0
:101540000E94250A6981EBCF838DE80FF11DE35AD4
:10155000FF4F6083D6015B960C935B975296ED919B
:10156000FC915397808180620CC0D6015696ED9114
:10157000FC91579760835096ED91FC915197808133
:101580008064808381E090E00F90DF91CF911F9184
:101590000F91FF90DF90CF900895BF92CF92DF928E
:1015A000EF92FF92CF93DF93EC016A017B01B22EA1
:1015B000E889F98982E08083411581EE5807610549
:1015C0007105A1F060E079E08DE390E0A70196015C
:1015D0000E94D30F21503109410951095695479571
:1015E00037952795211580E1380798F0E889F98922
:1015F000108260E874E88EE190E0A70196010E94F5
:10160000D30F215031094109510956954795379516
:101610002795EC85FD853083EE85FF852083188E28
:10162000EC89FD89B082EA89FB89808180618083B1
:10163000EA89FB89808188608083EA89FB898081CF
:1016400080688083EA89FB8980818F7D8083DF9138
:10165000CF91FF90EF90DF90CF90BF9008951F92B1
:101660000F920FB60F9211242F938F939F93EF93A6
:10167000FF93E0914602F09147028081E0914C0295
:10168000F0914D0282FD12C0908180914F028F5FD8
:101690008F7320915002821751F0E0914F02F0E0D9
:1016A000EA5CFD4F958F80934F0201C08081FF91CE
:1016B000EF919F918F912F910F900FBE0F901F90E0
:1016C00018951F920F920FB60F9211242F933F93EC
:1016D0004F935F936F937F938F939F93AF93BF933A
:1016E000EF93FF9386E392E00E94250AFF91EF912A
:1016F000BF91AF919F918F917F916F915F914F912A
:101700003F912F910F900FBE0F901F90189586E379
:1017100092E00E94EA0921E0892B09F420E0822F5F
:101720000895109239021092380288EE93E0A0E0FA
:10173000B0E080933A0290933B02A0933C02B093B6
:101740003D0281E391E0909337028093360285EC6D
:1017500090E0909343028093420284EC90E0909357
:1017600045028093440280EC90E09093470280937E
:10177000460281EC90E0909349028093480282EC0B
:1017800090E090934B0280934A0286EC90E0909315
:101790004D0280934C0210924F0210925002109210
:1017A000510210925202089508950E9417090E9452
:1017B000D40B0E94EB00C7E1DAE00E943B042097C3
:1017C000E1F30E94170AF9CFCF92DF92EF92FF92D6
:1017D0000F931F93CF93DF936C017A01EB01E60E19
:1017E000F71E00E010E0CE15DF0561F06991D6012B
:1017F000ED91FC910190F081E02DC6010995080F53
:10180000191FF1CFC801DF91CF911F910F91FF9068
:10181000EF90DF90CF9008950F931F93CF93DF93B6
:10182000EC010E940B09688779878A879B87E8818A
:10183000F9810680F781E02DCE01099597FF15C04B
:101840000E940B09088519852A853B85601B710B51
:10185000820B930B0C811D812E813F8160177107D4
:101860008207930720F38FEF9FEFDF91CF911F91B6
:101870000F910895AF92BF92CF92DF92EF92FF92B5
:101880000F931F93CF93DF936C01790121153105DD
:10189000B9F08A01C0E0D0E0A62EBB24A7FCB0942A
:1018A000C6010E940C0C97FD0EC08A159B0559F0CD
:1018B000F80181938F012196CE15DF0589F703C0CA
:1018C00080E090E001C0CE01DF91CF911F910F9198
:1018D000FF90EF90DF90CF90BF90AF900895FC0104
:1018E000808191810C94E010CF93DF93EC0188818B
:1018F0009981009711F00E94E010198218821D82D0
:101900001C821B821A82DF91CF9108950F931F933F
:10191000CF93DF93EC018B016F5F7F4F88819981BB
:101920000E946F11009731F0998388831B830A838B
:1019300081E001C080E0DF91CF911F910F91089568
:10194000CF93DF93EC0188819981892B29F08A81DB
:101950009B818617970760F4CE010E94860C88232E
:1019600041F08C819D81892B19F4E881F9811082E5
:1019700081E0DF91CF910895EF92FF920F931F9333
:10198000CF93DF93EC017B018A01BA010E94A00C86
:10199000811104C0CE010E94740C07C01D830C830A
:1019A000B701888199810E948912CE01DF91CF9180
:1019B0001F910F91FF90EF900895FC01118210820A
:1019C00013821282158214826115710559F0FB0190
:1019D00001900020E9F7AF0141505109461B570B18
:1019E0000C94BC0C0895CF93DF93EC01FB01861798
:1019F000970761F0608171816115710529F044815B
:101A000055810E94BC0C02C00E94740CCE01DF9173
:101A1000CF910895FC0111821082138212821582E7
:101A200014820C94F30CCF93DF93EC0161157105D4
:101A300061F0FB0101900020E9F7AF01415051092D
:101A4000461B570B0E94BC0C02C00E94740CCE01B6
:101A5000DF91CF910895EF92FF920F931F93CF9351
:101A6000DF93EC017B010C811D816115710511F47F
:101A700080E016C04115510591F0040F151FB80103
:101A80000E94A00C8823A1F3288139818C819D813B
:101A9000B701820F931F0E9489121D830C8381E07E
:101AA000DF91CF911F910F91FF90EF900895CF9309
:101AB000DF93EC01FB0144815581608171810E94BB
:101AC0002B0D811103C0CE010E94740CCE01DF9159
:101AD000CF910895CF93DF93EC016115710569F003
:101AE000FB0101900020E9F7AF0141505109461B6D
:101AF000570B0E942B0D811103C0CE010E94740C64
:101B0000CE01DF91CF910895CF93DF93DC01ED916A
:101B1000FC91EB01A881B981309711F01097C9F4BD
:101B2000109759F0EB012C813D81232B31F08C91E2
:101B300090E091958195910914C0309781F0DC0176
:101B400014968D919C911597892B49F0808190E096
:101B500008C0BD01CF01DF91CF910C94801280E0CD
:101B600090E0DF91CF910895FC0124813581232BF2
:101B700031F421E061157105A1F0FB0108C0FC0101
:101B8000808191816115710531F421E0FC01808132
:101B9000882339F005C00E94801221E0892B09F0CA
:101BA00020E0822F08950E94840D21E01816190666
:101BB0000CF020E0822F0895FC0184819581681744
:101BC000790720F480819181009729F41092D30243
:101BD00083ED92E00895860F971F0895CF93DF93CA
:101BE000FC01848195814817590778F4C081D1811F
:101BF000772767FD7095CE01840F951F0E9475129F
:101C0000009719F08C1B9D0B02C08FEF9FEFDF91A7
:101C1000CF910895BF92CF92DF92EF92FF920F93F0
:101C20001F93CF93DF936C017B01EA018901241795
:101C3000350720F48D2FE901042F182F6CE171E096
:101C4000C6010E94DD0CD70114968D919C911597C9
:101C5000C817D907C8F48017910708F48C01D70179
:101C6000ED91FC911197E00FF11FB08010826D9102
:101C70007C916C0F7D1FC6010E94130DD701ED9161
:101C8000FC91E00FF11FB082C601DF91CF911F914F
:101C90000F91FF90EF90DF90CF90BF900895FC01DF
:101CA00080819181009711F00C943D1260E070E00A
:101CB000CB010895FC0180819181009711F00C9473
:101CC000391260E070E0CB01089571D008F481E032
:101CD000089504D06894B111D9C00895BCD088F09B
:101CE0009F5790F0B92F9927B751A0F0D1F0660F08
:101CF000771F881F991F1AF0BA95C9F712C0B13023
:101D000081F0C3D0B1E00895C0C0672F782F882735
:101D1000B85F39F0B93FCCF3869577956795B39561
:101D2000D9F73EF490958095709561957F4F8F4FD0
:101D30009F4F0895E89409C097FB3EF490958095D5
:101D4000709561957F4F8F4F9F4F9923A9F0F92F81
:101D500096E9BB279395F695879577956795B795FF
:101D6000F111F8CFFAF4BB0F11F460FF1BC06F5FE5
:101D70007F4F8F4F9F4F16C0882311F096E911C0F7
:101D8000772321F09EE8872F762F05C0662371F018
:101D900096E8862F70E060E02AF09A95660F771F2C
:101DA000881FDAF7880F9695879597F90895990F08
:101DB0000008550FAA0BE0E8FEEF16161706E80715
:101DC000F907C0F012161306E407F50798F0621B36
:101DD000730B840B950B39F40A2661F0232B242B0B
:101DE000252B21F408950A2609F4A140A6958FEF2A
:101DF000811D811D089597F99F6780E870E060E07C
:101E000008959FEF80EC089500240A941616170693
:101E100018060906089500240A94121613061406DB
:101E200005060895092E0394000C11F4882352F03E
:101E3000BB0F40F4BF2B11F460FF04C06F5F7F4FF6
:101E40008F4F9F4F089557FD9058440F551F59F0DD
:101E50005F3F71F04795880F97FB991F61F09F3F97
:101E600079F087950895121613061406551FF2CFC0
:101E70004695F1DF08C0161617061806991FF1CF10
:101E800086957105610508940895E894BB27662737
:101E90007727CB0197F908950BD0C4CFB5DF28F091
:101EA000BADF18F0952309F0A6CFABCF1124EECFFF
:101EB000CADFA0F3959FD1F3950F50E0551F629FA5
:101EC000F001729FBB27F00DB11D639FAA27F00D93
:101ED000B11DAA1F649F6627B00DA11D661F829FBA
:101EE0002227B00DA11D621F739FB00DA11D621F9F
:101EF000839FA00D611D221F749F3327A00D611DBC
:101F0000231F849F600D211D822F762F6A2F11249D
:101F10009F5750408AF0E1F088234AF0EE0FFF1FF0
:101F2000BB1F661F771F881F91505040A9F79E3F27
:101F3000510570F060CFAACF5F3FECF3983EDCF321
:101F4000869577956795B795F795E7959F5FC1F764
:101F5000FE2B880F911D9695879597F90895DB01C3
:101F60008F939F930E941A10BF91AF91A29F800DF3
:101F7000911DA39F900DB29F900D1124089597FB82
:101F8000072E16F4009407D077FD09D00E94251083
:101F900007FC05D03EF4909581959F4F089570956C
:101FA00061957F4F0895A1E21A2EAA1BBB1BFD016C
:101FB0000DC0AA1FBB1FEE1FFF1FA217B307E40728
:101FC000F50720F0A21BB30BE40BF50B661F771F80
:101FD000881F991F1A9469F7609570958095909560
:101FE0009B01AC01BD01CF010895052E97FB1EF4A6
:101FF00000940E940C1057FD07D00E94D30F07FCDD
:1020000003D04EF40C940C105095409530952195CA
:102010003F4F4F4F5F4F0895909580957095619514
:102020007F4F8F4F9F4F0895EE0FFF1F0590F49144
:10203000E02D09940E943910A59F900DB49F900D3A
:10204000A49F800D911D11240895AA1BBB1B51E173
:1020500007C0AA1FBB1FA617B70710F0A61BB70B18
:10206000881F991F5A95A9F780959095BC01CD01BD
:102070000895A29FB001B39FC001A39F700D811D61
:102080001124911DB29F700D811D1124911D089581
:10209000CF93DF938230910510F482E090E0E091DD
:1020A000D602F091D70220E030E0A0E0B0E0309717
:1020B00039F14081518148175907B8F0481759073D
:1020C00071F482819381109729F013969C938E93DB
:1020D00012972CC09093D7028093D60227C0211567
:1020E000310531F04217530718F0A901DB0101C097
:1020F000EF019A01BD01DF010280F381E02DD7CF0E
:1021000021153105F9F0281B390B2430310580F4F5
:102110008A819B816115710521F0FB019383828384
:1021200004C09093D7028093D602FE01329644C039
:10213000FE01E20FF31F81939193225031093983FD
:1021400028833AC02091D4023091D502232B41F448
:1021500020910201309103013093D5022093D402E3
:1021600020910001309101012115310541F42DB775
:102170003EB74091040150910501241B350BE091BD
:10218000D402F091D502E217F307A0F42E1B3F0B07
:102190002817390778F0AC014E5F5F4F24173507D9
:1021A00048F04E0F5F1F5093D5024093D4028193A5
:1021B000919302C0E0E0F0E0CF01DF91CF9108956C
:1021C000CF93DF93009709F487C0FC013297138205
:1021D0001282C091D602D091D702209781F420813B
:1021E0003181280F391F8091D4029091D502821736
:1021F000930779F5F093D502E093D4026DC0DE0128
:1022000020E030E0AE17BF0750F412964D915C917C
:1022100013979D014115510509F1DA01F3CFB383FD
:10222000A28340815181840F951F8A179B0771F407
:102230008D919C911197840F951F029691838083B5
:1022400012968D919C91139793838283211531056A
:1022500029F4F093D702E093D6023EC0D901139639
:10226000FC93EE9312974D915D91A40FB51FEA1761
:10227000FB0779F480819181840F951F0296D90123
:1022800011969C938E938281938113969C938E9347
:102290001297E0E0F0E08A819B81009719F0FE013F
:1022A000EC01F9CFCE01029628813981820F931F6C
:1022B0002091D4023091D5022817390769F430975C
:1022C00029F41092D7021092D60202C01382128211
:1022D000D093D502C093D402DF91CF910895A0E0AE
:1022E000B0E0E5E7F1E10C942714EC01CB01209775
:1022F00019F40E944810B8C0FE01E60FF71F9E01B6
:1023000022503109E217F30708F4ACC0D9010D914E
:102310001C91119706171707B8F00530110508F43E
:102320009FC0A801445051094617570708F498C0A8
:1023300002501109061B170B019311936D937C93A7
:10234000CF010E94E0108CC05B01A01AB10A4E01BF
:10235000800E911EA091D602B091D702612C712CF3
:1023600060E070E0109709F449C0A815B905C9F5F7
:10237000ED90FC901197670142E0C40ED11CCA1485
:10238000DB0478F147018A189B08640142E0C40E1F
:10239000D11C1296BC9012971396AC91B5E0CB1657
:1023A000D10440F0B282A38391828082D9018D93BF
:1023B0009C9309C00E5F1F4F0E0D1F1DF901118365
:1023C0000083EB2DFA2F6115710531F0DB011396B7
:1023D000FC93EE93129744C0F093D702E093D60299
:1023E0003FC06D917C9111976616770608F43B010A
:1023F000BD0112960D90BC91A02DB4CF6091D40276
:102400007091D50268157905E9F468167906D0F45B
:1024100040910001509101014115510541F44DB722
:102420005EB76091040170910501461B570BE417DC
:10243000F507C0F4F093D502E093D402F90191833B
:1024400080830EC00E9448107C01009759F0A801BB
:10245000BE010E946C12CE010E94E010C70104C0B0
:10246000CE0102C080E090E0CDB7DEB7EEE00C9484
:102470004314662777270C94A5121F93FC01992714
:102480008827BC01E89411911032E9F3193010F05B
:102490001E30C8F31B3251F01D3249F4689406C057
:1024A0000E949012610F711D811D911D1191105399
:1024B0001A30B0F33EF490958095709561957F4FFA
:1024C0008F4F9F4F1F9108959111A2C1803219F033
:1024D00089508550D0F70895FB01DC0102C00190BE
:1024E0000D9241505040D8F70895FC018191861714
:1024F00021F08823D9F7992708953197CF010895BE
:10250000FB01DC018D91019080190110D9F3990B29
:102510000895FB01DC0101900D920020E1F7089580
:10252000592F482F372F262F660F771F881F991F87
:10253000660F771F881F991F620F731F841F951FD7
:10254000660F771F881F991F0895A0E0B0E0EBEA9F
:10255000F2E10C9429148B016115710521F0DB0166
:102560008C9311969C93EC015E01BFEFAB1ABB0AF2
:102570007501C8808C2D90E00E946412892B11F0A7
:10258000E501F2CFEDE2CE1208C07E01F2E0EF0EDF
:10259000F11CC980DD24D39409C02BE2C21205C00E
:1025A0007E0142E0E40EF11CC980D12CE7012197A5
:1025B00043E050E06AEC70E0CE010E940B14892BDE
:1025C000C1F4239645E050E065EC70E0CE010E9436
:1025D0000B14892B09F425960115110519F0D80162
:1025E000CD93DC93D11006C160E070E080E89FE7F6
:1025F0000AC143E050E062EC70E0CE010E940B148F
:10260000892B59F40115110509F4F9C0B2E0EB0E5C
:10261000F11CF801F182E082F2C0F70160E070E0A5
:10262000CB01C0E0D0E07F01A0EDAA2EAC0C29E0E8
:102630002A1530F14D2D4260B42E2D2D2870D2FE7A
:1026400004C0211125C0219623C021112197A5E0A6
:10265000B0E09B01AC010E941A10660F771F881F23
:10266000991F6A0D711D811D911D6839A9E97A07AD
:102670008A07A9E19A0760F0BD2DB660BB2E08C09D
:102680002EEFA2120AC0D3FC50C04D2D4860B42ECC
:102690003196D701CC90DB2CC6CF2C2D2F7D253445
:1026A00009F043C0A081AD3241F4BD2DB061DB2EF5
:1026B0007F0122E0E20EF11C0CC07F01AB3231F051
:1026C0004FEFE41AF40A21E030E006C0A2E0EA0E7F
:1026D000F11CA18122E030E0A053AA3018F0E21AE8
:1026E000F30A23C0F70120E030E02038BCE03B07CC
:1026F0005CF4A901440F551F440F551F240F351FCB
:10270000220F331F2A0F311DAF014F5F5F4F7A0138
:10271000A081A053AA3010F4FA01E7CFD4FE03C081
:10272000319521953109C20FD31FD1FE09C0011582
:10273000110531F0E1E0EE1AF108D801ED92FC92BA
:102740000E949A0E2D2D2370233019F04B015C014D
:1027500006C04B015C01B7FAB094B7F8B09420E022
:1027600030E0A901C501B4010E94650E882309F477
:102770003EC0D7FF06C0D195C195D10901EE10E04A
:1027800002C009EF10E06801B8E1CB1AD10890E26D
:10279000E92EF12CCE15DF0574F0F8012591359165
:1027A00045915491C501B4010E944C0F4B015C014D
:1027B000CE19DF09EFCF04501109F594E7940C15F9
:1027C0001D0541F78A2D880F8B2D881F8F3F49F0FB
:1027D00020E030E0A901C501B4010E94650E81111D
:1027E00006C082E290E09093D9028093D802C5019E
:1027F000B40109C060E070E080E89FEF04C060E0D1
:1028000070E080EC9FE7CDB7DEB7ECE00C944514A8
:10281000992788270895FB01DC014150504088F03A
:102820008D9181341CF08B350CF4805E65916134A0
:102830001CF06B350CF4605E861B611171F3990B13
:102840000895881BFCCF2F923F924F925F926F9218
:102850007F928F929F92AF92BF92CF92DF92EF9230
:10286000FF920F931F93CF93DF93CDB7DEB7CA1BB1
:10287000DB0B0FB6F894DEBF0FBECDBF09942A88DC
:10288000398848885F846E847D848C849B84AA8484
:10289000B984C884DF80EE80FD800C811B81AA8111
:1028A000B981CE0FD11D0FB6F894DEBF0FBECDBFDC
:1028B000ED01089511E0C2E0D1E004C0FE010E94E4
:0E28C00016102296C430D107C9F7F894FFCF46
:1028CE000000DA0280000C0100000000474E47476E
:1028DE00004750524D00474E524D00200000000060
:1028EE00005E06E40BCA063D06B006E206000000D6
:0E28FE0000680AE40BEA09030AF509460A001D
:00000001FF
