:100000000C94ED010C9415020C9415020C9415023D
:100010000C9415020C9415020C9415020C94150204
:100020000C9415020C9415020C9415020C941502F4
:100030000C9415020C9415020C9415020C941502E4
:100040000C94492B0C9415020C94B8050C94F305F0
:100050000C9415020C9415020C9415020C941502C4
:100060000C9415020C9415026E1671167416771600
:100070007A167D16801683168616891610190019B1
:1000800002190419061908190A190C190E19821EE9
:10009000821E8F1EB71EAD1EC51ED31EE11EFB1E87
:1000A000261F084AD73B3BCE016E84BCBFFDC12F43
:1000B0003D6C74319ABD56833DDA3D00C77F11BE59
:1000C000D9E4BB4C3E916BAAAABE000000803F055C
:1000D000A84CCDB2D44EB93836A9020C50B991868D
:1000E00088083CA6AAAA2ABE000000803F0664EC4D
:1000F0001B3C04BC163E3BE5B93CC93C37C29E5A8A
:100100003D660498083EEA69AAAA3E000000803FC6
:10011000EAEB00EAEC00426F6F74696E672075705D
:100120003AEDF2F2F2F2F2F2F2F300576169746919
:100130006E6720666F727C4D41564C696E6B20680D
:100140006561727462656174732E2E2E00C8202062
:1001500020202020202020202020C900C82020206E
:10016000202020202020202020C97C00D8202020F2
:10017000202020202020202020D97C00C8202020E2
:10018000202020202020202020C97C00C8202020E2
:10019000202020202020202020C97C0005030405E9
:1001A0007C1513141500436F6E6669677572616282
:1001B0006C65204F73642076322E32004368617282
:1001C00020446F6E650A00526561647920666F7223
:1001D00020466F6E740A0055706461746520436830
:1001E000617253657400EEEEEEEEEEEEEEEE00EEB2
:1001F000EEEEEEEEEEEE00EEEEEEEEEEEEF000EEF9
:10020000EEEEEEEEF0F200EEEEEEEEF0F2F200EEDA
:10021000EEEEF0F2F2F200EEEEF0F2F2F2F200EEBA
:10022000F0F2F2F2F2F200EFF2F2F2F2F2F200F198
:10023000F2F2F2F2F2F20052657175657374696E52
:1002400067204461746153747265616D732E2E2E44
:1002500000454550524F4D206D617070696E6720AA
:100260006F75746461746564217C55706461746534
:10027000207769746820746865204F534420546F58
:100280006F6C2E0000407A10F35A00A0724E1809CD
:100290000010A5D4E80000E87648170000E40B54ED
:1002A000020000CA9A3B000000E1F50500008096BC
:1002B0009800000040420F000000A08601000000EE
:1002C000102700000000E8030000000064000000A8
:1002D00000000A00000000000100000000002C7671
:1002E000D888DC674F0823DFC1DFAE59E1B1B7968C
:1002F000E5E3E453C63AE651997696E8E6C28426E9
:10030000EB898C9B62ED407C6FFCEFBC9C9F40F2C4
:10031000BAA56FA5F490055A2AF75C936B6CF96740
:100320006DC11BFCE0E40D47FEF520E6B500D0ED05
:10033000902E0300943577050080841E080000206D
:100340004E0A000000C80C333333330F986E12830B
:100350001141EF8D2114893BE65516CFFEE6DB18DF
:10036000D1844B381BF77C1D901DA4BBE4242032A4
:1003700084725E228100C9F124ECA1E53D276E6103
:100380006E00696E660000000008000201000003B4
:100390000407000000000000000001020408102013
:1003A0004080010204081020010204081020040407
:1003B000040404040404020202020202030303030D
:1003C000030300000000250028002B0000000000AF
:1003D000240027002A00A61C452B11241FBECFEFA6
:1003E000D8E0DEBFCDBF15E0A0E0B1E0E4ECF4E67C
:1003F00002C005900D92A634B107D9F727E0A6E414
:10040000B5E001C01D92A934B207E1F713E0CAEDCF
:10041000D3E004C02297FE010E940331C63DD107FC
:10042000C9F70E94C92C0C9460320C94000028304B
:1004300008F027E03327DA01990F311D87FD91601D
:1004400000966105710539F432602E5F3D9330E30B
:100450002A95E1F708959F3F30F0803871056105D6
:1004600009F03C5F3C5F3D93913008F08068911D3E
:10047000DF93CF931F930F93FF92EF92192F987FE3
:100480009695E92F96959695E90FFF27E252FD4F35
:1004900099273327EE24FF24A701E701059008944C
:1004A000079428F4360FE71EF81E491F511D660FEA
:1004B000771F881F991F0694A1F70590079428F4C9
:1004C000E70EF81E491F561FC11D770F881F991F81
:1004D000661F0694A1F70590079428F4F80E491FAB
:1004E000561FC71FD11D880F991F661F771F0694BF
:1004F000A1F70590079420F4490F561FC71FD81F76
:10050000990F661F771F881F0694A9F7849110958D
:10051000177041F0D695C79557954795F794E7948E
:100520001A95C1F7E4E8F2E06894159015913591B9
:100530006591959105907FE27395E118F10A430B5F
:10054000560BC90BD009C0F7E10CF11E431F561F13
:10055000C91FD01D7EF4703311F48A95E6CFE8945C
:10056000015030F0080F0AF40027021708F4202F7A
:100570002395022F7A3328F079E37D932A95E9F7C2
:1005800010C07D932A9589F60694979567953795BF
:1005900017951794E118F10A430B560BC90BD009B4
:1005A00098F023957E9173957A3308F070E37C93ED
:1005B0002013B8F77E9170617D9330F0839571E3DD
:1005C0007D9370E32A95E1F71124EF90FF900F914E
:1005D0001F91CF91DF91992787FD90950895FA019A
:1005E000AA27283051F1203181F1E8946F936E7F72
:1005F0006E5F7F4F8F4F9F4FAF4FB1E03ED0B4E063
:100600003CD0670F781F891F9A1FA11D680F791FA3
:100610008A1F911DA11D6A0F711D811D911DA11DB4
:1006200020D009F468943F912AE0269F11243019C4
:10063000305D3193DEF6CF010895462F4770405D5F
:100640004193B3E00FD0C9F7F6CF462F4F70405D0E
:100650004A3318F0495D31FD4052419302D0A9F769
:10066000EACFB4E0A6959795879577956795BA9563
:10067000C9F700976105710508959B01AC010A2E29
:1006800006945795479537952795BA95C9F7620F00
:10069000731F841F951FA01D0895FB01908198274B
:1006A00080E1989F900111242927822F90E0382F14
:1006B0002227AC0163E0440F551F6A95E1F7242718
:1006C0003527418150E02427352774E0959587959B
:1006D0007A95E1F7282739273183208308950C94F0
:1006E00058320F931F93CF93DF938B01EC01080FC8
:1006F000191FC017D10769F0699180913707909150
:100700003807DC01ED91FC910190F081E02D099515
:10071000F0CFDF91CF911F910F9108959F92AF92EB
:10072000BF92CF92DF92EF92FF920F931F93CF93DE
:10073000DF93CDB7DEB72A970FB6F894DEBF0FBEB2
:10074000CDBFD62EB72EC42EA22E9EEF99834A83FC
:100750009091BD059B83209120012C832091210144
:100760002D838E839F5F9093BD05EFEFFFEFF8879A
:10077000EF838E010E5F1F4F7E0187E0E80EF11CB4
:100780000E151F0539F0B701F80181918F010E9404
:100790004D03F6CFEF81F885FA87E9870D2D1B2DE4
:1007A0009C2C9D0CBE01675F7F4F901631F0F801C5
:1007B00081918F010E944D03F5CF8A2D0E944D0338
:1007C00099858A859F83888766E070E0CE010196CF
:1007D0000E9471036C2D70E08D2D9B2D0E94710382
:1007E00062E070E0C7010E9471032A960FB6F89488
:1007F000DEBF0FBECDBFDF91CF911F910F91FF9054
:10080000EF90DF90CF90BF90AF909F90089520E041
:1008100030E040E152E46091B2067091B3068091FD
:10082000B4069091B5060E94942F20E030E044EB8E
:1008300053E40E94CF2D0E94F72F0E94372E9B0178
:100840002550310937FF02C02C5D3F4FE6E3F6E04B
:10085000D901A950BB4F8C9181932F5F3F4F243218
:10086000310514F020E030E086E0E134F80781F74C
:100870001092410608954F925F926F927F928F92ED
:100880009F92AF92BF92CF92DF92EF92FF921F930F
:10089000CF93DF93CDB7DEB728970FB6F894DEBFBE
:1008A0000FBECDBF8091CA06811129C08091D906A3
:1008B000823008F447C18091DF069091E006A09154
:1008C000E106B091E2068093C6069093C706A09316
:1008D000C806B093C9068091DB069091DC06A09112
:1008E000DD06B091DE068093C2069093C306A09306
:1008F000C406B093C50681E08093CA0623C1813047
:1009000009F020C11091A0061931A8F5C090AE06DB
:10091000D090AF06E090B006F090B106A701960126
:1009200060919C0670919D0680919E0690919F0615
:100930000E94012D9F7720E030E040E05FE30E94BD
:10094000892F18165CF41092A006C0929C06D092D3
:100950009D06E0929E06F0929F060DC01F5F1093C9
:10096000A006193141F4C092BE06D092BF06E092B3
:10097000C006F092C106C090C606D090C706E090AF
:10098000C806F090C906C701B6019F7725E33AEF84
:100990004EE85CE30E94942F0E94CC2D69837A83F9
:1009A0008B839C832091DF063091E0064091E10625
:1009B0005091E206C701B6010E94012D6B017C0136
:1009C0009F7720EC3BE649ED57E40E94942F2B01E2
:1009D0003C012091DB063091DC064091DD06509110
:1009E000DE066091C2067091C3068091C4069091A4
:1009F000C5060E94012D6D837E838F8398879F7724
:100A000020EC3BE649ED57E40E94942F29813A817E
:100A10004B815C810E94942F4B015C01A3019201E8
:100A2000C301B2010E94942F2B013C01A501940146
:100A3000C501B4010E94942F9B01AC01C301B20116
:100A40000E94022D0E941B300E94372E6093BA062E
:100A50007093BB068093BC069093BD068D809E80EC
:100A6000AF80B884B7FAB094B7F8B09429813A81CE
:100A70004B815C8160E070E080E89FE30E94CF2DB5
:100A80009B01AC01C701B6010E94942FA5019401FE
:100A90000E94752D20EE3EE245E652E40E94942F1E
:100AA00020E030E044EB52E40E94022D0E94372EF9
:100AB0006B017C0197FF06C088E6C80E81E0D81E56
:100AC000E11CF11CC701B601645B71098109910940
:100AD00097FF06C0C701B6016C547F4F8F4F9F4FE1
:100AE0000E946A2E2091B2063091B3064091B4065E
:100AF0005091B5060E94012D0E94372E97FF04C029
:100B000068597E4F8F4F9F4F0E946A2E20E030E041
:100B100044EB53E40E94CF2D20E030E040E851E464
:100B20000E94942F0E94F72F20E030E040E85FE31E
:100B30000E94022D0E943C2E6093B906613110F094
:100B40001092B90628960FB6F894DEBF0FBECDBF3F
:100B5000DF91CF911F91FF90EF90DF90CF90BF90EA
:100B6000AF909F908F907F906F905F904F9008957F
:100B70001F920F920FB60F9211242F933F934F9312
:100B80008F939F93EF93FF934091C60080912F071F
:100B900090913007019620913307309134078223DA
:100BA000932320913107309132078217930779F010
:100BB00020912F0730913007E0913507F0913607EB
:100BC000E20FF31F40839093300780932F07FF912C
:100BD000EF919F918F914F913F912F910F900FBE69
:100BE0000F901F9018951F920F920FB60F9211241D
:100BF0002F933F938F939F93EF93FF932091290718
:100C000030912A07809127079091280728173907E4
:100C1000E9F08091290790912A07E0912D07F09142
:100C20002E07E80FF91F80818093C6008091290765
:100C300090912A07019620912B0730912C0782234F
:100C4000932390932A078093290710C020912707A8
:100C5000309128078091290790912A072817390792
:100C600029F48091C1008F7D8093C100FF91EF91A5
:100C70009F918F913F912F910F900FBE0F901F90DA
:100C8000189561E086E00C94922CBF92CF92DF928F
:100C9000EF92FF920F931F93CF93DF93CDB7DEB701
:100CA00068970FB6F894DEBF0FBECDBF86E0E6E2D0
:100CB000F1E0DE01539601900D928A95E1F78CE008
:100CC000ECE2F1E0DE01119601900D928A95E1F7D8
:100CD0008E010F5F1F4F7E0183E1E80EF11C6E0154
:100CE000EDE0CE0ED11CBB24B394F801819191911B
:100CF0008F01F70121917F0130918E0640918F067F
:100D00009E878D874F87388B298BBA8A24E946E0E6
:100D1000B60182E40E948E030C151D0531F768961A
:100D20000FB6F894DEBF0FBECDBFDF91CF911F91FC
:100D30000F91FF90EF90DF90CF90BF900895CF93E9
:100D4000DF9300D000D0CDB7DEB720918E06309172
:100D50008F0685E090E09A8389833B832C832DED79
:100D600044E0BE016F5F7F4F8CE20E948E030F90C4
:100D70000F900F900F90DF91CF910895CF93DF9355
:100D800000D0CDB7DEB780918E0690918F06998303
:100D90008A8328EE42E0BE016F5F7F4F8DE20E94A2
:100DA0008E030F900F90DF91CF9108952F923F9275
:100DB0004F925F926F927F928F929F92AF92BF926B
:100DC000CF92DF92EF92FF921F93CF93DF93CDB735
:100DD000DEB7A5970FB6F894DEBF0FBECDBF81304A
:100DE0009105F9F034F4892B09F0A6C10E94BE06E2
:100DF000A3C18230910509F468C1039709F09CC131
:100E000020918E0630918F0680E090E0A0E1B1E461
:100E100089839A83AB83BC8380E090E8A4EDB4E43B
:100E200064C10E94BE060E94BE0661E070E080E0E0
:100E300090E00E949F0661E070E080E090E00E94F8
:100E40009F0684E680931B01EAE02E2E312C812C34
:100E5000912CF0E8AF2EFFE3BF2EC12CD12CA0E2E5
:100E6000EA2EA1E4FA2E80918E0690918F06898257
:100E70009A82AB82BC821D821E821F8218861986CE
:100E80001A861B861C861D861E861F86188A198A4E
:100E90001A8A1B8A1C8A1D8A1E8A1F8A188EC98E6E
:100EA000DA8EEB8EFC8E1E8E1D8E26E130E038A38E
:100EB0002F8F99A38AA31BA211E01CA31DA32EEFC1
:100EC00045E2BE016F5F7F4F87E20E948E038091F3
:100ED0008E0690918F0689829A82AB82BC821D8297
:100EE0001E821F82188619861A861B861C861D86FE
:100EF0001E861F86188A198A1A8A1B8A1C8A1D8ACE
:100F00001E8A1F8A188EC98EDA8EEB8EFC8E41E007
:100F100050E05E8F4D8F26E130E038A32F8F99A3EC
:100F20008AA31BA21CA31DA32EEF45E2BE016F5F87
:100F30007F4F87E20E948E0320E030E0A90160919C
:100F4000D1067091D2068091D3069091D4060E946A
:100F5000022D2B013C0120E030E0A9016091D50673
:100F60007091D6068091D7069091D8060E94022DE6
:100F7000E0918E06F0918F0620E030E040E450E4EE
:100F800029833A834B835C831D821E821F821886CD
:100F900019861A861B861C861D861E861F86188A41
:100FA000698B7A8B8B8B9C8B4D8A5E8A6F8A788E4D
:100FB000C98EDA8EEB8EFC8E42E050E05E8F4D8F54
:100FC00080E190E098A38F8FF9A3EAA31BA21CA253
:100FD0001DA32EEF45E2BE016F5F7F4F87E20E94A7
:100FE0008E0380918E0690918F0620E030E040EADB
:100FF00050E429833A834B835C831D821E821F82C7
:10100000188619861A861B861C861D861E861F86D4
:10101000188A198A1A8A1B8A1C8A1D8A1E8A1F8AA4
:10102000188E198E1A8E1B8E1C8E43E050E05E8F38
:101030004D8F24E130E038A32F8F99A38AA31BA200
:101040001CA21DA32EEF45E2BE016F5F7F4F87E21A
:101050000E948E0380918E0690918F0619821A82CB
:101060001B821C821D821E821F82188619861A8688
:101070001B861C861D861E861F86188A198A1A8A58
:101080001B8A1C8A1D8A1E8A1F8A188E198E1A8E28
:101090001B8E1C8E44E050E05E8F4D8F25E130E0CA
:1010A00038A32F8F99A38AA31BA21CA21DA32EEFE6
:1010B00045E2BE016F5F7F4F87E20E948E0331E001
:1010C000231A310809F0CFCE37C020918E06309117
:1010D0008F0680E090E0A0E1B1E489839A83AB833E
:1010E000BC8380E090E0A6E9B4E48D839E83AF8367
:1010F000B88719861A861B861C861D861E861F8643
:10110000188A198A1A8A1B8A1C8A1D8A1E8A1F8AB3
:10111000188E198E1A8E1B8E1C8E87EB90E09E8F78
:101120008D8F3F8F28A319A228E941E2BE016F5F8E
:101130007F4F8CE40E948E03A5960FB6F894DEBF15
:101140000FBECDBFDF91CF911F91FF90EF90DF9049
:10115000CF90BF90AF909F908F907F906F905F9057
:101160004F903F902F900895CF92DF92EF92FF9291
:101170000F931F932091F2053091F3058091100198
:1011800090911101232B21F49093F3058093F205A4
:10119000853A964070F08091F2059091F305843184
:1011A00095403CF484E68093460682E090E00E94FD
:1011B000D606809110019091110184319540A8F4D8
:1011C0008091F2059091F305853A964074F083E0A2
:1011D00090E00E94D60610924606109242061092A7
:1011E000430610924406109245068091100190919A
:1011F00011019093F3058093F20520914806211187
:1012000017C080910B0190910C018031974281F4BD
:101210008091060790910707813B44E0940744F0D2
:1012200090930C0180930B0181E08093480649C1A3
:1012300080914706811119C08091090190910A019E
:101240008031974209F03DC18091040790910507D4
:10125000813B24E092070CF434C190930A018093FF
:10126000090181E0809347062CC1222309F429C19A
:101270004091490680910B0190910C012091060745
:1012800030910707411170C0A901481B590B4D321D
:10129000514034F4821B930B8D3291400CF44BC0BF
:1012A0000E94932B0091F8051091F9052091FA0501
:1012B0003091FB05011511052105310549F46093B5
:1012C000F8057093F9058093FA059093FB05F9C032
:1012D0006B017C01C01AD10AE20AF30A49E8C4167C
:1012E00043E1D406E104F10430F16093F805709312
:1012F000F9058093FA059093FB0580910B0190917D
:101300000C012091060730910707821B930B8D3249
:1013100091401CF08FEF80930D018FEF80930601B9
:1013200081E08093490687E096E00E948F29109221
:1013300008011092070180910E0190910F012091F8
:10134000CB06853A964040F02111BBC081E08093E6
:10135000CB0682E090E0ADC0213009F0B2C010921F
:10136000CB0683E090E0A5C0281B390B40910D010E
:101370004203C001439F900D1124209108018D323A
:1013800041E0940704F12F5F20930801213059F4C4
:10139000809107018093060187E096E00E948F29E3
:1013A000109207012EC0233064F1809106018F3F17
:1013B00041F08091F6059091F7059093F5058093A3
:1013C000F40582E01CC0843D9E4FDCF4223049F4D9
:1013D0008091F4059091F5059093F7058093F605BB
:1013E0000BC0213049F48FEF8093060187E096E02F
:1013F0000E948F29109207018091080181508093EB
:101400000801809108018F3F91F410920801109219
:101410000701109249061092F8051092F9051092F2
:10142000FA051092FB0587E096E00E948F298091D3
:101430000407909105072091090130910A01821B50
:10144000930B209108012230E4F4209107018D32A2
:1014500031E0930714F02F5F04C0843D9E4F1CF4CD
:1014600021502093070180910701181614F0109263
:10147000070180910701893024F189E080930701F9
:1014800020C08D3261E0960734F08091F405909190
:10149000F505019708C0843D9E4F9CF48091F405AA
:1014A0009091F50501969093F5058093F40581E000
:1014B00090E01F910F91FF90EF90DF90CF900C94F0
:1014C000D6061F910F91FF90EF90DF90CF90089577
:1014D000FC01208181E090E0062E01C0880F0A9473
:1014E000EAF7442311F0822B02C080958223808387
:1014F0008081089580E893E00E946F038093F7064F
:1015000082E993E00E946F038093ED060895CF93E4
:10151000DF93EC0187E096E00E948B29C817D9077A
:101520003CF087E096E00E948129892B09F42397FB
:10153000CE01DF91CF91089580E090E00E946F038B
:1015400041E0811101C040E060E08CE896E00E943B
:10155000680A82E090E00E946F038093870684E02F
:1015600090E00E946F0390E00E94870A80938806B3
:1015700088E990E00E946F0341E0811101C040E0E2
:1015800064E08CE896E00E94680A8AE990E00E9494
:101590006F03809379068CE990E00E946F0390E0DE
:1015A0000E94870A80937A0686E090E00E946F038B
:1015B00041E0811101C040E061E08CE896E00E94CA
:1015C000680A88E090E00E946F03809385068AE0B5
:1015D00090E00E946F0390E00E94870A8093860645
:1015E0008CE090E00E946F0341E0811101C040E077
:1015F00062E08CE896E00E94680A8EE090E00E942B
:101600006F038093830680E190E00E946F0390E077
:101610000E94870A8093840682E190E00E946F0313
:1016200041E0811101C040E063E08CE896E00E9457
:10163000680A84E190E00E946F038093810686E14E
:1016400090E00E946F0390E00E94870A80938206D8
:101650008EE190E00E946F0341E0811101C040E003
:1016600065E08CE896E00E94680A80E290E00E94C3
:101670006F0380937F0682E290E00E946F0390E008
:101680000E94870A8093800684E290E00E946F03A4
:1016900041E0811101C040E066E08CE896E00E94E4
:1016A000680A86E290E00E946F0380937D0688E2DC
:1016B00090E00E946F0390E00E94870A80937E066C
:1016C0008AE290E00E946F0341E0811101C040E096
:1016D00067E08CE896E00E94680A8CE290E00E9445
:1016E0006F0380937B068EE290E00E946F0390E090
:1016F0000E94870A80937C0680E390E00E946F033B
:1017000041E0811101C040E060E08BE896E00E947A
:10171000680A82E390E00E946F038093770684E377
:1017200090E00E946F0390E00E94870A8093780601
:1017300086E390E00E946F0341E0811101C040E028
:1017400061E08BE896E00E94680A88E390E00E94DE
:101750006F03809375068AE390E00E946F0390E028
:101760000E94870A809376068CE390E00E946F03C4
:1017700041E0811101C040E062E08BE896E00E9408
:10178000680A8EE390E00E946F038093730680E402
:1017900090E00E946F0390E00E94870A8093740695
:1017A00088E490E00E946F0341E0811101C040E0B5
:1017B00064E08BE896E00E94680A8AE490E00E9468
:1017C0006F0380936F068CE490E00E946F0390E0BB
:1017D0000E94870A8093700682E490E00E946F0363
:1017E00041E0811101C040E063E08BE896E00E9497
:1017F000680A84E490E00E946F038093710686E497
:1018000090E00E946F0390E00E94870A8093720626
:1018100080E590E00E946F0341E0811101C040E04B
:1018200065E08BE896E00E94680A82E590E00E94FD
:101830006F0380936D0684E590E00E946F0390E053
:101840000E94870A80936E0686E590E00E946F03EF
:1018500041E0811101C040E066E08BE896E00E9423
:10186000680A88E590E00E946F0380936B068AE522
:1018700090E00E946F0390E00E94870A80936C06BC
:101880008EE990E00E946F0341E0811101C040E0C9
:1018900067E08BE896E00E94680A80EA90E00E9488
:1018A0006F038093690682EA90E00E946F0390E0E4
:1018B0000E94870A80936A0682E690E00E946F0386
:1018C00041E0811101C040E060E08AE896E00E94BA
:1018D000680A84E690E00E946F038093670686E6BC
:1018E00090E00E946F0390E00E94870A8093680650
:1018F0008EE690E00E946F0341E0811101C040E05C
:1019000062E08AE896E00E94680A80E790E00E9420
:101910006F038093650682E790E00E946F0390E07A
:101920000E94870A809366068CE890E00E946F030D
:1019300041E0811101C040E067E08AE896E00E9442
:10194000680A8EE890E00E946F038093630680E946
:1019500090E00E946F0390E00E94870A80936406E3
:1019600082E990E00E946F0341E0811101C040E0F4
:1019700061E08AE896E00E94680A84E990E00E94AB
:101980006F0380935F0686E990E00E946F0390E00A
:101990000E94870A8093600684E790E00E946F03AC
:1019A00041E0811101C040E063E08AE896E00E94D6
:1019B000680A86E790E00E946F038093610688E7DB
:1019C00090E00E946F0390E00E94870A8093620675
:1019D0008AE790E00E946F0341E0811101C040E07E
:1019E00064E08AE896E00E94680A8CE790E00E9432
:1019F0006F0380935D068EE790E00E946F0390E096
:101A00000E94870A80935E0680E890E00E946F0340
:101A100041E0811101C040E065E08AE896E00E9463
:101A2000680A82E890E00E946F0380935B0684E876
:101A300090E00E946F0390E00E94870A80935C060A
:101A400086E890E00E946F0341E0811101C040E010
:101A500066E08AE896E00E94680A88E890E00E94C2
:101A60006F03809359068AE890E00E946F0390E02C
:101A70000E94870A80935A0684EA90E00E946F03CE
:101A800041E0811101C040E060E089E896E00E94F9
:101A9000680A86EA90E00E946F038093570688EAFE
:101AA00090E00E946F0390E00E94870A809358069E
:101AB00080EB90E00E946F0341E0811101C040E0A3
:101AC00062E089E896E00E94680A82EB90E00E945A
:101AD0006F038093550684EB90E00E946F0390E0C3
:101AE0000E94870A8093560686EB90E00E946F035F
:101AF00041E0811101C040E063E089E896E00E9486
:101B0000680A88EB90E00E946F03809353068AEB8B
:101B100090E00E946F0390E00E94870A8093540631
:101B20008CEB90E00E946F0341E0811101C040E026
:101B300064E089E896E00E94680A8EEB90E00E94DB
:101B40006F038093510680EC90E00E946F0390E059
:101B50000E94870A8093520682EC90E00E946F03F5
:101B600041E0811101C040E067E089E896E00E9411
:101B7000680A84EC90E00E946F0380934F0686EC25
:101B800090E00E946F0390E00E94870A80935006C5
:101B900088EC90E00E946F0341E0811101C040E0B9
:101BA00065E089E896E00E94680A8AEC90E00E946D
:101BB0006F0380934B068CEC90E00E946F0390E0E3
:101BC0000E94870A80934C06089544E067E087E00E
:101BD00096E00E94A12987E096E00E94A72986EA64
:101BE00091E09F938F9387E096E09F938F930E945D
:101BF0005B220F900F900F900F9087E096E00C946F
:101C0000D629462F682F87E096E00E94A12987E019
:101C100096E00E94A7291F9285E28F9380914A0641
:101C20001F928F931F9281EE8F9388E391E09F9391
:101C30008F9387E096E09F938F930E944A228DB7FF
:101C40009EB70A960FB6F8949EBF0FBE8DBF87E071
:101C500096E00C94D629FF920F931F93CF93DF93B6
:101C60008091C2059091C3050196843691052CF4AC
:101C70009093C3058093C20504C01092C3051092CF
:101C8000C20541E061E087E096E00E94A12987E07B
:101C900096E00E94A7291F921F928091CB061F9267
:101CA0008F938091C1068F938091C0068F9380910E
:101CB000BF068F938091BE068F938091D0068F933D
:101CC0008091CF068F938091CE068F938091CD0621
:101CD0008F938091D8068F938091D7068F938091B0
:101CE000D6068F938091D5068F931F9283E88F93AA
:101CF0008091D4068F938091D3068F938091D206E2
:101D00008F938091D1068F931F9284E88F931F92B7
:101D10008CEB8F9380E491E09F938F93C7E0D6E0A4
:101D2000DF93CF930E944A22CE010E94D62945E03C
:101D300061E0CE010E94A129CE010E94A7291F9235
:101D40008DEB8F9381E791E09F938F93DF93CF93F8
:101D50000E944A228DB79EB784960FB6F8949EBF14
:101D60000FBE8DBFCE010E94D62946E061E0CE01B4
:101D70000E94A129CE010E94A7291F92B4E6FB2E42
:101D8000FF928091C3058F938091C2058F931F921C
:101D90008EEB8F930AE711E01F930F93DF93CF939E
:101DA0000E944A22CE010E94D62947E061E0CE017E
:101DB0000E94A129CE010E94A7291F921F921F9263
:101DC0001F921F92FF921F928BEC8F931F930F9382
:101DD000DF93CF930E944A22CE010E94D62948E089
:101DE00061E0CE010E94A129CE010E94A7291F9285
:101DF0001F921F921F9282E891E09F938F93DF932F
:101E0000CF930E944A22CE010E94D62949E061E088
:101E1000CE010E94A129CE010E94A7291F921F92E4
:101E20001F921F928CE891E09F938F93DF93CF9343
:101E30000E944A228DB79EB786960FB6F8949EBF31
:101E40000FBE8DBFCE010E94D6294AE061E0CE01CF
:101E50000E94A129CE010E94A729809116071F92F6
:101E60008F9387EC91E09F938F93DF93CF930E94A2
:101E70004A22CE010E94D6294BE061E0CE010E94A9
:101E8000A129CE010E94A729809145068F938091B8
:101E900044068F93809143068F93809142068F93DF
:101EA000809146061F928F9386E991E09F938F93CE
:101EB000DF93CF930E944A228DB79EB740960FB60C
:101EC000F8949EBF0FBE8DBFCE01DF91CF911F91C1
:101ED0000F91FF900C94D6292F923F924F925F92D0
:101EE0006F927F928F929F92AF92BF92CF92DF922A
:101EF000EF92FF920F931F93CF93DF93CDB7DEB78F
:101F00002A970FB6F894DEBF0FBECDBF0E94932B69
:101F10006B017C018091E7069091E806A091E906AB
:101F2000B091EA068C159D05AE05BF0508F077C196
:101F300087E096E00E948F2928ECC20ED11CE11C9C
:101F4000F11CC092E706D092E806E092E906F09212
:101F5000EA068CED90E00E946F03082F10E080915C
:101F600006018F3F09F067C0A12CB12CE12CF12CA8
:101F7000CE0101966C011E0199E0290E311C480129
:101F80008C189D08D401A352BF4F4D01E016F106F5
:101F90000CF022C141E04E0D61E087E096E00E9426
:101FA000A12987E096E00E94A729EAECF1E0D6019A
:101FB00089E001900D928A95E1F7809107019927B8
:101FC00087FD9095E816F90611F020E001C02AEB94
:101FD000260134016A0C7B1CC201860D971D2A87DD
:101FE0000E946F03F20181932F012A85E215F30508
:101FF00099F7DF92CF92822F992787FD90959F9333
:102000002F93AEE9B1E0BF93AF9387E096E09F9343
:102010008F930E944A2287E096E00E94D629FFEF24
:10202000EF1AFF0A28E0A20EB11C0FB6F894DEBF2B
:102030000FBECDBFABCF48019DED890E911C23E0B3
:10204000000F111F2A95E1F7800E911EC82EDD2486
:10205000C7FCD094C60183529F4F0E946F03082F84
:1020600010E0E12CF12CEC14FD0474F4C701835250
:102070009F4F0E946F03AAE08A9F800C911C11243D
:10208000BFEFEB1AFB0AEFCF8AECC82E85E0D82E03
:10209000FE0131965F018E1A9F0AE12CF12C99E026
:1020A000292E3E01F9E06F0E711CE016F1060CF0CE
:1020B00093C0332433943E0C432D61E087E096E0D7
:1020C0000E94A12987E096E00E94A729EAECF1E0AE
:1020D000D501822D01900D928A95E1F7809107013B
:1020E000992787FD9095E816F90611F020E001C0C8
:1020F0002AEB2501C201880D991D2A870E946F03D2
:10210000D2018D932D012A85A615B70599F7BF92A7
:10211000AF92822F992787FD90959F932F93AEE9D9
:10212000B1E0BF93AF9387E096E09F938F930E94B7
:102130004A2287E096E00E94D629432D6FE087E08F
:1021400096E00E94A12987E096E00E94A72980914D
:102150000701992787FD90950FB6F894DEBF0FBE53
:10216000CDBFE816F90611F020E005C08091080106
:102170008230D4F32BEBD6018C9111969C91119760
:1021800012963C91129713964C91B4E0CB0ED11C51
:102190004F933F939F938F93822F992787FD90951D
:1021A0009F932F93A3EAB1E0BF93AF9387E096E0AC
:1021B0009F938F930E944A2287E096E00E94D6293F
:1021C000FFEFEF1AFF0A2AE0820E911C0FB6F89477
:1021D000DEBF0FBECDBF69CF46E0400F61E087E0B4
:1021E00096E00E94A12987E096E00E94A7298091AD
:1021F0001B011F928F9388EA91E09F938F9387E052
:1022000096E09F938F930E944A2287E096E00E9477
:10221000D6290F900F900F900F900F900F902A9645
:102220000FB6F894DEBF0FBECDBFDF91CF911F91E7
:102230000F91FF90EF90DF90CF90BF90AF909F9065
:102240008F907F906F905F904F903F902F90089568
:10225000CF93DF93462F682F87E096E00E94A12955
:1022600087E096E00E94A7298091F6061F928F933F
:1022700020E030E048EC52E460910E0770910F07C7
:1022800080911007909111070E94CF2D2091FC069C
:102290003091FD064091FE065091FF060E94942F5A
:1022A0009F938F937F936F931F92C5E4CF931F9259
:1022B000D1E4DF931F928DE68F9380910D078F936A
:1022C00080910C078F9380910B078F9380910A0761
:1022D0008F931F92CF931F9288E58F938091F5067D
:1022E0001F928F932091F8063091F9064091FA06DB
:1022F0005091FB06609112077091130780911407AB
:10230000909115070E94942F9F938F937F936F93C3
:102310001F92CF931F92DF931F9280EB8F93909128
:102320001B079F9390911A079F931F9292E49F938C
:102330001F9294E59F931F928F9390911D079F93F7
:1023400090911C079F931F9298E49F931F929EE485
:102350009F931F928F93209121072F932091200705
:102360002F9320911F072F9320911E072F931F92C9
:1023700020E52F931F929F931F928F9380912507A3
:102380008F93809124078F93809123078F9380915F
:1023900022078F931F9282E58F931F929F938CE564
:1023A00092E09F938F9387E096E09F938F930E9494
:1023B0004A228DB79EB78A5B9F4F0FB6F8949EBF97
:1023C0000FBE8DBF87E096E0DF91CF910C94D629A8
:1023D000462F682F87E096E00E94A12987E096E0CB
:1023E0000E94A7291F928FE88F936091EF0670914A
:1023F000F006882777FD8095982F0E946A2E2AE0A4
:1024000037ED43E25CE30E94942F9F938F937F9379
:102410006F931F9284EE8F9380EB92E09F938F9344
:1024200087E096E09F938F930E944A228DB79EB7D4
:102430000C960FB6F8949EBF0FBE8DBF87E096E056
:102440000C94D629462F682F87E096E00E94A12998
:1024500087E096E00E94A7298091F5061F928F934E
:102460002091F8063091F9064091FA065091FB064A
:102470006091AE067091AF068091B0069091B10662
:102480000E94942F9F938F937F936F931F9286EE5A
:102490008F938AEB92E09F938F9387E096E09F93D0
:1024A0008F930E944A228DB79EB70C960FB6F89470
:1024B0009EBF0FBE8DBF87E096E00C94D629462FB5
:1024C000682F87E096E00E94A12987E096E00E94AD
:1024D000A7291F9288E88F938091E6068F938091B9
:1024E000E5068F938091E4068F938091E3068F93A6
:1024F0001F9286E18F9384EC92E09F938F9387E005
:1025000096E09F938F930E944A228DB79EB70C96B8
:102510000FB6F8949EBF0FBE8DBF87E096E00C9477
:10252000D629462F682F87E096E00E94A12987E0F0
:1025300096E00E94A7298091F5061F928F93209123
:10254000BE063091BF064091C0065091C106609111
:10255000AE067091AF068091B0069091B1060E94D0
:10256000012D2091F8063091F9064091FA0650911C
:10257000FB060E94942F9F938F937F936F931F92DC
:1025800087EE8F938AEB92E09F938F9387E096E09C
:102590009F938F930E944A228DB79EB70C960FB6D9
:1025A000F8949EBF0FBE8DBF87E096E00C94D629AD
:1025B000462F682F87E096E00E94A12987E096E0E9
:1025C0000E94A7298091F6061F928F932091FC0606
:1025D0003091FD064091FE065091FF0660919806ED
:1025E0007091990680919A0690919B060E94942F73
:1025F0009F938F937F936F931F9289EE8F9384ECB9
:1026000092E09F938F9387E096E09F938F930E9431
:102610004A228DB79EB70C960FB6F8949EBF0FBE98
:102620008DBF87E096E00C94D629462F682F87E06F
:1026300096E00E94A12987E096E00E94A729809158
:10264000F6061F928F932091FC063091FD06409173
:10265000FE065091FF06609117017091180180915C
:10266000190190911A010E94942F9F938F937F9349
:102670006F931F9288EE8F9384EC92E09F938F93D9
:1026800087E096E09F938F930E944A228DB79EB772
:102690000C960FB6F8949EBF0FBE8DBF87E096E0F4
:1026A0000C94D629462F682F87E096E00E94A12936
:1026B00087E096E00E94A7291F9285E28F93809180
:1026C00097068F93809196068F931F9287E88F933A
:1026D00085EF92E09F938F9387E096E09F938F938F
:1026E0000E944A228DB79EB70A960FB6F8949EBFF5
:1026F0000FBE8DBF87E096E00C94D629462F682F39
:1027000087E096E00E94A12987E096E00E94A72931
:102710001F9285E28F932091EE06822F992787FDE5
:1027200090959F932F931F9289EB8F9385EF92E063
:102730009F938F9387E096E09F938F930E944A2206
:102740008DB79EB70A960FB6F8949EBF0FBE8DBF89
:1027500087E096E00C94D629462F682F87E096E014
:102760000E94A12987E096E00E94A7290E94932B4E
:1027700028EE33E040E050E00E94C030CA01B901C9
:102780000E94682E60931C0170931D0180931E01AE
:1027900090931F010E94372E2CE330E0CB01B9014A
:1027A0000E94AC309F938F931F928AE38F93CB014B
:1027B000B9010E94AC309F938F931F9283EB8F934C
:1027C0008FEF92E09F938F9387E096E09F938F9394
:1027D0000E944A228DB79EB70C960FB6F8949EBF02
:1027E0000FBE8DBF87E096E00C94D629462F682F48
:1027F00087E096E00E94A12987E096E00E94A72941
:102800008091F5061F928F936091BA067091BB0676
:102810008091BC069091BD060E946A2E2091F80618
:102820003091F9064091FA065091FB060E94942FD0
:102830009F938F937F936F931F928FE18F938AEB78
:1028400092E09F938F9387E096E09F938F930E94EF
:102850004A228DB79EB70C960FB6F8949EBF0FBE56
:102860008DBF87E096E00C94D629462F682F87E02D
:1028700096E00E94A12987E096E00E94A7298CE9B2
:1028800091E09F938F9387E096E09F938F930E94B0
:102890005B220F900F900F900F9087E096E00C94C2
:1028A000D629462F682F87E096E00E94A12987E06D
:1028B00096E00E94A7291F9281EB8F931F9280EBD5
:1028C0008F932091B806822F992787FD90959F932B
:1028D0002F938BE093E09F938F9387E096E09F93F5
:1028E0008F930E944A228DB79EB70A960FB6F8942E
:1028F0009EBF0FBE8DBF87E096E00C94D629462F71
:10290000682F87E096E00E94A12987E096E00E9468
:10291000A7291F9282EB8F931F9280EB8F932091B8
:10292000B706822F992787FD90959F932F938BE071
:1029300093E09F938F9387E096E09F938F930E94FD
:102940004A228DB79EB70A960FB6F8949EBF0FBE67
:102950008DBF87E096E00C94D629462F682F87E03C
:1029600096E00E94A12987E096E00E94A7291F9285
:102970008EE88F938091F4068F938091F3068F9366
:102980008091F2068F938091F1068F931F9282EED1
:102990008F9380EB92E09F938F9387E096E09F93D5
:1029A0008F930E944A228DB79EB70C960FB6F8946B
:1029B0009EBF0FBE8DBF87E096E00C94D629CF93C3
:1029C000DF9300D0CDB7DEB76A8389830E94E50D1F
:1029D0004A818981682F87E096E00E94A12987E0DB
:1029E00096E00E94A7298BE291E09F938F9387E066
:1029F00096E09F938F930E945B2287E096E00F9072
:102A00000F900F900F900F900F90DF91CF910C943B
:102A1000D629CF93DF93462F682F87E096E00E9458
:102A2000A12987E096E00E94A7298091D9068230EB
:102A300030F08250823028F4C6E1D3E002C0C3E116
:102A4000D3E0DF93CF9380EA91E09F938F9387E069
:102A500096E09F938F930E944A220F900F900F90C1
:102A60000F900F900F9087E096E0DF91CF910C943C
:102A7000D629462F682F87E096E00E94A12987E09B
:102A800096E00E94A7298091DA061F928F931F92E9
:102A90008FE08F9389E193E09F938F9387E096E097
:102AA0009F938F930E944A228DB79EB708960FB6C8
:102AB000F8949EBF0FBE8DBF87E096E00C94D62998
:102AC000462F682F87E096E00E94A12987E096E0D4
:102AD0000E94A7298091DE068F938091DD068F9357
:102AE0008091DC068F938091DB068F931F9284E8A0
:102AF0008F938091E2068F938091E1068F9380916E
:102B0000E0068F938091DF068F931F9283E88F9367
:102B10008FE193E09F938F9387E096E09F938F934D
:102B20000E944A228DB79EB740960FB6F8949EBF7A
:102B30000FBE8DBF87E096E00C94D629462F682FF4
:102B400087E096E00E94A12987E096E00E94A729ED
:102B50001F9280EB8F938091B5068F938091B4067E
:102B60008F938091B3068F938091B2068F9388EAFA
:102B700092E09F938F9387E096E09F938F930E94BC
:102B80004A228DB79EB70A960FB6F8949EBF0FBE25
:102B90008DBF87E096E00C94D629462F682F87E0FA
:102BA00096E00E94A12987E096E00E94A7291F9243
:102BB00081ED8F9386E396E09F938F931F9280ED34
:102BC0008F9381E393E09F938F938FE393E09F93A1
:102BD0008F9387E096E09F938F930E944A228DB750
:102BE0009EB70C960FB6F8949EBF0FBE8DBF87E0C0
:102BF00096E00C94D629462F682F87E096E00E9435
:102C0000A12987E096E00E94A72986E191E09F93A1
:102C10008F9387E096E09F938F930E945B220F90A3
:102C20000F900F900F9087E096E00C94D6292F928A
:102C30003F924F925F926F927F928F929F92AF924C
:102C4000BF92CF92DF92FF920F931F93CF93DF93A8
:102C50006CE070E085E090E00E94FB1564EF71E0AD
:102C600080E090E00E94C22BF12CC0E0D0E047EF62
:102C7000242E41E0342E5FEF452E51E0552E67E0C3
:102C8000662E62E0762E0FE012E07FE1C72E72E042
:102C9000D72EE7E2AE2EE2E0BE2EFFE28F2EF2E06C
:102CA0009F2ECE016AEF70E00E94AC30892B09F0B4
:102CB00042C0F3944CE061E187E096E00E94A129D4
:102CC00087E096E00E94A7298F2D90E08A30910539
:102CD00070F5FC01EC5CFF4F0C9401319F928F92D8
:102CE0001CC0BF92AF9219C0DF92CF9216C0A7E16D
:102CF000B2E011C01F930F9310C07F926F920DC06E
:102D00005F924F920AC03F922F9207C0AFEEB1E0A0
:102D100002C0A6EEB1E0BF93AF9387E096E09F9329
:102D20008F930E945B220F900F900F900F9087E07F
:102D300096E00E94D62961E070E080E090E00E9479
:102D4000C22B2196C13D97E0D90709F0AACFDF91A8
:102D5000CF911F910F91FF90DF90CF90BF90AF90D8
:102D60009F908F907F906F905F904F903F902F90AB
:102D70000895462F682F87E096E00E94A12987E0FA
:102D800096E00E94A72980919506882369F083E147
:102D900091E09F938F9387E096E09F938F930E949B
:102DA0005B22109295060AC080E191E09F938F9379
:102DB00087E096E09F938F930E945B220F900F9085
:102DC0000F900F9087E096E00C94D629462F682F3D
:102DD00087E096E00E94A12987E096E00E94A7295B
:102DE0008091F5061F928F936091170770911807D5
:102DF00080E090E00E94682E2091F8063091F9065C
:102E00004091FA065091FB060E94942F9F938F9356
:102E10007F936F931F921F92809116071F928F933B
:102E20001F9287E58F9389E493E09F938F9387E0C8
:102E300096E09F938F930E944A228DB79EB740964B
:102E40000FB6F8949EBF0FBE8DBF87E096E00C943E
:102E5000D629462F682F87E096E00E94A12987E0B7
:102E600096E00E94A72980919006823091F580918A
:102E7000EC06882309F47CC0813009F47FC08230DD
:102E800009F458C0833009F488C0843009F48EC036
:102E9000853009F488C0863009F482C0873009F48F
:102EA00064C0883009F449C0893009F449C08A30C7
:102EB00009F449C08B3009F449C08D3009F449C088
:102EC0008E3009F449C08F3009F464C0803179F53F
:102ED00046C0813061F58091EC06882309F442C038
:102EE000813009F442C0823009F442C0833009F4D1
:102EF00042C0843009F442C0853009F442C08630B3
:102F000009F442C0873009F442C0883009F442C055
:102F10008A3009F442C08B3009F442C08C3009F485
:102F200042C08F3009F442C0803109F442C085E1CB
:102F300093E041C083EA93E03EC08AE893E03BC05F
:102F400085E893E038C080E893E035C08BE793E0F4
:102F500032C086E793E02FC081E793E02CC087E67C
:102F600093E029C088EA93E026C082E693E023C07C
:102F70008DE593E020C081EC93E01DC088E593E0EF
:102F80001AC08CEB93E017C087EB93E014C082EB80
:102F900093E011C08CE693E00EC08EE993E00BC085
:102FA0008FE893E008C084E993E005C089E993E0E5
:102FB00002C08DEA93E09F938F931F9280EE8F93D0
:102FC0008EE991E09F938F9387E096E09F938F9394
:102FD0000E944A228DB79EB708960FB6F8949EBFFE
:102FE0000FBE8DBF87E096E00C94D629813150F456
:102FF00090E0FC01EA51FC4F4081FC01EB52FC4F98
:10300000508102C050E040E0252F332727FD309546
:10301000842F992787FD90956130A1F53F935F93A9
:103020009F934F938091F6061F928F932091FC06F9
:103030003091FD064091FE065091FF066091AA0670
:103040007091AB068091AC069091AD060E94942FD2
:103050009F938F937F936F931F928CEF8F9386EC48
:1030600093E09F938F9387E096E09F938F930E94C6
:103070004A228DB79EB740960FB6F8949EBF0FBEFA
:103080008DBF08953F935F939F934F938EE093E09E
:103090009F938F9387E096E09F938F930E944A229D
:1030A0008DB79EB708960FB6F8949EBF0FBE8DBF22
:1030B0000895462F682F87E096E00E94A12987E0B7
:1030C00096E00E94A7292091B2063091B306409164
:1030D000B4065091B5066091A2067091A306809146
:1030E000A4069091A5060E94012D20E030E044EB5B
:1030F00053E40E94CF2D20E030E040E851E40E94EC
:10310000942F0E94F72F20E030E040E85FE30E9418
:10311000022D0E94372E67FD605F6093A10661E07B
:103120008091A1060E94F61787E096E00C94D629BC
:10313000462F682F87E096E00E94A12987E096E05D
:103140000E94A72960911A0770911B07882777FDB5
:103150008095982F0E946A2E2091B2063091B30676
:103160004091B4065091B5060E94012D20E030E058
:1031700044EB53E40E94CF2D20E030E040E851E4DE
:103180000E94942F0E94F72F20E030E040E85FE398
:103190000E94022D0E94372E67FD605F6093190721
:1031A00060E0809119070E94F61787E096E00C9482
:1031B000D629462F682F87E096E00E94A12987E054
:1031C00096E00E94A72960E08091B9060E94F61758
:1031D00087E096E00C94D629CF93DF93D42F462F27
:1031E000682F87E096E00E940A2A4D2F50E0FA01EE
:1031F0003197E930F105A8F4E25CFF4F0C940131FE
:10320000C7E00FC0C8E00DC0C9E00BC0CAE009C0EC
:10321000CBE007C0CCE005C0CDE003C0CEE001C0EC
:10322000C6E08C2F992787FD90959F93CF9380E1DF
:1032300093E09F938F9387E096E09F938F930E94F4
:103240004A220F900F900F900F900F900F90DF91E8
:10325000CF9108952F923F924F925F926F927F92FB
:103260008F929F92AF92BF92CF92DF92EF92FF9296
:103270000F931F93CF93DF93CDB7DEB76A970FB647
:10328000F894DEBF0FBECDBF898F6A8F6091B806FC
:10329000262F332727FD3095C90137FF04C0882723
:1032A0009927821B930B8A35910581F4B9010E94FD
:1032B000AC30882777FD8095982F0E946A2E21EEEA
:1032C0003AEF43EB52E40E94942F07C0772767FD43
:1032D0007095872F972F0E946A2E25E33AEF4EE8CC
:1032E0005CEB0E94942F4B015C016091B706262F86
:1032F000332727FD3095C90137FF04C08827992758
:10330000821B930B8A35910581F4B9010E94AC3080
:10331000882777FD8095982F0E946A2E21EE3AEF3C
:1033200043EB52E40E94942F07C0772767FD709506
:10333000872F972F0E946A2E25E33AEF4EE85CE331
:103340000E94942F6B017C01C501B4010E945C3086
:1033500020E030E044E352E40E94942F0E94F72FD3
:103360000E94372E4B01C701B6010E945C302B0131
:103370003C01AE014F5F5F4F1A010EEB1FEFAA2415
:1033800097FCA094BA2CB801882777FD8095982FD8
:103390000E946A2E9B01AC01C301B2010E94942FCE
:1033A0006B017C01C501B4010E946A2E9B01AC0136
:1033B000C701B6010E94022D20E030E044E352E450
:1033C0000E94022D20E030E040E85FE30E94012DE2
:1033D0000E94372EF101619371931F01045F1F4F0B
:1033E0000E34110581F6AE014F5F5F4F6A0100E0B8
:1033F00010E0BEEEAB2EBB24BA948EEE982E8A8CD3
:103400008A94F601219131916F01C90101978935A3
:10341000910578F5B5010E94AC307B01F5E0EF0E27
:10342000F11C692DA7016403C001659F900D112453
:10343000855A9F4FF901E81BF90BCF01F7FD019663
:10344000BC0175956795882777FD8095982F0E9418
:103450006A2E0E94F72F0E94372EAB01611571056D
:1034600011F441E050E0E80C6E2D898D800F0E9430
:10347000EC180F5F1F4F0C30110519F66A960FB646
:10348000F894DEBF0FBECDBFDF91CF911F910F919A
:10349000FF90EF90DF90CF90BF90AF909F908F9074
:1034A0007F906F905F904F903F902F900895CF92B4
:1034B000DF92FF920F931F93CF93DF931F92CDB7AD
:1034C000DEB78C01F62E462F682F87E096E07983D1
:1034D0000E94A12987E096E00E94A7298CE891E04C
:1034E0009F938F9397E0C92E96E0D92EDF92CF92CB
:1034F0000E945B228CE791E09F938F93DF92CF92A3
:103500000E945B228CE691E09F938F93DF92CF9293
:103510000E945B228CE591E09F938F93DF92CF9284
:103520000E945B228DE491E09F938F93DF92CF9274
:103530000E945B22C6010E94D6290FB6F894DEBF16
:103540000FBECDBF6F2D7981C80101960F90DF911D
:10355000CF911F910F91FF90DF90CF900C942A197B
:10356000CF92DF92EF92FF920E94932B0E94682EDF
:103570006B017C0120E030E849E055E46091910660
:103580007091920680919306909194060E94022D6C
:103590009B01AC01C701B6010E94C82D87FF73C112
:1035A00080914906813031F4FF90EF90DF90CF9009
:1035B0000C946C0F80918C0680FF08C06091880687
:1035C00070E08091870690E00E94351480918C060F
:1035D00081FF08C06091860670E08091850690E0CA
:1035E0000E94511480918C0682FF08C0609184066D
:1035F00070E08091830690E00E947F1480918C0699
:1036000083FF08C06091820670E08091810690E09F
:103610000E94AD1480918C0685FF08C060918006E1
:1036200070E080917F0690E00E94391580918C06B1
:1036300086FF08C060917E0670E080917D0690E074
:103640000E94091580918C0690E0880F892F881FB1
:10365000990B892B41F060917C0670E080917B068C
:1036600090E00E94601580918C0684FF08C06091F4
:103670007A0670E08091790690E00E947E13809136
:103680008B0680FF08C06091780670E08091770615
:1036900090E00E94CD1580918B0681FF08C060915B
:1036A000760670E08091750690E00E949E158091EC
:1036B0008B0682FF08C06091740670E080917306EB
:1036C00090E00E94B9168091CA068130C1F48091C1
:1036D0008B0684FF08C06091700670E080916F06D1
:1036E00090E00E94F61380918B0683FF08C06091E2
:1036F000720670E08091710690E00E94D918809166
:103700008B0690E0880F892F881F990B892B41F039
:1037100060916A0670E08091690690E00E94AC13A7
:1037200080918B0685FF08C060916E0670E08091E5
:103730006D0690E00E94981880918B0686FF08C065
:1037400060916C0670E080916B0690E00E94E61636
:1037500080918A0682FF08C06091660670E08091C1
:10376000650690E00E94221280918A0690E0880F00
:10377000892F881F990B892B41F06091640670E0B6
:103780008091630690E00E94911280918A0683FFE7
:1037900008C06091620670E08091610690E00E942E
:1037A000D81280918A0681FF08C06091600670E09F
:1037B00080915F0690E00E94151380918A0684FF35
:1037C00008C060915E0670E080915D0690E00E9406
:1037D000521380918A0685FF08C060915C0670E0F4
:1037E00080915B0690E00E94291780918A0686FFEF
:1037F00008C060915A0670E08091590690E00E94DE
:10380000571A80918A0680FF08C06091680670E0B0
:103810008091670690E00E94E8118091890682FFFE
:1038200008C06091560670E08091550690E00E94B5
:1038300059188091890683FF08C06091540670E092
:103840008091530690E00E945F128091890684FF68
:1038500008C06091520670E08091510690E00E948D
:1038600028118091890686FF08C060914E0670E09D
:1038700080914D0690E00E94010EFF90EF90DF9046
:10388000CF900C942B0E87E096E00E948F2981E068
:10389000809316016AE070E085E090E0FF90EF9081
:1038A000DF90CF900C94DF140E94070487E096E02D
:1038B0000E943B040C94B01A8AE793E00E946F03C5
:1038C00081111DC086E696E6A6E6B0E48093FC066C
:1038D0009093FD06A093FE06B093FF0680E090E073
:1038E000A0E8BFE38093F8069093F906A093FA0648
:1038F000B093FB0681E88093F6068DE81CC082E554
:1039000098EBAEE0B0E48093FC069093FD06A093A4
:10391000FE06B093FF0685E89BEEA1E5B0E4809338
:10392000F8069093F906A093FA06B093FB068BEF86
:103930008093F60686E68093F506089587E096E084
:103940000E948F290E94E50D0C945C1C8F92AF920F
:10395000CF92EF92FF920F931F9350E2852E68E96A
:10396000A62ECC24C39471ECE72EF12C00EC10E0D1
:1039700024EC30E045EC50E060E089E196E00E9404
:10398000452387E096E00E9457291092FD0510928A
:10399000FE051092FF05109200061092010610928B
:1039A0000206109203061092040610920606109268
:1039B00005061092FC051F910F91FF90EF90CF909C
:1039C000AF908F9008950F9361E086E00E94592C8C
:1039D00040E051EE60E070E089E196E00E946C22E8
:1039E00089E196E090933807809337070E9441065B
:1039F00087E096E00E944E2A0E949E1C64EF71E0D0
:103A000080E090E00E94C22B82EF93E00E946F035F
:103A10008C34E9F049E063E087E096E00E94A12958
:103A200087E096E00E94A72981E592E09F938F931B
:103A300087E096E09F938F930E945B2287E096E059
:103A40000E94D6290F900F900F900F90FFCF0E94E9
:103A50007A0A0E949C0A0E94171600E028E730E0CC
:103A600040E050E064E57CE18CEF95E00E94C028E6
:103A700087E096E00E948F298CEF95E00F910C94DF
:103A8000D628BF92CF92DF92EF92FF920F931F93AF
:103A9000CF93DF93CDB7DEB7C854D1090FB6F894F2
:103AA000DEBF0FBECDBF87E096E00E948F2949E0C0
:103AB00066E087E096E00E94A12987E096E00E94F8
:103AC000A72987ED91E09F938F9387E096E09F93DE
:103AD0008F930E945B2287E096E00E94D62987ECB4
:103AE00091E09F938F9389E196E09F938F930E943B
:103AF0005B220FB6F894DEBF0FBECDBFE12CF12CD8
:103B000000E010E0ECEBCE2EE1E0DE2E89E196E065
:103B10000E94AF228D3081F00CF451C090ED980FCF
:103B2000923008F04CC0E1E4F0E0EC0FFD1FEB0D2B
:103B3000F11D8083B39443C098E0B9123FC0229630
:103B40008FAD229790ED980F9230C0F5813311F030
:103B500080E001C080E823969FAD2397913309F45C
:103B6000805C24969FAD2497913309F4805E25965E
:103B70009FAD2597913309F4805F26969FAD2697D8
:103B8000913309F4885F27969FAD2797913309F405
:103B90008C5F28969FAD2897913309F48E5F299604
:103BA0009FAD2997913309F48F5FE1E0F0E0EC0FCE
:103BB000FD1FE00FF11F80830F5F1F4FB12C0034FA
:103BC0001105C9F4AE014F5F5F4FB70187E096E082
:103BD0000E94B52A8FEFE81AF80ADF92CF9289E1A6
:103BE00096E09F938F930E945B220F900F900F900F
:103BF0000F9000E010E09FEFE916F10409F00CF4DB
:103C000085CFC85BDF4F0FB6F894DEBF0FBECDBFC8
:103C1000DF91CF911F910F91FF90EF90DF90CF90A8
:103C2000BF9008952F923F924F925F926F927F9232
:103C30008F929F92AF92BF92CF92DF92EF92FF92BC
:103C40000F931F93CF93DF9300D01F92CDB7DEB7B2
:103C50001C017B0101E010E0F2E0CF2ED12CAA2460
:103C6000AA94BA2CB9E06B2E712C88E0882E912C86
:103C700089E196E00E947C22181619060CF048C1D2
:103C800089E196E00E94AF22AC0189838091C90549
:103C900081112AC04A835B830E94932B4A815B81F6
:103CA00060327E4481059105F8F40E94932B4A818D
:103CB0005B816938734181059105B0F029812A3013
:103CC00021F029812D3009F025C18091C8058F5F31
:103CD0008093C8058091C805833031F44A835B83A3
:103CE0000E94411D5B814A811092B605E091B905A1
:103CF000F091BA05EA30F10508F0DCC0E95BFF4F4E
:103D00000C94013129812E3F09F0D4C0D092BA051C
:103D1000C092B9051092490540934805B1C0298168
:103D2000263678F08091B7058F5F8093B705809134
:103D3000B8058F5F8093B8051093BA050093B90555
:103D4000B9C0409349051092BB0566E475E0842F25
:103D50000E944D0384E090E013C040934A0566E45E
:103D600075E0842F0E944D03E3E0F0E017C040931C
:103D70004B0566E475E0842F0E944D0385E090E0DA
:103D80009093BA058093B90595C040934C0566E4BD
:103D900075E0842F0E944D03E6E0F0E0F093BA0551
:103DA000E093B90587C040934D0566E475E0842F24
:103DB0000E944D03809149058823C1F087E090E07F
:103DC000DFCFE091BB0581E08E0F8093BB05F0E073
:103DD000E25BFA4F408366E475E0842F0E944D0356
:103DE0009091BB0580914905981364C09092BA05E3
:103DF0008092B9055FC0E0914D05F0E0E950FC4FBD
:103E000066E475E080814A835B830E944D03809164
:103E100046059091470599274A815B819A0133278E
:103E20002817390741F08091B8058F5F8093B80556
:103E30001092B60518C07092BA056092B905E0916B
:103E4000BB05F0E0E25BFA4F408334C04090470589
:103E5000512CCA01992784159505B9F08091B805B0
:103E60008F5F8093B8051093BA050093B905298137
:103E70002E3F01F5D092BA05C092B90510924905BE
:103E8000B0924705A092460515C081E08093B60523
:103E90001093BA050093B905E091BB05F0E0E15B32
:103EA000FA4F4083E6E4F5E0D10180E701900D92FE
:103EB0008A95E1F72091B605213099F480914A0561
:103EC0008093BC058091BE059091BF05009721F4B9
:103ED0001092C1051092C00501969093BF05809382
:103EE000BE058091BC058F5FF70186838091BE057A
:103EF0009091BF05918780878091B80590E0938766
:103F000082871092B805222309F4B2CE81E005C061
:103F100080E003C01092C805DDCE0F900F900F9087
:103F2000DF91CF911F910F91FF90EF90DF90CF9095
:103F3000BF90AF909F908F907F906F905F904F90C9
:103F40003F902F9008951F93CF93DF93CDB7DEB7A7
:103F5000CC57D1090FB6F894DEBF0FBECDBFBE015E
:103F60006F587F4FCE0101960E94121E882309F4DC
:103F700007C221E02093C9058885833209F4CBC1AB
:103F8000B0F5813009F4A0C008F46AC0883109F4A2
:103F9000B9C08E3109F0F4C121EE3EE245E652E4AB
:103FA00069897A898B899C890E94942F0E94372E77
:103FB0006093B80621EE3EE245E652E46D857E85CB
:103FC0008F8598890E94942F0E94372E6093B706A0
:103FD00021EE3EE245E652E46D897E898F89988D17
:103FE0000E94942F0E94372E6093B606C9C18E336B
:103FF00009F43EC150F48A3209F489C18F3209F0C4
:10400000BFC18B8580931B01BBC18A3409F4E9C011
:10401000883A09F0B5C189859A85AB85BC858093BE
:10402000A2069093A306A093A406B093A5068D853F
:104030009E85AF85B8898093AA069093AB06A0931E
:10404000AC06B093AD0689899A89AB89BC89809307
:10405000A6069093A706A093A806B093A90690C1C0
:10406000209395068E8180938F068F8180938E0694
:104070008D858093900689858093EC068F8580934B
:10408000090790E0880F892F881F990B892B19F059
:104090002093080702C0109208071092EB060E94B6
:1040A000932B0E94682E60939106709392068093E2
:1040B00093069093940680911601882309F460C1B9
:1040C00081E080938D065CC16F89788D80E090E0FF
:1040D0000E94682E20E030E04AE754E40E94CF2D91
:1040E0006093F1067093F2068093F3069093F406C2
:1040F000898D9A8D9093F0068093EF068FA180931F
:10410000EE063EC11DA1143671F169897A898B8949
:104110009C890E946A2E20E836E948E15BE40E940F
:10412000CF2D6093DF067093E0068093E1069093B5
:10413000E2066D897E898F89988D0E946A2E20E81B
:1041400036E948E15BE40E94CF2D6093DB06709373
:10415000DC068093DD069093DE061093D9068EA1CF
:104160008093DA060DC18091CB06811109C169895E
:104170007A898B899C890E946A2E20E836E948E179
:104180005BE40E94CF2D6093D5067093D606809392
:10419000D7069093D8066D897E898F89988D0E9465
:1041A0006A2E20E836E948E15BE40E94CF2D609357
:1041B000D1067093D2068093D3069093D406698D6E
:1041C0007A8D8B8D9C8D0E946A2E6093CD067093A4
:1041D000CE068093CF069093D0068EA18093CC0616
:1041E000CFC089859A85AB85BC8580931701909354
:1041F0001801A0931901B0931A018D859E85AF8592
:10420000B8898093980690939906A0939A06B093E4
:104210009B06698D7A8D882777FD8095982F0E945F
:104220006A2E6093B2067093B3068093B40690939F
:10423000B5068B8D9C8D9093970680939606898901
:104240009A89AB89BC898093AE069093AF06A09300
:10425000B006B093B1068D899E89AF89B88D8093E1
:10426000E3069093E406A093E506B093E60688C0C3
:1042700089859A85AB85BC85809322079093230717
:10428000A0932407B09325078D859E85AF85B889B7
:1042900080931E0790931F07A0932007B0932107D8
:1042A0008D8D9E8D90931D0780931C078F8D98A1F7
:1042B00090931B0780931A0789A19AA190931807DE
:1042C0008093170789899A89AB89BC8980931207E3
:1042D00090931307A0931407B09315078D899E89B7
:1042E000AF89B88D80930E0790930F07A0931007A6
:1042F000B0931107898D9A8DAB8DBC8D80930A0781
:1043000090930B07A0930C07B0930D0739C08985D4
:104310008093160735C08D859E85909307078093FF
:1043200006078F85988990930507809304078989EC
:104330009A8990930307809302078B899C899093B5
:104340000107809300078D899E89909315018093C2
:1043500014018F89988D9093130180931201898D98
:104360009A8D90931101809310018B8D9C8D909369
:104370000F0180930E010E94B4088E8D80934A062F
:104380008AE890E00E94EA2B8091C6059091C705CB
:10439000ED962EAD3FADED97820F931F9093C7051D
:1043A0008093C605E4962FADE4978091C405909163
:1043B000C505820F911D9093C5058093C405C4580F
:1043C000DF4F0FB6F894DEBF0FBECDBFDF91CF91A8
:1043D0001F91089580918D06882309F452C087E0CB
:1043E00096E00E948F294AE063E087E096E00E9411
:1043F000A12987E096E00E94A72987E392E09F9396
:104400008F9387E096E09F938F930E945B2287E0D3
:1044100096E00E94D6290E94450662E370E080E0A3
:1044200090E00E94C22B0E94450662E370E080E0AB
:1044300090E00E94C22B0E94450662E370E080E09B
:1044400090E00E94C22B10928D0660ED77E080E034
:1044500090E00E94C22B87E096E00E948F29109284
:1044600016010E94932B0E94682E60939106709310
:10447000920680939306909394060F900F900F905E
:104480000F900E94A31F8CEF95E00C9435298FEFBD
:104490009FE70895CF93DF93CDB7DEB79E01275FE7
:1044A0003F4F4F81588560E08D819E810E94BC24E2
:1044B000DF91CF910895CF93DF93CDB7DEB79E0103
:1044C000275F3F4F4F81588561E08D819E810E941B
:1044D000BC24DF91CF9108950F931F93DC01ED91E0
:1044E000FC910288F389E02D00E010E020E030E04C
:1044F00009951F910F910895DC015B962C915B97B4
:10450000222379F05796ED91FC9158978081918103
:1045100022813381821B930B248135818223932353
:1045200008958FEF9FEF0895DC015B962C915B97C8
:10453000222391F05996ED91FC915A9780819181B7
:1045400022813381821B930B809590952481358144
:1045500082239323019608958FEF9FEF0895DC0146
:104560005B962C915B97222359F05796ED91FC9125
:10457000589720813181828193812817390719F456
:104580008FEF9FEF089582819381A681B781A80F55
:10459000B91F8C91228133812F5F3F4F4481558118
:1045A000242335233383228390E00895DC015B9636
:1045B0002C915B97222359F05796ED91FC915897D7
:1045C00020813181828193812817390719F48FEF77
:1045D0009FEF0895828193810680F781E02DE80F97
:1045E000F91F808190E00895DC015796ED91FC91D0
:1045F000589722813381318320835996ED91FC9124
:104600005A9780819181938382830895FC01838DE1
:104610008823C1F1A18DB28D2D913C9111972F5F0F
:104620003F4F14968D919C91159728233923848DA3
:10463000811108C012968D919C9113972817390704
:10464000C9F308C012968D919C91139728173907CA
:1046500089F718C08D919C91119716960D90BC9179
:10466000A02DA80FB91F6C93A18DB28D11963C930C
:104670002E93A289B3898C919689892B8C9381E0A2
:1046800090E0089580E090E008954F925F926F92DD
:104690007F928F92AF92CF92EF92FF920F931F93E0
:1046A000CF93DF93CDB7DEB7FC011382128288EE81
:1046B000482E83E0582E612C712C448255826682EC
:1046C00077828FE195E09183808355874487378790
:1046D0002687118B008BF38AE28AC48AA58A868A90
:1046E00028E0629FC00111249C01215D384F308F6A
:1046F000278B895D984F928F818F81E090E001C078
:10470000880F6A95EAF790912607982B90932607D1
:1047100040E051EE60E070E0CF01DF91CF911F915A
:104720000F91FF90EF90CF90AF908F907F906F9010
:104730005F904F900C946C220F931F93CF93DF9355
:104740008C01FC011382128211821082A1E0E1E04F
:10475000F0E02A2FAF010A2E02C0440F551F0A9421
:10476000E2F7CB016130B2E07B0710F080E092E02D
:104770004817590710F4AF5FECCFC1E0D0E002C09A
:10478000CC0FDD1F2A95E2F72197F80186819781EA
:10479000009739F0248135812C173D0789F00E945C
:1047A000B331F801D583C483CE0101960E941B3139
:1047B000F8019783868321E0892B19F420E001C05A
:1047C00021E0822FDF91CF911F910F910895AF9239
:1047D000BF92CF92DF92EF92FF920F931F93CF93EE
:1047E000DF93EC016A017B0159018B8D8823D1F0A5
:1047F0002115310539F4EF89F88DA480B5808FEF4C
:10480000A81AB80A0115110531F4E98DFA8D048151
:1048100015810F5F1F4FE881F9810088F189E02D34
:10482000CE010995A114B10419F460E870E001C04B
:10483000B5018F89988D0E949C23882369F001150A
:10484000110519F460E170E001C0B801898D9A8DFD
:104850000E949C23811111C0E881F9810088F189AF
:10486000E02DCE01DF91CF911F910F91FF90EF903E
:10487000DF90CF90BF90AF900994E98DFA8D1382AD
:10488000128211821082EF89F88D138212821182B6
:10489000108281E08B8F1C141D041E041F045CF524
:1048A000E889F989C11481EED806E104F104A1F187
:1048B00081E090E00C8802C0880F991F0A94E2F70B
:1048C000808360E079E08DE390E0A70196010E948B
:1048D000E2302150310941095109CA01B90122E0F0
:1048E00030E040E050E00E94E230EC85FD8530830E
:1048F000EE85FF852083EA89FB8980819D89892B4C
:104900008083DF91CF911F910F91FF90EF90DF9007
:10491000CF90BF90AF900895108220E130E0E5CFB6
:10492000CF93DF93EC011B821A82198218821D82B9
:104930001C828E819F81009721F00E94B3311F82DB
:104940001E82DF91CF910895CF93DF93EC01EA8926
:10495000FB8990818E892D89822B80958923808384
:104960008F89988D0E949024898D9A8D0E94902421
:104970001B8EDF91CF9108952F923F924F925F92BD
:104980006F927F928F929F92AF92BF92CF92DF925F
:10499000EF92FF920F931F93CF93DF93CDB7DEB7C4
:1049A00063970FB6F894DEBF0FBECDBF7C01262EF5
:1049B0005D874C876901CE0101963C01EC85FD8540
:1049C00020FC359120FE3191FD87EC87332309F4DB
:1049D000BEC3353249F420FC359120FE3191FD876C
:1049E000EC873532D1F40DC03A3059F4D701ED914E
:1049F000FC910190F081E02D6DE0C7013A8B0995A3
:104A00003A89D701ED91FC910190F081E02D632F5F
:104A1000C701099546016401D1CF10E0512C20E077
:104A20002032A0F43B3269F030F4303259F03332A6
:104A300069F420612CC03D3239F0303339F4216003
:104A400026C02260246023C0286021C027FD29C021
:104A500080ED830F8A3078F426FF06C0BAE01B9FF2
:104A6000800D1124182F13C0EAE05E9E800D1124E2
:104A7000582E20620CC03E3221F426FD68C320640B
:104A800006C03C3611F4206802C0383651F4EC857B
:104A9000FD8520FC359120FE3191FD87EC87311199
:104AA000BFCF8BEB830F833018F42061305E06C0DC
:104AB0008BE9830F833008F0DFC12F7E26FF16E0DD
:104AC0002F73B22E353621F4F22FF064BF2E08C0BA
:104AD000363621F4822F8068B82E02C01111115091
:104AE000B7FE06C01C3348F444244394410E07C06B
:104AF000183038F4212F412C07C09CE3492E27E0C1
:104B000003C0412C27E017E0460194E0890E911C78
:104B1000D6016D917D918D919C91042DA3010E94F0
:104B200017026C01398030FE02C033FE06C0B1FCB2
:104B300006C0B2FC06C000E005C00DE203C00BE2F7
:104B400001C000E2832D8C7009F43FC0002311F0F6
:104B500084E001C083E0851510F0512C0FC0581A75
:104B6000B3FC0CC0D701ED91FC910190F081E02DD8
:104B700060E2C70109955A94A9F7EFCF002349F0E5
:104B8000D701ED91FC910190F081E02D602FC701DC
:104B9000099533FC03C002E813E002C00EE713E0FE
:104BA000BB2DB071BB2EF8016491662309F4C1C21C
:104BB000B1106052D701ED91FC910190F081E02D90
:104BC000C70109950F5F1F4FEECFB7FE0FC04C0C0A
:104BD00034FE04C08A81813309F44A94141474F5B4
:104BE000F8E0F41578F588E0482E2CC0B6FC2AC011
:104BF000812F90E08C159D059CF08CEFC8168FEFEF
:104C0000D80674F09B2D9068B92E0AC0E2E0F0E05F
:104C1000EC0FFD1FE10FF11D8081803319F411505D
:104C20001111F4CFB7FE0EC044244394410E812FDE
:104C300090E0C816D9062CF41C1904C044244394EF
:104C400001C010E0B7FE06C01C141D0434F4C601F8
:104C5000019605C085E090E002C081E090E001117E
:104C60000196112331F0212F30E02F5F3F4F820F4B
:104C7000931F252D30E08217930714F4581A01C0B2
:104C8000512C8B2D897069F4552059F0D701ED9185
:104C9000FC910190F081E02D60E2C70109955A94E2
:104CA000F3CF002349F0D701ED91FC910190F08101
:104CB000E02D602FC7010995B3FC0DC0552059F0B8
:104CC000D701ED91FC910190F081E02D60E3C701E7
:104CD00009955A94F3CFB7FE64C09C2D8D2DD7FE55
:104CE00002C090E080E0A92EB82E40E050E0F6012E
:104CF000E419F109FF87EE8796012A193B09260D71
:104D0000371D812F90E000271127081B190BFFEF9B
:104D1000AF16BF0689F4D701ED91FC910190F081A7
:104D2000E02D6EE2C7012B8B3A8B488B598B09958E
:104D3000598948893A892B89CA14DB0454F0EE85D5
:104D4000FF85EA15FB052CF4F901E40FF51F6181DD
:104D500001C060E3F1E0AF1AB1084F5F5F4FD701C8
:104D6000ED91FC91A016B10674F00190F081E02D58
:104D7000C7012B8B3A8B488B598B09952B893A8924
:104D800048895989C4CFAC14BD0409F06FC08A8129
:104D9000863328F4853309F069C034FC67C061E3C9
:104DA00065C06A81613319F0B32DBF7E3B2ED701F8
:104DB000ED91FC910190F081E02DC7010995111151
:104DC0000AC0D701ED91FC910190F081E02DB4FE75
:104DD0001EC065E41DC0D701ED91FC910190F081EA
:104DE000E02D6EE2C701099582E001E0080FD701CE
:104DF000ED91FC91D301A80FB11D0190F081E02D40
:104E00006C91C70109951150E1F2802FEECF65E654
:104E1000C7010995D7FC05C0C114D10439F434FE8B
:104E200005C0D194C194D1086DE201C06BE2D701F5
:104E3000ED91FC910190F081E02DC701099560E3AF
:104E4000EAE0CE16D1042CF06F5FBAE0CB1AD1089D
:104E5000F7CFD701ED91FC910190F081E02DC701D2
:104E60000995D701ED91FC9160E36C0D0190F08103
:104E7000E02DC70109955DC1333631F0333779F044
:104E8000333509F060C021C04601B2E08B0E911CA1
:104E9000F6018081898301E010E0630114C04601BE
:104EA000F2E08F0E911CD601CD90DC9026FF03C05E
:104EB000612F70E002C06FEF7FEFC6012B8B0E9465
:104EC0004D328C012B892F7715C04601B2E08B0E35
:104ED000911CF601C080D18026FF03C0612F70E0D5
:104EE00002C06FEF7FEFC6012B8B0E9442328C0114
:104EF0002B892068B22E23FD22C0852D90E0081753
:104F00001907E8F4D701ED91FC910190F081E02DB3
:104F100060E2C70109955A94F0CFF601B7FC65919C
:104F2000B7FE61916F01D701ED91FC910190F08185
:104F3000E02DC701099551105A940150110901152E
:104F4000110559F7F6C0343611F0393651F54601DE
:104F500027FF09C0B4E08B0E911CF60160817181BE
:104F6000828193810AC0F2E08F0E911CD6016D916F
:104F70007C91882777FD8095982F022F0F7697FFD9
:104F800008C090958095709561957F4F8F4F9F4F8A
:104F900000682AE030E0A3010E94EF02D82ED61864
:104FA0003EC0022F353721F40F7E2AE030E01DC0CD
:104FB000097F3F3691F018F4383559F0C8C03037C2
:104FC00019F0383711F0C3C0006104FF09C0046054
:104FD00007C024FF08C0066006C028E030E005C016
:104FE00020E130E002C020E132E0460107FF09C0C5
:104FF000B4E08B0E911CF6016081718182819381F6
:1050000008C0F2E08F0E911CD6016D917C9180E07A
:1050100090E0A3010E94EF02D82ED6180F7706FF6A
:105020000BC0202F2E7FD11650F404FF0AC002FDC2
:1050300008C0202F2E7E05C0CD2C202F03C0CD2CE4
:1050400001C0C12E24FF0DC0FE01ED0DF11D8081B8
:10505000803311F4297E09C022FF06C0C394C39493
:1050600004C0822F867809F0C39423FD17C020FF67
:1050700006C01D2DC51418F4150D1C19C52CC5141A
:1050800088F4D701ED91FC910190F081E02D60E270
:10509000C7012B8B0995C3942B89F1CFC51410F44C
:1050A0005C1801C0512CD701ED91FC9124FF16C072
:1050B0000190F081E02D60E3C7012B8B09952B89CE
:1050C00022FF1BC0D701ED91FC910190F081E02DF2
:1050D00021FF02C068E50FC068E70DC0822F867807
:1050E00061F021FD02C060E201C06BE227FD6DE2CC
:1050F0000190F081E02DC7010995D11658F4D70130
:10510000ED91FC910190F081E02D60E3C7010995DC
:105110001150F3CFDA94D701ED91FC91D301AD0D8D
:10512000B11D0190F081E02D6C91C7010995D1105E
:10513000F1CF552009F46FCCD701ED91FC9101908E
:10514000F081E02D60E2C70109955A94F2CF639691
:105150000FB6F894DEBF0FBECDBFDF91CF911F9188
:105160000F91FF90EF90DF90CF90BF90AF909F9006
:105170008F907F906F905F904F903F902F90089509
:105180000F93FC016115710571F021833283438314
:10519000548372876187808100FB83F982608B7FF3
:1051A000808381E001C080E00F9108950F931F93E9
:1051B000CF93DF93EC0189859A85892BE1F04981B2
:1051C0005A816B817C81452B462B472BA1F00E9495
:1051D000932B09811A812B813C81600F711F821FE3
:1051E000931F6D837E838F839887888184608F7EF1
:1051F000888381E001C080E0DF91CF911F910F9102
:1052000008950F931F93CF93DF93EC010E94932B8C
:105210000D811E812F8138856017710782079307E2
:1052200018F4288124FF0EC009811A812B813C814A
:10523000060F171F281F391F0D831E832F833887E2
:1052400021E001C020E0DC01CB018827B7FD839578
:105250009927AA27BB27388180FB34F93883822F0E
:10526000DF91CF911F910F910895CF93DF93EC01C0
:10527000888182FF0FC0CE010E940129882351F04E
:10528000E985FA85309709F00995888183FF02C086
:105290008B7F8883DF91CF91089580E090E008951F
:1052A00080E090E0089580E090E008950895FC018A
:1052B0001382128248EE53E060E070E0448355832D
:1052C0006683778387E395E0918380830895CF9306
:1052D000DF93EC01188A86E0898B80E993E00E94D5
:1052E0005832813041F480E4888B88E0898B60E01B
:1052F00086E00E94922C60E086E0DF91CF910C94D2
:10530000922CFC018089803419F080E090E00895AF
:1053100081E090E00895FC01818990E0089560E0CB
:1053200086E00E94922C64E08BE397E00E943F2B82
:1053300064E08BE397E00E943F2B61E086E00C94F1
:10534000922CFC0164874587668747870895CF9331
:10535000DF93FC012785C685D0E0FEE12F9FC00DBD
:10536000D11D112460E086E00E94922C64E08BE362
:1053700097E00E943F2B63E08BE397E00E943F2B76
:1053800065E08BE397E00E943F2B6D2F8BE397E066
:105390000E943F2B66E08BE397E00E943F2B6C2F2F
:1053A0008BE397E0DF91CF910C943F2BCF93DF936A
:1053B000EC0167E08BE397E00E943F2B6FEF8BE3FC
:1053C00097E00E943F2B61E086E00E94922C8F853F
:1053D0008F5F8F87DF91CF9108951F93CF93DF93D6
:1053E000EC01162F6C3731F40E94D629CE010E94B1
:1053F000A7290AC067E08BE397E00E943F2B612F4B
:105400008BE397E00E943F2B81E090E0DF91CF910A
:105410001F910895CF93DF93C62FD0E08EE1489F70
:10542000C00DD11D112460E086E00E94922C65E041
:105430008BE397E00E943F2B6D2F8BE397E00E9458
:105440003F2B66E08BE397E00E943F2B6C2F8BE3B2
:1054500097E0DF91CF910C943F2B1F93CF93DF9375
:10546000EC01162F60E086E00E94922C60E08BE356
:1054700097E00E943F2B112329F0113041F46889F5
:105480006C6101C068898BE397E00E943F2B61E06B
:1054900086E0DF91CF911F910C94922C1F93CF93B4
:1054A000DF93EC0161E086E00E94592C60E082E02D
:1054B0000E94592C61E082E00E94922CCE010E9451
:1054C000672960E086E00E94922C6CEE8BE397E007
:1054D0000E943F2B6FEF8BE397E00E943F2B182F2A
:1054E00060E08BE397E00E943F2B688962608BE36A
:1054F00097E00E943F2B62E370E080E090E00E9422
:10550000C22B6CE68BE397E00E943F2B612F6F7EEE
:105510008BE397E00E943F2B10923A0710923907D5
:105520008091390790913A070C97C4F4609139073C
:1055300070913A07605F8BE397E00E943F2B60E039
:105540008BE397E00E943F2B8091390790913A07B7
:10555000019690933A0780933907E2CF61E0CE013C
:10556000DF91CF911F910C942D2AEF92FF920F9310
:105570001F93CF93DF9300D0CDB7DEB7162F60E037
:1055800086E049835A830E94922C60E08BE397E087
:105590000E943F2B60E08BE397E00E943F2B69E085
:1055A0008BE397E00E943F2B612F8BE397E00E94F3
:1055B0003F2B4981E42E5A81F52E10E0F70101912D
:1055C0007F016AE08BE397E00E943F2B612F8BE322
:1055D00097E00E943F2B6BE08BE397E00E943F2B0C
:1055E000602F8BE397E00E943F2B1F5F163331F74C
:1055F00068E08BE397E00E943F2B60EA8BE397E043
:105600000E943F2B60EA8BE397E00E943F2B85FDD1
:10561000F9CF60E08BE397E00E943F2B6CE08BE3D7
:1056200097E00E943F2B61E086E00F900F90DF91A2
:10563000CF911F910F91FF90EF900C94922C1CBC76
:105640006F7260656CBD8DB58EB50895CF93DF9395
:10565000EC0161E08DE00E94592C61E08BE00E943A
:10566000592C60E08CE00E94592C61E08AE00E9495
:10567000592C60E0CE01DF91CF910C941F2B6EBDB1
:105680000DB407FEFDCF8EB508958BE397E00C9423
:10569000262B1F920F920FB60F9211242F933F9338
:1056A0008F939F93AF93BF9380913D0790913E0757
:1056B000A0913F07B091400730913C0723E0230FB2
:1056C0002D3720F40196A11DB11D05C026E8230F3A
:1056D0000296A11DB11D20933C0780933D07909336
:1056E0003E07A0933F07B0934007809141079091F8
:1056F0004207A0914307B09144070196A11DB11D37
:105700008093410790934207A0934307B0934407C7
:10571000BF91AF919F918F913F912F910F900FBEAD
:105720000F901F9018952FB7F89460913D077091D6
:105730003E0780913F07909140072FBF08953FB7E4
:10574000F8948091410790914207A0914307B0914E
:10575000440726B5A89B05C02F3F19F00196A11D4F
:10576000B11D3FBF6627782F892F9A2F620F711DB9
:10577000811D911D42E0660F771F881F991F4A9572
:10578000D1F70895CF92DF92EF92FF92CF93DF93FC
:105790006B017C010E949F2BEB01C114D104E10439
:1057A000F10489F00E94002D0E949F2B6C1B7D0B41
:1057B000683E734090F381E0C81AD108E108F1080F
:1057C000C851DC4FEACFDF91CF91FF90EF90DF908F
:1057D000CF9008958230910538F0880F991F880F77
:1057E000991F05970197F1F70895789484B5826021
:1057F00084BD84B5816084BD85B5826085BD85B575
:10580000816085BDEEE6F0E0808181608083E1E823
:10581000F0E010828081826080838081816080835B
:10582000E0E8F0E0808181608083E1EBF0E080815E
:1058300084608083E0EBF0E0808181608083EAE730
:10584000F0E08081846080838081826080838081B9
:10585000816080838081806880831092C100089578
:10586000833081F028F4813099F08230A1F00895DE
:105870008730A9F08830B9F08430D1F4809180006D
:105880008F7D03C0809180008F7780938000089582
:1058900084B58F7702C084B58F7D84BD08958091D3
:1058A000B0008F7703C08091B0008F7D8093B000EF
:1058B0000895CF93DF9390E0FC01E656FC4F2491CE
:1058C000FC01E255FC4F8491882349F190E0880F58
:1058D000991FFC01E453FC4FA591B4918E539C4F4A
:1058E000FC01C591D4919FB7611108C0F8948C91C7
:1058F000209582238C93888182230AC0623051F4E0
:10590000F8948C91322F309583238C938881822B4D
:10591000888304C0F8948C91822B8C939FBFDF9175
:10592000CF9108950F931F93CF93DF931F92CDB71D
:10593000DEB7282F30E0F901EA57FC4F8491F901D6
:10594000E656FC4F1491F901E255FC4F04910023F7
:10595000C9F0882321F069830E94302C6981E02FEF
:10596000F0E0EE0FFF1FEE53FC4FA591B4919FB7EF
:10597000F8948C91611103C01095812301C0812B93
:105980008C939FBF0F90DF91CF911F910F9108953E
:1059900008950E94F52B0E94C82C0E94E31CC0E0D1
:1059A000D0E00E94EA212097E1F30E940000F9CFA5
:1059B000CF92DF92EF92FF920F931F93CF93DF93DB
:1059C0006C017A01EB01E60EF71E00E010E0CE1547
:1059D000DF0561F06991D601ED91FC910190F081B4
:1059E000E02DC6010995080F191FF1CFC801DF91FD
:1059F000CF911F910F91FF90EF90DF90CF9008957E
:105A000008955058BB27AA270ED038C201D230F0D3
:105A100006D220F031F49F3F11F41EF4C0C10EF401
:105A2000E095E7FBB6C1E92F4BD280F3BA176207C6
:105A300073078407950718F071F49EF563C20EF49E
:105A4000E0950B2EBA2FA02D0B01B90190010C018E
:105A5000CA01A0011124FF27591B99F0593F50F4A6
:105A6000503E68F11A16F040A22F232F342F4427FE
:105A7000585FF3CF469537952795A795F0405395F6
:105A8000C9F77EF41F16BA0B620B730B840BBAF0C6
:105A90009150A1F0FF0FBB1F661F771F881FC2F731
:105AA0000EC0BA0F621F731F841F48F48795779545
:105AB0006795B795F7959E3F08F0B3CF9395880FFC
:105AC00008F09927EE0F979587950895A1D158F082
:105AD00080E891E009F49EEFA2D128F040E851E07F
